:020000040800F2
:1000000000190020890100089101000893010008EF
:100010009501000897010008990100080000000000
:100020000000000000000000000000009B0100082C
:100030009D010008000000009F010008A1010008C8
:10004000A3010008A3010008A3010008A301000800
:10005000A3010008A3010008A3010008A3010008F0
:10006000A3010008A3010008A3010008A3010008E0
:10007000FB170008D5170008A3010008A30100081A
:10008000A3010008A3010008A3010008A3010008C0
:10009000A3010008A3010008A3010008A3010008B0
:1000A000A3010008A3010008A3010008A3010008A0
:1000B000A3010008A3010008A3010008A301000890
:1000C000A3010008A3010008A3010008A301000880
:1000D000A3010008A3010008A3010008A301000870
:1000E000A3010008A3010008A301000800F002F822
:1000F00000F03AF80AA090E8000C82448344AAF188
:100100000107DA4501D100F02FF8AFF2090EBAE885
:100110000F0013F0010F18BFFB1A43F0010318473B
:10012000F457000014580000103A24BF78C878C172
:10013000FAD8520724BF30C830C144BF04680C60ED
:10014000704700000023002400250026103A28BF35
:1001500078C1FBD8520728BF30C148BF0B60704739
:100160001FB51FBD10B510BD05F096FB1146FFF77A
:10017000F7FF01F095F905F0B4FB03B4FFF7F2FFC8
:1001800003BC05F0B9FB0000094880470948004757
:10019000FEE7FEE7FEE7FEE7FEE7FEE7FEE7FEE737
:1001A000FEE7FEE704480549054A064B7047000094
:1001B00029180008ED000008001300200019002095
:1001C0000015002000150020FF494FF4184008607A
:1001D000FE48017BFE48002908BF4FF400610AD0A9
:1001E000012908BF4FF4805105D0022904BF4FF404
:1001F00000410160704701607047F448017BFF29AE
:1002000008BF7047F34A535C012B08BF7047491C75
:10021000CBB2FF210373022B88BF0173037BFF2B3B
:100220001ABF12F803C0BCF1010F70475B1CDBB2B0
:100230000373022B88BF0173037BFF2B1ABFD25CB1
:10024000012A70475A1CD2B20273022A88BF017376
:100250000173704730B5E0484FF480550560DF48C2
:100260000088DA4CE18A411A89B2B1F5FA7F38BFC9
:1002700030BDE082207B401CC0B22073022884BFC6
:10028000FF202073FFF7B9FFCF494FF418400860F3
:10029000217BCF48002908BF4FF4006108D0012915
:1002A00004BF056030BD02290CBF4FF4004130BDD2
:1002B000016030BD10B5CA4C208910F0020F06D184
:1002C00002F027FB58B9208910F0020FF8D02089DE
:1002D00010F0800F09D000BF02F01BFB08B1002016
:1002E00010BD208910F0800FF6D1012010BD10B58F
:1002F000B64C607A012809D002F00BFB18B101203E
:100300006072002010BD607A0128F5D1012010BD77
:100310002DE9F047AD4D88800746CA80687A9A4635
:1003200090460E4601280AD002F0F3FA20B10120CF
:1003300068724FF0000904E0687A0128F4D14FF0A8
:100340000109A74C208910F0020F06D102F0E1FA52
:1003500058B9208910F0020FF8D0208910F0800FD2
:1003600009D000BF02F0D5FA08B1002104E02089CD
:1003700010F0800FF6D101219A48026B22F00102A1
:100380000263C26922F00102C261228912F0010FE8
:1003900018BFA289002F0CBF01220022AA72B8F157
:1003A000000F0CBF01220022EA7200226A72C663AB
:1003B0004763C0F828A0C0F82080026B42F0010219
:1003C0000263C26942F00102C26117B17E4A08208D
:1003D0001060B9F1000F16BF002900200120BDE810
:1003E000F0872DE9F05F0024DFF8E8B1DFF8F8814D
:1003F00001262546ABF11A074FF0030A38F814001E
:10040000302800F0F98006DC10280AD0202800F0FF
:10041000C98000F006B9702847D080287DD000F050
:1004200000B969497E737E704FF418400860387BCC
:1004300020B1012807D002280AD00DE064484FF40B
:100440000061016008E062484FF48051016003E000
:100450005F484FF40041016008EB44090021B9F8FE
:100460000200020A6148042306FA01FC1CEA020F9A
:1004700014BF4670457001F1010C06FA0CFC1CEA31
:10048000020F14BF86708570801C891C5B1E13F0E0
:10049000FF03E9D199F80210F971002004F03DFE44
:1004A00028F81450A9F8025053E008EB440148889A
:1004B000000A10F0010F14BF8BF800608BF8005099
:1004C00010F0020F14BF8BF801608BF8015010F090
:1004D000040F14BF8BF802608BF80250387BFF28A2
:1004E0001CBF1BF80020012A26D0401CC0B2387364
:1004F000022884BFFF203873C0B2FF281CBF1BF83E
:100500000020012A18D0401CC0B23873022884BFD2
:10051000FF203873C0B2FF2800E01CE01CBF1BF8AE
:100520000020012A08D0401CC0B23873022884BFC2
:10053000FF203873FF203873234A4FF418401060AF
:10054000387B28B3012828D002281CD028F8145062
:100550004D80601C64E008EB44014888000A0328D1
:1005600004D21BF80020012A08BF3873FF2808BFF7
:1005700038734FF41840144A1060387B40B101289A
:100580000BD00228E2D1124A4FF400401060DDE7A0
:100590000F4A4FF400601060D8E70D4A4FF48050C6
:1005A0001060D3E708EB440041888088090241EAE3
:1005B00010217962F87000202118401CC0B228F880
:1005C00011500328F8D313E0100801400000002068
:1005D000140801401A00002014040140242C01409A
:1005E0000030014000000240500900202B00002094
:1005F0000420B87013E000BF08EB440041888088F5
:10060000090241EA10217962F87000202118401C8B
:10061000C0B228F811500328F8D387F802A0A01C14
:10062000C4B2601CC4B2102CFFF4E8AEBDE8F09F69
:10063000F64A5078022818BF704730B40021F448B9
:100640000423D27901248C4691420CBF447080F877
:1006500001C04D1C95420CBF847080F802C0801C04
:10066000891C5B1E13F0FF03EED130BC7047E74AD4
:10067000507C002818BF70474FF04430E5490860AF
:10068000E549012008600B1F18604FF0060CC3F805
:1006900000C0E24B1B680860C1F800C0E04B4FF49B
:1006A0006061196090717047DA494FF0443008601A
:1006B000D948012101600623021F1360D74A12683E
:1006C0000360D2B2D14802F07F03222B037418BF1B
:1006D000417401D08174704700214174D109F9E758
:1006E000CC494FF044300860CB480121016006231B
:1006F000021F1360C94A12680360D2B2C34802F0F5
:100700007F03222B037418BF417402D08174C8B2D6
:10071000704700214174D109F8E770B5C14BFF243F
:100720000822A3F6C4010520FFF7F2FDB74D687A51
:10073000012808D002F0EDF810B10120687202E043
:10074000687A0128F6D1B749002000BF31F810209F
:10075000402A09D0401CC0B20828F7D3204602F036
:1007600073F90020A87070BD01EB40004088040AB6
:10077000F4E72DE9F84FA54CA64A0020A082AA4E26
:100780004FF044311160A44A012111600091616A67
:10079000002918BF4FF6FF7B4BD0606AB0F5007F91
:1007A0008CBF4FF4007101468FB2C01B6062A08AFB
:1007B0003081401C07F0010101EB57090525A0829B
:1007C0004FF00008B9F1000F1DD900BF02F0B3F9D6
:1007D0000BEA002AA079002834D0781E07043F0CC9
:1007E0002BD002F0A8F9A1794AEA000051B326F80B
:1007F0001500681C85B2791E08F101001FFA80F807
:100800008FB2C845E2D3002026F81500681C80B2DC
:10081000A6F82602854B01223146FFF779FD0099A3
:10082000084307D000200090606AD6F828620028AC
:10083000B3D10520A070BDE8F88F26F815A0681C7C
:1008400085B2E0E70020A070BDE8F88FB0F5007F2A
:1008500028BF4FF4007000F0010303EB5002A1F831
:100860002802921D694892B2DFF8C4C1A1F826227D
:10087000838AACF808305B1C83820B4661460620F5
:1008800046E52DE9F05F614D0021A982A970686AF3
:1008900000287CD0C205C0F34F28D20D1CBF08F140
:1008A00001021FFA82F8634CB0F5007F234628BF8F
:1008B0004FF4007000F0010C0CEB5002921DA3F8F5
:1008C0002802DFF86CB192B2A3F82622ABF8081028
:1008D0000127AF8259460620FFF71AFDB4F8280217
:1008E000696A081A686254480760DFF828A14FF067
:1008F0003330CAF800004FF00009B8F1000F4DD9AD
:10090000687A38B902F005F808B16F724BE0687A7E
:100910000028F7D0686AF8B1D4F82C62B0F5007FEF
:10092000334628BF4FF4007000F0010202EB500183
:10093000891D8AB2A3F82802A3F82622A88AABF858
:100940000800401CA8823A490620FFF7E1FCB6F8EF
:100950002802696A081A6862B4F826220021204633
:10096000002A07D930F8023BDA2B08D0491C89B29B
:100970008A42F7D8BDE8F05F022002F065B8B4F80B
:10098000281202F01DF970B1D4F82C4200E005E005
:1009900009F101001FFA80F9C145B1D3E878BDE83B
:1009A000F05F02F051B84FF04430CAF800001A4826
:1009B0000760BDE8F09F10B5204C4FF0000C2146B9
:1009C00020784B7800F01F008A781F280DD0002176
:1009D000002808BF4FF0010C0C4C647B94B1BCF1B3
:1009E000010F08BF432B09D00CE001211846A02BB2
:1009F00008BF4FF0010C1346E278EDE7452A04BF2B
:100A0000002010BD02F088FD012010BD0000002074
:100A10002B000020000C014014080140080C01408C
:100A200014040140500900209800002028000020F4
:100A300080000020F0040020100801407009002010
:100A40004FEA501C06210A22FE48BCF1060F09D2CB
:100A5000DFE80CF008030308050742717047102116
:100A600000E00C21417170472DE9F05F01F064FF57
:100A7000F54910F0010F1EBF0A78002A00241BD090
:100A8000085D002808BFBDE8F09F4FF00608ED4E56
:100A900000254FF00A0986F805804FF0100A4FF044
:100AA0000C0BEA4F01F06AFF7855B07901284DD060
:100AB000707C002832D046E010F0020F1EBF4A784A
:100AC000002A0124DCD110F0040F1EBF8A78002A0E
:100AD0000224D5D110F0080F1EBFCA78002A0324C3
:100AE000CED110F0100F1EBF0A79002A0424C7D1FE
:100AF00010F0200F1EBF4A79002A0524C0D110F043
:100B0000400F1EBF8A79002A0624B9D110F0800F49
:100B10001EBFC87900280724B2D114E0CC494FF099
:100B200044300860CB4A01201060111F0860C1F8F2
:100B30000080C94909681060C2F80080C74A4FF4B4
:100B400060611160B0710020BDE8F09F002D08BF0A
:100B5000387812D14009062804D2DFE800F00306F5
:100B60000603090C86F8058007E086F8059004E086
:100B700086F805A001E086F805B070796D1C854205
:100B800090DBC5B2062D08D90D22B049781C04F0BF
:100B900039FD1F203870681C7071387840EA4410A5
:100BA00038700120BDE8F09FA8491F2208788243D1
:100BB000A44818BF062101D04171704749784B09FC
:100BC0004FF00701F8D00B22012B12BF022B42710C
:100BD0007047052B08BF0D21EEE72DE9F05F01F00E
:100BE000ABFE9A4E984930704009085C002808BF57
:100BF000BDE8F09F0627934C01254FF01F0A67714F
:100C00004FF00B094FF00D0B4FF0070801F0B6FE47
:100C10007055A079012817D0607C90B98C494FF0AD
:100C2000443008608B49012008600A1F106017607B
:100C3000894A126808600F60884A4FF46061116049
:100C4000A0710020BDE8F09F012D05D130783AEA6F
:100C5000000018BF677107D0681CC5B26079854273
:100C6000D4D30120BDE8F09F707840090AD0012854
:100C700014BF022884F80590EED0052808BF84F838
:100C800005B0E9D084F80580E6E72DE9F0416D4C28
:100C9000607C10B1FFF7A1FF01E0FFF7E5FE00283F
:100CA00008BFBDE8F081694AE37901251078410960
:100CB000994220D1002300F01F001F2812D00021EC
:100CC000002808BF012392F801C09678677B2FB1F6
:100CD000012B04BFBCF1430F452E0CD0BDE8F04101
:100CE00002F01ABC50780121A02808BF012392F815
:100CF00002C0D678EAE76078022808BFBDE8F08134
:100D00005748118849BA018003215388491E5BBAAC
:100D1000438032F8043F5BBA20F8043FF5D101F07C
:100D2000E5FD504B1022A3F6E8010C20FFF7F0FA86
:100D30000220A070A573BDE8F0812DE9F84F414C69
:100D40004FF6FF7BA078002853D101F0EEFD00287C
:100D50004FD0607C10B1FFF740FF01E0FFF784FE49
:100D6000002846D0394AE37911784809984220D1C1
:100D700001F01F004FF0000C1F2811D000210028A7
:100D800008BF4FF0010C55789378667B2EB1BCF10B
:100D9000010F04BF432D452B0BD002F0BDFB28E013
:100DA00050780121A02808BF4FF0010C9578D37826
:100DB000EBE7607802281CD02948118849BA0180E5
:100DC00003215388491E5BBA438032F8043F5BBA63
:100DD00020F8043FF5D101F089FD224B1022A3F643
:100DE000E8010C20FFF794FA0220A0700120A07304
:100DF00095E0A078032804D0042807D0052877D0F0
:100E00008DE001F073FDFFF73CFDBAE001F06EFDEF
:100E10000F4A0020A082144E4FF0443111600D4A59
:100E2000012111600091616A00295FD0606AB0F50C
:100E3000007F8CBF4FF4007101468FB2C01B60620F
:100E4000A08A13E0000000202C0000207009002080
:100E5000000C014014080140080C0140140401403A
:100E60007000002050090020980000203081401CB4
:100E700007F0010101EB57090525A0824FF000089A
:100E8000B9F1000F1CD900BF01F055FE0BEA002A92
:100E9000A079D8B3781E07043F0C50D001F04BFE68
:100EA000A1794AEA000089B326F81500681C85B2CA
:100EB000791E08F101001FFA80F88FB2C845E3D30C
:100EC000002026F81500681C80B2A6F82602FE4B0A
:100ED00001223146FFF71CFA009908431DD000207B
:100EE0000090606AD6F8286200289FD10520A07083
:100EF00001F0FCFCF54BFF250822A3F6C4010520F8
:100F0000FFF706FA607A012821D000E005E001F041
:100F100000FDC8B10120607219E00020A070607A65
:100F200000281CBFA07B002803D0FFF75AFA00203E
:100F3000A07301F0EEFC00B30020A07021E026F8C1
:100F400015A0681C85B2BBE7607A0128DDD1DF49B6
:100F5000002000BF31F81020402A09D0401CC0B248
:100F60000828F7D3284601F06FFD0020A07008E0A4
:100F700001EB40004088050AF4E7A07800287FF4E0
:100F8000E1AEA079012818BFFFF771FB607C002853
:100F900018BFBDE8F88F4FF04430CD490860CD4A06
:100FA000012010600623111F0B60CB4909681360F4
:100FB000C9B201F07F022274222A1EBF6074A0749D
:100FC000BDE8F88FC809A07418BFBDE8F88FBDE868
:100FD000F84FFFF74CBBF0B5C04F8BB0384600F070
:100FE00041FEBF4D002410200095CDE90140802630
:100FF000CDE9044603944002CDE9084006940794E5
:10100000694638460A9400F093FE012202213846D0
:1010100000F0CDFEB34F384600F024FECDE9005479
:10102000CDE9044603944FF44050CDE908400294C2
:1010300006940794694638460A9400F079FE012226
:101040000221384600F0B3FE0BB0F0BD10B5A64C3F
:1010500086B00021204600F03DFD684600F02EFDE0
:101060004FF48270ADF802006015ADF80A00082058
:101070000021ADF80C00ADF80410ADF80E10694673
:10108000204600F0F1FC211D088840F0C3000880D4
:101090000121204600F01EFD06B010BD2DE9F043F1
:1010A000DFF848928DB0484600F0DCFD904D1020EE
:1010B00000240095CDE90140070104A880264FF4E3
:1010C00080680394A0E8D0016814CDE9084069461F
:1010D00048460A9400F02CFE01220221484600F006
:1010E00066FEDFF81092484600F0BCFDCDE90054E2
:1010F00004A802940394A0E8D0014FF44050CDE935
:101100000840694648460A9400F012FE0122022176
:10111000484600F04CFE0D208DF82C0001248DF87F
:101120002D408DF82E408DF82F400BA800F043FD88
:101130000C208DF82C0002208DF82D008DF82E004B
:101140008DF82F400BA800F036FD0DB0BDE8F08300
:1011500010B5694C86B00021204600F0BBFC684603
:1011600000F0ACFCE014ADF804006946204600F045
:101170007BFCA08840F0C300A0800121204600F045
:10118000A9FC06B010BD2DE9F0415C4D8CB068693A
:1011900040F001006861E86944F207010843E86132
:1011A000A86941F61C010843A8615548016889B245
:1011B0000160016841F43B0141F03B41016051494C
:1011C0000A686FF313020A600A684F4B1A430A60F9
:1011D0000A68C2F313020A600A6842F03B6242F0F6
:1011E00030420A6049494A68C2F313024A604A68B9
:1011F00042F0036242F040524A6001686FF30F010F
:101200000160016843F2333211430160001D01683F
:101210003F4A1140016001683E4A11430160A869DC
:1012200040F00100A8613C4841F210110161012128
:1012300041613A4A4FF4F0511160121D1160384A71
:101240001160384A4FF418411160416841F0007153
:10125000416000F095FB00F0B8FB00F0DBFB264C92
:101260000021204600F036FC684600F027FCE01420
:10127000ADF804006946204600F0F6FBA08840F077
:10128000C300A0800121204600F024FCFFF706FFE8
:10129000154E0021304600F01DFC684600F00EFCA3
:1012A0004FF48270ADF802006815ADF80A0008200E
:1012B0000024ADF80C00ADF80440ADF80E406946CE
:1012C000304600F0D1FB2FE028000020500900201C
:1012D000000C014014080140080C01405800024075
:1012E0000C3800404400024000380040300002400A
:1012F0000C3001401C000240003001400010024050
:1013000000080140040C0140444404000010014066
:10131000F00FF00F0B3003300000014000040140DB
:101320000C04014010080140311D088840F0C30042
:1013300008800121304600F0CDFBDFF800844046F4
:1013400000F090FCFE4E10200096CDE90140802771
:10135000CDE9044703944002CDE908400694079480
:10136000694640460A9400F0E3FC0122022140460F
:1013700000F01DFDDFF8CC83404600F073FCCDE9A2
:101380000064CDE9044703944FF44050CDE9084090
:10139000029406940794694640460A9400F0C8FCFB
:1013A00001220221404600F002FD686840F0E06042
:1013B00068600CB0BDE8F081E3494CF6FE200122E4
:1013C00008804A80E14A4FF0040C13880B81528850
:1013D0004A8100224A821431022308804B80CA824B
:1013E0001831032308804B804A81183101F50B73B3
:1013F0000880A1F802C0C1F828321880A3F802C002
:10140000C3F828120C390880052048800A8101F2AF
:101410009460A0F50C71C1F82C02C0F82C12704732
:101420002DE9F041CA4C0025A57025716573FFF7C1
:10143000C3FF01266672A672E672FF272773A573A3
:10144000FFF7A1FEC3494FF044300860C248066070
:101450000F210160C148F10341614FF4C0410161B6
:10146000BF494FF4F0500860E5622563E771012041
:1014700004F11A010D54401CC0B20328FAD3E582CE
:10148000E573258302F004F9207228B102F0E2FC32
:10149000B4488570BDE8F081BDE8F04102F00CB9B8
:1014A000FFF7BEFFAB494FF044300860DFF8A89269
:1014B0000126C9F80060A9F1040A0621CAF8001043
:1014C000A9480068C9F80010C0B2A14C00F07F0123
:1014D00000252174222903BF6574C009A0746674B5
:1014E00018BFA674FFF7C3F8207C01099F480229A2
:1014F000016821F00F010160016814BF41F004018F
:1015000041F00B0101609A4FDFF854824FF4184A02
:101510004FF4805B4FF0804902F0BAF8217A88429C
:1015200006D002F0B5F82072E6733888208301E017
:10153000E07B48B13888218B401A80B2B0F57A7FC1
:1015400024BFE57302F086FC01F0EFF9002818BF14
:10155000FFF7F3FB607A10BB01F0DBF9F8B16672BC
:10156000A5706078F0B920788249401CC0B2207024
:10157000C1F800A0012808D0022804BF7648C0F8AE
:1015800000B012D0032805D056E073494FF4006034
:1015900008600AE070494FF4004008604FE060784E
:1015A000002849D060780228B6D0607A00281CBF95
:1015B000A07B002802D0FEF714FFA573607A0028F4
:1015C0001CBF2079002810D0257101F08FF9207CF4
:1015D000217B082240EA01215B4800F6FC0381815F
:1015E00001460A20FEF794FEA673D8F8000010F416
:1015F000805F52D0C8F800B03888E18A411A89B2B9
:10160000B1F5FA7F49D3E082207B401CC0B2207341
:10161000022884BFFF202073FEF7EFFD5548C0F875
:1016200000A0207B78B3012804BF4B48C0F800B06D
:1016300033D002282DD030E020780328B5D3464897
:10164000C0F800A002206070A57025710021084636
:1016500003F058FDC2B2E27160780228A5D1464875
:101660000021042391420CBF4670457001F1010C2A
:1016700094450CBF86708570801C891C5B1E13F01E
:10168000FF03EFD18EE7FFE733494FF400600860B6
:1016900003E031494FF400400860B9F8100010F041
:1016A000010F3FF439AF4FF6FE70A9F81000267114
:1016B00032E710B5314C208810F0020F09D100BF7D
:1016C00001F027F9002818BF10BD208810F0020F84
:1016D000F6D0208810F0800F08BF10BD01F019F976
:1016E000002818BF10BD208810F0800FF6D110BD63
:1016F0002DE9F041214C07461D46208816468846B4
:1017000010F0020F07D100BF01F003F978B920886B
:1017100010F0020FF8D0208810F0800F07D000BF23
:1017200001F0F7F818B9208810F0800FF8D11448AC
:10173000816D21F001018165416C23E05800024078
:101740000C38004044000240540000201E000020DD
:1017500000000020000C014014080140001001406E
:1017600014040140700A0020080C014004080140E4
:10177000242C0140100801402B00002008380040B4
:101780000000024021F001014164218811F0010FA5
:101790001CBF21490988C0F86480C7650565866457
:1017A000416C41F001014164816D41F001018165AD
:1017B000BDE8F08119490A8912F0800FFBD10A892E
:1017C00012F0020FFBD08881088910F0010FFBD0C6
:1017D0008889704710B54FF4007000F013FB104972
:1017E000082008600F4801218172C27A012A18BFBF
:1017F00010BD41720021017010BD10B5202000F015
:1018000001FB08480121C172827A012A18BF10BD6C
:1018100041720021017010BD0C38004000300140C1
:1018200014080140000000204D4882B0016841F0DA
:101830000101016041684B4A11404160016821F497
:10184000102121F080710160016821F48021016084
:10185000416821F4FE0141604FF41F0181600022C4
:1018600001920092016841F480310160016801F445
:10187000003100910199491C0191009919B9019910
:10188000B1F5A06FF2D1016811F4003F08BF0092DA
:1018900033D00121009134490A6842F010020A60F5
:1018A0000A6822F003020A600A6842F002020A6033
:1018B0004168416041684160416841F48061416034
:1018C000416821F47C114160416841F4E8114160B4
:1018D000016841F080710160016811F0007FFBD068
:1018E000416821F003014160416841F0020141601B
:1018F000416801F00C010829FAD11C494FF0006041
:10190000086002B0704716494868194A10F00C0385
:10191000184818BF042B01D0082B01D0026015E035
:101920004A684B6802F470124FF0020C13F4803FC7
:101930000CEB924203D04B6813F4003F03D00E4BE4
:101940005A43026002E00A4B5A43026049680B4A5C
:10195000C1F30311515C026822FA01F10160704782
:10196000001002400000FFF80020024008ED00E0F7
:1019700000127A003C00002000093D0040000020D9
:1019800010B584B048F69F40ADF800004FF6FF70E8
:10199000ADF804000020324CADF80600ADF80200AE
:1019A0008DF808006946204600F052FA01212046D1
:1019B00000F01FFE0121204600F021FD012211460A
:1019C000204600F030FD04B010BD00B583B048F6ED
:1019D0009F40ADF800004FF4FA60ADF8040000201D
:1019E000ADF80600ADF802008DF8080069464FF02A
:1019F000804000F02DFA0121880700F0FAFD012156
:101A0000880700F0FCFC01221146900700F00BFD56
:101A100003B000BD10B584B048F69F40ADF800009B
:101A20004FF47A70ADF8040000200E4CADF80600BB
:101A3000ADF802008DF808006946204600F008FA6B
:101A40000021204600F0D5FD0121204600F0D7FC02
:101A500001221146204600F0E6FC04B010BD000053
:101A6000002C01400004004010B402880B88B1F83B
:101A700002C0CC8843EA0C03B1F804C002F441521E
:101A80004CEA040C43EA0C03B1F808C043EA0C0327
:101A9000B1F80AC043EA0C03B1F80CC043EA0C03E6
:101AA000B1F80EC043EA0C031A430280828B22F481
:101AB00000628283098A018210BC70470021018084
:101AC00041808180C180018141818181C181072163
:101AD000018270470029018814BF41F0400121F0C4
:101AE0004001018070470909012303FA01F1002A2E
:101AF000828889B214BF114322EA010181807047B4
:101B0000002A828814BF114322EA010181807047B4
:101B10008181704780897047A1F57E420188FF3A34
:101B200014BF41F4807121F4807101807047002955
:101B3000818814BF41F0040121F0040181807047C5
:101B4000028822F4006202800288114301807047FB
:101B5000B1F5804F01880CBF41F4804121F48041F0
:101B6000018070470246002012890A4218BF0120F6
:101B70007047C9430181704701F00F034FF0010C1A
:101B80000CFA03F3002209090CFA01F1B0F804C0C1
:101B90009BB289B200890CEA010118421CBF0029DE
:101BA00001221046704700002A4940F0FD7040F0C5
:101BB00080600860704730B4C278017801234FF02C
:101BC000E02C02B3234A12680F2502F4E062C2F54A
:101BD000E062120AC2F1040425FA02F2457805FA1D
:101BE00004F485782A4022431B4C12010A550078E0
:101BF00000F01F0103FA01F140090CEB8000C0F86E
:101C0000001130BC704701F01F0003FA00F04909D1
:101C10000CEB8101C1F8800130BC704721F07F01DD
:101C200021F0604108430D49086070470C4A0029C3
:101C3000116814BF084321EA0000106070474FF09C
:101C4000E021042808690CBF40F0040020F00400E3
:101C5000086170470CED00E000E400E008ED00E0F2
:101C600010ED00E0016821F0010101600021016038
:101C700041608160C160674A6749904204BF48681B
:101C800040F00F0022D0654A904204BF486840F0FF
:101C9000F0001BD0624A904204BF486840F4706074
:101CA00014D0604A904204BF486840F470400DD0A0
:101CB0005D4A904204BF486840F4702006D05B4AF9
:101CC000904204BF486840F4700001D148607047FA
:101CD000574A904204D1486840F0706048607047AD
:101CE000544A111F904204BF086840F00F0014D0FE
:101CF000514A904204BF086840F0F0000DD04F4AAE
:101D0000904204BF086840F4706006D04C4A90428C
:101D100004BF086840F4704001D108607047494A28
:101D2000904218BF7047086840F470200860704700
:101D300010B40268D1F820C08B686FF30E1243EA2A
:101D40000C03D1E904C44CEA040C43EA0C03D1F8B7
:101D500018C043EA0C03D1F81CC043EA0C03D1F8C5
:101D600024C043EA0C03D1F828C043EA0C031A4309
:101D70000260CA6842600A6882604968C16010BC3B
:101D800070470021016041608160C1600161416173
:101D90008161C1610162416281627047002901680D
:101DA00014BF41F0010121F0010101607047002AD8
:101DB000026814BF114322EA0101016070474068C4
:101DC00080B27047002110F0805F14BF1E4A124A93
:101DD0001268024218BF01210846704710F0805F68
:101DE00019BF1A4908600C4948607047002110F07B
:101DF000805F14BF144A084A1268024218BF0121CA
:101E00000846704710F0805F19BF1049086002490A
:101E10004860704708000240000002401C00024079
:101E20003000024044000240580002406C00024072
:101E300080000240080402401C04024030040240BA
:101E400044040240580402400004024004040240DA
:101E500010B40288FE4BDFF8FCC3984218BF6045FF
:101E600011D0B0F1804F1CBFA0F18044B4F5806464
:101E700009D0A0F18044B4F500641CBFA0F18044F7
:101E8000B4F5406403D14C8822F070022243A0F1E3
:101E90008044B4F580541CBFA0F18044B4F5A05434
:101EA00003D0CC8822F44072224302808A88828543
:101EB0000A880285984218BF60450DD0A0F1804283
:101EC000B2F5A0321FBFA0F18042B2F5A232A0F15C
:101ED0008042B2F5A43201D1097A018601218182C2
:101EE00010BC704710B4028C22F001020284028CF4
:101EF0008388B0F818C00C882CF0730C44EA0C0CE2
:101F00000C8922F0020222434C882243A0F1804433
:101F1000B4F596341CBFA0F18044B4F59A340DD0CA
:101F2000A0F18044B4F5A0341FBFA0F18044B4F503
:101F3000A234A0F18044B4F5A4340DD14C8922F030
:101F4000080222438C8822F0040222438C8923F465
:101F500040732343CC8923438380A0F818C0C988E9
:101F60008186028410BC704730B4028C22F01002CB
:101F70000284038CB0F804C0028B0D8822F4E6447E
:101F80004FF6FF7202EA05252C430D8923F020034A
:101F900002EA05152B434D8802EA05152B43A0F1F3
:101FA0008045B5F596351CBFA0F18045B5F59A354D
:101FB00017D14D8923F0800302EA05152B438D8844
:101FC00023F0400302EA05152B438D892CF4406C65
:101FD00002EA850545EA0C0CCD8902EA850242EA4F
:101FE0000C0CA0F804C00483C9880187038430BCAA
:101FF000704730B4028C22F480720284028C838891
:10200000B0F81CC00C882CF0730C44EA0C0422F4C9
:10201000007C0D894FF6FF7202EA052545EA0C0C9B
:102020004D8802EA052545EA0C0CA0F18045B5F57E
:1020300096351CBFA0F18045B5F59A3517D14D896D
:102040002CF4006C02EA052545EA0C0C8D882CF472
:10205000806C02EA052545EA0C0C8D8923F4405377
:1020600002EA05152B43CD8902EA0512134383804A
:102070008483C9888187A0F820C030BC704730B401
:10208000028C22F480520284048C8288838B0D8817
:1020900023F4E64C4FF6FF7303EA052545EA0C0CE2
:1020A0000D8924F4005403EA05352C434D8803EAD6
:1020B00005352C43A0F18045B5F596351CBFA0F140
:1020C0008045B5F59A3505D18D8922F4804203EA21
:1020D00085131A438280A0F81CC0C988A0F840105C
:1020E000048430BC7047828B22F440628283828BEE
:1020F0004FF6FF7303EA0121114381837047828BFE
:1021000022F00C028283828B114381837047028B01
:1021100022F440620283028B4FF6FF7303EA01212F
:10212000114301837047028B22F00C020283028B61
:1021300011430183704770B40D884C88B1F804C016
:102140000B894FF6FF7255B3042D44D0082D058C32
:1021500067D025F480550584868B058C26F473465C
:1021600002EA0C2C4CEA060C02EA033343EA0C03A5
:1021700002EA043425F4005C4CEA040C4CF4805C64
:102180008383A0F820C08979838B23F44063838301
:10219000838B02EA01211943818370BC7047058C4F
:1021A00025F001050584068B058C02EA031226F052
:1021B000F30642EA0C02324325F00203234343F0C4
:1021C000010302830384C988028B22F00C0202837C
:1021D000028B114322E0058C25F010050584068B47
:1021E000058C26F4734602EA0333334302EA0C2CCF
:1021F0004CEA030302EA041425F0200C4CEA040C18
:102200004CF0100C0383A0F820C08979038B23F4D1
:1022100040630383038B02EA01211943018370BCED
:10222000704725F480750584868B058C02EA0424AA
:1022300002EA031226F0F30642EA0C02324325F4C6
:102240000073234343F4807382830384C98803E0CB
:10225000002C014000340140828B22F00C0282836A
:10226000828B114398E72DE9F0014E88002301226B
:10227000002E08BF02238D88012D08BF02220F887F
:102280000C89002F078C4FF6FF7C42D027F01007F7
:102290000784B0F81880078C28F473480CEA0434DB
:1022A00044EA08040CEA05252C430CEA061627F03C
:1022B0002005354345F01005048305848C79058B92
:1022C00025F440650583058B0CEA04242C43048324
:1022D0000C89058C25F001050584068B058C0CEA1C
:1022E000041C4CEA020226F0F30625F0020C3243ED
:1022F0004CEA030343F0010302830384C988028B81
:1023000022F00C020283028B11430183BDE8F0012D
:10231000704727F001070784078BB0F820800CEA8C
:1023200004142C4327F0F3073C4328F002053543FF
:1023300045F0010504830584CC88058B25F00C0548
:102340000583058B2C4304830C7A058C25F010053E
:102350000584058B068C25F473450CEA04342C4364
:102360000CEA022222430CEA031326F02004234342
:1023700043F01003028303848979028B22F44062C4
:102380000283028B0CEA012111430183BDE8F001B5
:1023900070470A884B88B1F806C01A438B8843EA15
:1023A0000C031A430B891A434B8989891A43114339
:1023B000A0F8441070474FF6FF7181800021018022
:1023C000C18041800172704700210180418081807D
:1023D000C180018141818181C181704700210180DB
:1023E000418001228280C1800181704700210180EB
:1023F00041808180C18001814181818170470029B4
:10240000018814BF41F0010121F0010101807047F2
:102410000029B0F8441014BF41F40041C1F30E018B
:10242000A0F844107047002A828914BF114322EAA1
:10243000010181817047818270471143A0F84810E3
:102440007047002A828914BF114322EA0101818169
:102450007047018921F0070101817047028922F04C
:102460007002114301817047028922F0700211430A
:102470000181018941F007010181704730B4048C6A
:102480004FF6FF7C60291ED024F001040484058BE4
:10249000048C0CEA031325F0F30543F0010324F048
:1024A000020C2B434CEA020242F001020383028435
:1024B000028922F0700211430181018941F0070174
:1024C000018130BC704724F010040484058B048C17
:1024D0000CEA03330CEA021225F473452B4324F073
:1024E000200C43F480734CEA020242F01002038392
:1024F0000284DDE710B4B0F808C04FF6FF7404EAB8
:1025000003231A430CF0FF0C114341EA0C01018133
:1025100010BC704710B4B0F808C04FF6FF7404EA5E
:1025200003231A430CF0FF0C114341EA0C01018113
:10253000018941F07701018110BC704710B4B0F8F7
:1025400008C04FF6FF7404EA03231A430CF0FF0C93
:10255000114341EA0C010181018941F4804101816B
:1025600010BC7047018582827047028822F0700299
:1025700011430180704730B40589B0F818C0048C4D
:1025800025F0070529432CF0030C2CF4407C40F285
:1025900001154CEA050C4FF6FF7505EA031324F00C
:1025A00022041A4322430181A0F818C0028430BCDF
:1025B0007047028B22F07002114301837047028B37
:1025C0004FF6FF7322F4E04203EA01211143018335
:1025D0007047828B22F07002114381837047828B97
:1025E0004FF6FF7322F4E04203EA01211143818395
:1025F00070470029018814BF41F0800121F080015B
:10260000018070470029818814BF41F0040121F046
:102610000401818070470029818814BF41F00801BE
:1026200021F00801818070470029818814BF41F0A2
:10263000010121F0010181807047028B22F0080224
:10264000114301837047028B4FF6FF7322F400623F
:1026500003EA0121114301837047828B22F00802B3
:10266000114381837047828B4FF6FF7322F400621F
:1026700003EA0121114381837047028B22F0040297
:10268000114301837047028B4FF6FF7322F480627F
:1026900003EA0121114301837047828B22F0040277
:1026A000114381837047828B4FF6FF7322F480625F
:1026B00003EA0121114381837047028B22F08002DB
:1026C000114301837047028B4FF6FF73C2F30E0272
:1026D00003EA0121114301837047828B22F08002BB
:1026E000114381837047828B4FF6FF73C2F30E0252
:1026F00003EA0121114381837047028C22F0020218
:10270000114301847047028C22F0080211430184B6
:102710007047028C4FF6FF7322F0200203EA01118A
:10272000114301847047028C4FF6FF7322F0800240
:1027300003EA0111114301847047028C4FF6FF73C5
:1027400022F4007203EA0121114301847047028CD4
:102750004FF6FF7322F4006203EA01211143018462
:102760007047028C4FF6FF7322F4005203EA0131E6
:102770001143018470470123B0F820C08B402CEA3C
:1027800003030384038C02FA01F1194301847047A7
:102790000423B0F820C08B402CEA03030384038C8D
:1027A00002FA01F119430184704710B44FF0010C93
:1027B000048C00F118030CFA01FC24EA0C0CA0F8BC
:1027C00020C0002918BF082910D0081FC0F34E00F0
:1027D0001844016821F4E041016001684FF6FF737D
:1027E00003EA02221143016010BC704703EB510061
:1027F000016821F07001016001681143016010BCA3
:1028000070470029018814BF41F0020121F0020144
:10281000018070470029018814BF41F0040121F0B4
:102820000401018070470029818814BF41F08001B4
:1028300021F0800181807047028822F00802028026
:102840000288114301807047828822F070028280E2
:102850008288114381807047028922F00702028139
:102860000289114301817047028922F080020281AE
:1028700002891143018170478184704781857047C7
:10288000818670470187704781877047A0F84010A4
:102890007047028822F4407202800288114301804E
:1028A0007047808E7047008F7047808F7047B0F8F8
:1028B00040007047808C7047008D704702460020B2
:1028C000128A0A4218BF01207047C943018270472B
:1028D000038A002280890B4200EA01001CBF002805
:1028E000012210467047C9430182704710B5A74CBA
:1028F00000212046FFF783FDA54900200880A54957
:102900004FF6FE7008802046BDE810400121FFF719
:1029100076BDA048018811F0010F04BF0020704768
:102920004FF6FE710180012070479B48006810F44B
:10293000007018BF0120704710B50021934C20464D
:10294000FFF75DFD92490020088092494FF6FE7026
:10295000088001212046FFF752FD90494FF0443096
:1029600008608F49012008608E4908708A494FF439
:10297000C06008608C480068C0B210BD8B4A00205F
:102980000221116000BF864A1160834A814B4FF0DB
:10299000000C116811F4806F03D083480068C0B246
:1029A00009E0198811F0010FF3D04FF6FE7119807C
:1029B0007C4981F800C04FF48061116070477B4A08
:1029C00001211160754A4FF0333111607849086078
:1029D00078494FF40040086100BF48616E496D4A74
:1029E0000023086810F4806F08D1108810F0010FE0
:1029F000F7D04FF6FE7010806A4803704FF4806085
:102A000008607047694A01211160644B4FF033310F
:102A10001960674908600220106000BF60490860C3
:102A20005D495C4A0023086810F4806F08D1108863
:102A300010F0010FF7D04FF6FE7010805948037068
:102A40004FF48060086070472DE9F05F554BDFF868
:102A50005CC1DFF85C8193F800E0504D4E494D4A6F
:102A6000012400264FF033370CF1040B4FF6FE79AA
:102A70004FF4806ABEF1000F17D0CCF800402F60F1
:102A8000C8F800000220CCF8000000BFCBF800001E
:102A9000086810F4806F06D1108810F0010FF7D08D
:102AA000A2F800901E70C1F800A043480078E8B971
:102AB0001878D8B10020CCF800402F60C8F800008A
:102AC000DFF8F0C04FF40040CCF8100000BFCCF8A5
:102AD0001400086810F4806F06D1108810F0010F00
:102AE000F7D0A2F800901E70C1F800A0FDF7BFFD5E
:102AF0004FF044302860CBF80040BDE8F09F2C49EF
:102B000008602A490420086000BF2549086022495E
:102B1000204A0023086810F4006F08D1108810F0D4
:102B2000010FF7D04FF6FE7010801E4803704FF46F
:102B300000600860704700201C4B30B4042201463E
:102B40001A6000BF164B1A60DFF870C0124D114CAE
:102B50009B14491C89B2032988BFCCF800302A682D
:102B600012F4006F03D010480068C0B209E0228858
:102B700012F0010FEDD04FF6FE712180094A0021BD
:102B800011704FF40061296030BC704700040040B0
:102B9000240400401004004014040140000C0140D3
:102BA0001408014006000020080C014010080140F4
:102BB0000C0C01400010014011000020100C0140DD
:102BC0002DE9F34F002900F0D481DFF8B8B3EB4FC3
:102BD000DFF8AC93EC4ADFF8B4C34FF6FE76042579
:102BE0000BF104044FF000081029C0F07181038834
:102BF0004FEA132AC9F800A0CBF8005000BF2560A7
:102C000003F0FF0A138813F0010F40F09D81DCF8F8
:102C1000003013F4006FF5D04FF40063CCF80030AF
:102C2000C9F800A0CBF8005000BF256000F1020AEF
:102C3000108810F0010F40F08781DCF8000010F4DC
:102C4000006FF5D0CCF80030BAF800004FEA102E33
:102C5000C9F800E0CBF8005000BF256000F0FF0E7F
:102C6000108810F0010F40F06F81DCF8000010F4C4
:102C7000006FF5D0CCF80030C9F800E0CBF8005078
:102C800000BF25600AF1020A108810F0010F40F021
:102C90005B81DCF8000010F4006FF5D04FF40060A9
:102CA000CCF80000BAF80000030AC9F800305B460F
:102CB000CBF8005000BF256000F0FF0E108810F028
:102CC000010F40F04181DCF8000010F4006FF5D0F6
:102CD0004FF40060CCF80000C9F800E028461D6001
:102CE00000BF20600AF1020A108810F0010F40F0C6
:102CF0002B81DCF8000010F4006FF5D04FF4006079
:102D0000CCF80000BAF800004FEA102EC9F800E035
:102D10001D6000BF256000F0FF0E108810F0010F4D
:102D200040F01281DCF8000010F4006FF5D04FF491
:102D30000060CCF80000C9F800E01D6000BF25600D
:102D40000AF1020E108810F0010F40F0FD80DCF84F
:102D5000000010F4006FF5D04FF40060CCF80000D4
:102D6000BEF800004FEA102AC9F800A01D6000BF9D
:102D7000256000F0FF0A108810F0010F7ED1DCF80A
:102D8000000010F4006FF6D04FF40060CCF80000A3
:102D9000C9F800A01D6000BF25600EF1020E00BF43
:102DA000B2F800A01AF0010F68D1DCF800A01AF404
:102DB000006FF5D04FF40060CCF80000BEF80000C2
:102DC0004FEA102AC9F800A01D6000BF256000F07E
:102DD000FF0A108810F0010F50D1DCF8000010F449
:102DE000006FF6D04FF40060CCF80000C9F800A0E6
:102DF0001D6000BF25600EF1020E00BFB2F800A0FA
:102E00001AF0010F3AD1DCF800A01AF4006FF5D0E7
:102E10004FF40060CCF80000BEF800004FEA102A22
:102E2000C9F800A01D6000BF256000F0FF0A1088EF
:102E300010F0010F22D1DCF8000010F4006FF6D082
:102E40004FF40060CCF80000C9F800A01D6000BF7E
:102E500025600EF1020ACDF800A000BFB2F800A074
:102E60001AF0010F70D1DCF800A01AF4006FF5D051
:102E70008646CCF800000098008800E064E04FEA45
:102E8000102AC9F800A01D6000BF256000F0FF0AED
:102E9000108810F0010F57D1DCF8000010F4006F1B
:102EA000F6D0CCF800E0C9F800A01D6000BF256096
:102EB0000098801C138813F0010F45D1DCF8003016
:102EC00013F4006FF6D0CCF800E0103989B24DE071
:102ED000038802292CD34FEA132AC9F800A0CBF8A3
:102EE000005000BF256003F0FF0A138813F0010FA4
:102EF0002AD1DCF8003013F4006FF6D04FF40063F1
:102F0000CCF80030C9F800A0CBF8005000BF256015
:102F100010F10200B2F800A01AF0010F14D1DCF891
:102F200000A01AF4006FF5D0CCF80030891E1CE028
:102F3000801C1B0AC9F80030CBF8005000BF256088
:102F4000138813F0010F06D0168087F8008002B0B6
:102F50000020BDE8F08FDCF8003013F4006FEFD0F4
:102F60004FF40063CCF80030491E89B200297FF489
:102F70003BAE02B00120BDE8F08F0000060000204B
:102F80000C0C0140100801401004004014040140E2
:102F9000FE490020087348738873C873FFF754BD57
:102FA000FA480021017341738173C17381707047C6
:102FB0002DE9F04FF6A28FB0D2E90012CDE904124C
:102FC000F5A3D3E900129B68CDE90612F5A2089398
:102FD000D2E9001392680B92CDE90913F4490978FC
:102FE000002914BF06A909A9029100280CBF0025D9
:102FF0007F25E6488078012806D1E449002008733F
:1030000048738873C8738870EA48417811F0010FDB
:1030100009D0DE490220052208734A7324228A73EC
:103020000022CA7362E0E449067901200860E3499E
:103030004FF0333008600024002E51D9DFF880A310
:10304000DFF880B3DFF88083E04F0DF110092846E8
:103050003AE000BFA4F10801232994BF20200020FA
:10306000002CF4D0012C08BF80200BD0022C08BF0C
:10307000022007D0032C08BF022025D0042C08BF53
:1030800027200FD007299CBF09EB040010F8080C7B
:10309000A4F11001092903D80298204410F8100C5B
:1030A0001B2C28D0A4F12001032904D8DBF8000050
:1030B000204410F8200CA4F12401072904D8D8F8E2
:1030C0000000204410F8240CFFF719FD387801287F
:1030D0001CBF0FB0BDE8F08F601C84B2B442B9D3FE
:1030E000AA490020087348738873C873FFF7ACFCC3
:1030F0000FB0BDE8F08F9AF800003030C0B2E3E7BF
:10310000AC484178017081784170C1788170017953
:10311000C170417901718179417170472DE9F041A8
:103120000020A54A01210746064605461160A34A2C
:103130004FF033311160954CA1686278491E2AB175
:10314000080EC1F30746C1F30727CDB2FFF7D7FC3E
:103150003046FFF7D4FC3846FFF7D1FC2846FFF78E
:10316000CEFC0020FFF7CBFC0020FFF7C8FC0220BC
:10317000FFF7C5FC0020FFF7C2FC0020207360733E
:10318000A073E073BDE8F041FFF75EBC7F4900200B
:10319000087348738873C873FFF756BC2DE9F0476E
:1031A0007A4C0027A078012804D127736773A7738E
:1031B000E773A7707F4880490679012008607F493E
:1031C0004FF0333008600025002E84BFA6F10708B9
:1031D000DFF8F89123D9072D08BF08F0FF0012D0BF
:1031E00008DC002D08BFF0200DD0022D08BF607B49
:1031F00009D007E00C2D08BFA07B04D00D2D08BF1F
:10320000E07B00D00020FFF77AFC99F8000001284D
:1032100018BFBDE8F087681CC5B2B542DBD3277381
:103220006773A7733846E773BDE8F047FFF70CBC38
:10323000564900204A78012A08D002220A734A73AC
:103240003A238B73C8731046FFF7FEBB08734873AD
:103250008873C873FFF7F8BB2DE9F0414B4C00258C
:10326000022394F801C0162819D007DCB8B103284E
:1032700022D0042823D0122859D005E0172818BFDF
:103280001D280CD0252823D023730520607320200F
:10329000A073E573BDE8F0411846FFF7D5BBBCF15C
:1032A000010F0CD0237363733A20A073E573BDE85C
:1032B000F0411846FFF7C8BBBDE8F0416EE7257343
:1032C0006573A5732846E573BDE8F041FFF7BCBB05
:1032D0000021394A012088460F460E461060374AC1
:1032E0004FF033301060A068401EBCF1000F05D0D5
:1032F000010EC0F30747C0F30728C6B20846FFF720
:10330000FEFB3846FFF7FBFB4046FFF7F8FB304675
:10331000FFF7F5FB0020FFF7F2FB0020FFF7EFFBC4
:103320000220FFF7ECFB0020FFF7E9FBC7E70129CC
:103330000CD120484178017081784170C17881704A
:103340000179C1704179017181794171BDE8F04124
:1033500010462DE62DE9F047054616484FF00008C7
:103360004646C27803794146C4460A2D18BF082D47
:1033700007D144788678E40646EAD44442EA042831
:103380001E462A2D1CBF282D2F2D21E0700A00205B
:103390004A4F4F4B49452020436F736D6F734578FB
:1033A00020200000436F736D6F536F6C6F2000001F
:1033B0000D0000207009002010080140000C0140A1
:1033C0000700002034000020380000200600002004
:1033D0000FD143EA0222437943EA0222837943EA86
:1033E0000228027A4FF6FF73407A03EA022240EA8B
:1033F0000206A24C02277EB108EB0600421EA0681E
:10340000404588BF904207D827730521384661732D
:10341000BDE8F047FFF718BB082D18BF282D06D1CF
:103420003146404601F0A4FC01464FF0010C4FF03C
:1034300000090A2D18BF2A2D1BD0BCF1000F07D0A0
:10344000E9B127730321384684F80D10FFF7FCFA21
:103450002F2D18BFBDE8F0873146404601F051FCE2
:10346000B8B127730E2138466173BDE8F047FFF706
:10347000EBBA3146404601F05EFD0146E0E784F8D4
:103480000C9084F80D9084F80E90484684F80F90C4
:10349000DCE784F80C9084F80D9084F80E90484690
:1034A00084F80F90BDE8F047FFF7CEBA73490022C9
:1034B00002208A70087306234B7328238B73CA7308
:1034C000FFF7C2BA6D490220052208734A7325220C
:1034D0008A730022CA73FFF7B7BA10B56849694802
:1034E000CA7803789A4212D1097907290FD8017056
:1034F000002001F012FEFDF79BF8604900200873E0
:1035000048738873C873BDE81040FFF79DBABDE8E3
:1035100010400220FFF798BA2DE9F0410F4604460B
:10352000FFF7E4F956480026544D4178432904BF7B
:103530008278532A0FD0002F1ABF807842094A0997
:103540000220082C18BF282C21D0042C1CBF002CD2
:10355000252C1CD026E04B4AC1781378994211D112
:10356000017907290ED81170002001F0D6FDFDF772
:103570005FF82E736E73AE733046EE73BDE8F041A4
:10358000FFF762BABDE8F0410220FFF75DBA4AB129
:103590002873052169732521A973EE73BDE8F041F5
:1035A000FFF752BA697861B1A97801291ED00A2CB7
:1035B00018BF082C29D02A2C1CBF282C2F2C24D033
:1035C00028E0082C18BF282C07D00A2C18BF2A2C5A
:1035D00003D0042C18BF252CE6D1287368733A2138
:1035E000A973EE73BDE8F041FFF72EBA122C18BF95
:1035F000032C0FD0AE702873062169732821A9739C
:10360000EE73BDE8F041FFF71FBA39462046BDE82A
:10361000F0419FE639462046BDE8F0411CE6002017
:10362000194B0146C0EB00121A44401C1160516056
:1036300091609181C0B291731028F3D31348017047
:1036400070471249104A0878C0EB00131A440C4B1B
:10365000401C00F00F00D3F800C0C2F800C0D3F83F
:1036600004C0C2F804C0D3F808C0C2F808C09B89DF
:103670009381024B1B7B937308707047700A002084
:1036800070090020070000207E0900205000002063
:10369000F948806810F4804F0CBF0120002070476B
:1036A000F64A1188012821F038010CBF41F00800CA
:1036B00041F0300010807047F148002141700170E6
:1036C0008170416081607047EE490A8812F0800F76
:1036D000FBD10A8812F0020FFBD0EB4A1080088859
:1036E00010F0010FFBD0108870472DE9F041E54C38
:1036F000FF21208810F0800FFBD1208810F0020FEE
:10370000FBD0E14D2980208810F0010FFBD02888E4
:10371000FF21208810F0800FFBD1208810F0020FCD
:10372000FBD02980208810F0010FFBD02888FDF7FE
:10373000C0FFD14F4FF400567E610021FF22208848
:1037400010F0800FFBD1208810F0020FFBD02A80F0
:10375000208810F0010FFBD02888481C81B2B1F5F9
:10376000806FEBD3FDF7A5FF3E61FF21208810F0AD
:10377000800FFBD1208810F0020FFBD02980208819
:1037800010F0010FFBD02888FF21208810F0800F57
:10379000FBD1208810F0020FFBD02980208810F088
:1037A000010FFBD02888BDE8F041FDF782BF70B55E
:1037B000B44A4FF6FF744FF0FF0C138813F0800FDC
:1037C000FBD1138813F0020FFBD0AF4BA3F800C05E
:1037D000B2F800C01CF0010FFAD0B3F800C040F0FE
:1037E000400500BFB2F800C01CF0800FFAD100BF46
:1037F000B2F800C01CF0020FFAD01D80B2F800C071
:103800001CF0010FFAD0B3F800C00D0EB2F800C0E2
:103810001CF0800FFAD100BFB2F800C01CF0020FFC
:10382000FAD01D80B2F800C01CF0010FFAD0B3F836
:1038300000C00D0CB2F800C01CF0800FFAD100BF20
:10384000B2F800C01CF0020FFAD01D80B2F800C020
:103850001CF0010FFAD0B3F800C0C1F30F2500BF70
:10386000B2F800C01CF0800FFAD100BFB2F800C05F
:103870001CF0020FFAD01D80B2F800C01CF0010F3E
:10388000FAD0B3F800C01FFA81FC118811F0800F44
:10389000FBD1118811F0020FFBD0A3F800C01188F2
:1038A00011F0010FFBD0198808280CBF8621952143
:1038B00014D0108810F0800FFBD1108810F0020F88
:1038C000FBD01980108810F0010FFBD01888FF2062
:1038D000FFF7FAFEC5B2FF2D16D10DE0108810F0EB
:1038E000800FFBD1108810F0020FFBD019801088D8
:1038F00010F0010FFBD0E9E734B1FFF70AF8002818
:1039000004BF601E84B2E2D0284670BD2DE9F041AC
:10391000594E4FF400550746756100210920FFF705
:1039200046FF594C231F00281ABF3561FF224FF074
:10393000000C0DD0198811F0800FFBD1198811F0FF
:10394000020FFBD02280198811F0010FFBD01BE081
:10395000FF20FFF7B9FEC0B2FE2818D00CF101011C
:1039600001F0FF0CBCF1100FF2D33561FF22198872
:1039700011F0800FFBD1198811F0020FFBD02280CB
:10398000198811F0010FFBD02188BDE8F0814FF0BC
:10399000000CFF20FFF798FE07F80C000CF1010067
:1039A00000F0FF0CBCF1100FF3D33561FF21188834
:1039B00010F0800FFBD1188810F0020FFBD021808F
:1039C000188810F0010FFBD020880020BDE8F0819E
:1039D00000B585B0FEF78AFF6846FFF797FF00281D
:1039E0001EBF4FF0FF3005B000BD9DF805009DF8EB
:1039F000083000F00F019DF806008007020E9DF8C8
:103A0000070042EA9002800040EA9310C0B240EA08
:103A100002109DF809209DF80A309207520F42EAE1
:103A2000D312401C921C904009291CBF09398840C0
:103A300005B000BD00B585B0FEF758FF6846FFF73A
:103A400065FF28B99DF8050000F00F00092803D094
:103A500005B04FF0FF3000BD9DF807009DF808103D
:103A6000000440EA01209DF8091005B008438002D7
:103A700000F5806000BD00000010014000380040EB
:103A8000700A0020083800400C3800402DE9F04151
:103A90000446FEF72BFFDFF8E8834FF40057C8F821
:103AA0001470F8480078032818BF640221461120DA
:103AB000FFF77DFEF44E341F002814BFFF22F34DA4
:103AC00011D0218811F0800FFBD1218811F0020F55
:103AD000FBD03280218811F0010FFBD03188C8F86B
:103AE0001070BDE8F081FF20FFF7EEFDC0B2FE28A8
:103AF00006D0FEF70EFF00283FD16D1EF3D13CE04B
:103B0000002D18BF002338D0FF20FFF7DDFD5B1C20
:103B1000B3F5007FF8D3FF21208810F0800FFBD190
:103B2000208810F0020FFBD03180208810F0010FA8
:103B3000FBD03088FF21208810F0800FFBD1208837
:103B400010F0020FFBD03180208810F0010FFBD065
:103B50003088FF21208810F0800FFBD1208810F0E2
:103B6000020FFBD03180208810F0010FFBD030888D
:103B7000C8F810700020BDE8F081FF21208810F007
:103B8000800FFBD1208810F0020FFBD031802088FD
:103B900010F0010FFBD03088C8F81070FF20BDE88E
:103BA000F0812DE9F041B64E4FF400557561B84CE7
:103BB000FF23228812F0800FFBD1228812F0020F1F
:103BC000FBD0B14F3B80228812F0010FFBD03A8826
:103BD000FFF7EDFDFF22218811F0800FFBD1218836
:103BE00011F0020FFBD03A80218811F0010FFBD0B9
:103BF00039883561BDE8F0812DE9F74FDFF8809213
:103C00004FF4005892468B464FF6FF76C9F8148061
:103C10009F4C251D59460098FFF7C3FF0746FF201C
:103C2000218811F0800FFBD1218811F0020FFBD009
:103C30002880208810F0010FFBD0288816B1FEF7ED
:103C400068FEC8B10021FF22208810F0800FFBD150
:103C5000208810F0020FFBD02A80208810F0010F7E
:103C6000FBD02888481C81B20A29ECD3C9F81080FF
:103C700003B0FF20BDE8F08F701E86B25745C9D152
:103C80000021FF22208810F0800FFBD1208810F047
:103C9000020FFBD02A80208810F0010FFBD028886B
:103CA000481C81B20A29ECD3C9F8108003B0384609
:103CB000BDE8F08F2DE9F041714E4FF4005590466C
:103CC0007561734CFF23228812F0800FFBD122888C
:103CD00012F0020FFBD06C4F3B80228812F0010FD4
:103CE000FBD03A88FFF763FD844688F80000012383
:103CF000FF20FFF7E9FC08F80300581CC3B2052BAE
:103D0000F6D3FF21208810F0800FFBD1208810F01F
:103D1000020FFBD03980208810F0010FFBD03888CB
:103D200035616046BDE8F08170B582B0FEF7DEFD1A
:103D30005849088820F0380040F0300008804814C6
:103D40004F4908615248002210F104034FF0FF0C64
:103D5000018811F0800FFBD1018811F0020FFBD018
:103D6000A3F800C0018811F0010FFBD01988511C85
:103D7000CAB20A2AEAD300210846FFF712FF012837
:103D80005AD100246A464FF4D5710820FFF792FFFC
:103D9000012804BF9DF80300012823D19DF80400E9
:103DA000AA2808BF4FF6FF751CD1681E85B2FEF722
:103DB000B0FDB8B900213720FFF7F3FE012811D17B
:103DC00081072920FFF7EDFE28B1FEF7A2FD48B9D3
:103DD000002DEAD106E02DB16A4600213A20FFF716
:103DE00069FF48B14FF6FF7600213720FFF7D9FE73
:103DF0000546012817D109E09DF8010010F0400F99
:103E00001EBF032002B070BD012418E0002129204C
:103E1000FFF7C7FE0500F7D0FEF77BFD18B9701E4F
:103E20000604360CE0D10CB135B944B90022114674
:103E30000120FFF7E1FE10B102B0002070BD4FF489
:103E400000711020FFF7ADFE012C0CBF02200120F5
:103E500002B070BD2DE9F04FDFF8248085B0D8F8AE
:103E600008004FF0000110F4804F064814D0417054
:103E7000017081704160816005B0BDE8F08F000085
:103E800000100140700A00200C380040FFFF0F00B6
:103E90000838004000380040FD4B198821F03801F7
:103EA00041F03001198041780129E5D0F94D4FF0FA
:103EB000000B4FF400592C1FD8F8080010F4804F65
:103EC000DAD1FEF713FDF249088820F0380040F0FF
:103ED00030000880C8F810900020FF21228812F0DE
:103EE000800FFBD1228812F0020FFBD0298021889D
:103EF00011F0010FFBD02988401CC0B20A28ECD376
:103F000000210846FFF74DFE012840F09F814FF049
:103F1000000A6A464FF4D5710820FFF7CBFE01284E
:103F200004BF9DF80300012823D19DF80400AA28AE
:103F300008BF4FF6FF761CD1701E86B2FEF7E9FC73
:103F4000B8B900213720FFF72CFE012811D18107D5
:103F50002920FFF726FE28B1FEF7DBFC48B9002E2A
:103F6000EAD106E02EB16A4600213A20FFF7A2FE10
:103F700048B14FF6FF7700213720FFF712FE0646C3
:103F800001283AD12CE09DF8010010F0400F18BF35
:103F9000032622D00027FEF7A9FCC8F81490394662
:103FA0001120FFF704FC002814BFFF22BA4F40D0B5
:103FB000218811F0800FFBD1218811F0020FFBD076
:103FC00029462A80228812F0010FFBD00988C8F800
:103FD0001090002877D000F039B94FF0010A1DE0A9
:103FE00000212920FFF7DDFD0600F6D0FEF791FC49
:103FF00018B9781E07043F0CBDD1BAF1000F05D0E7
:10400000002E40F02381BAF1000F07D100221146A3
:104010000120FFF7F1FD002840F018814FF40071F6
:104020001020FFF7BEFDBAF1010F0CBF02260126DA
:10403000B0E7FF20FFF748FBC0B2FE2805D0FEF72F
:1040400068FCE0BB7F1EF4D146E0002F18BF0023C0
:1040500042D0FF20FFF738FB5B1CB3F5007FF8D39D
:10406000FF21208810F0800FFBD1208810F0020F74
:10407000FBD028462980218811F0010FFBD0018850
:10408000FF21228812F0800FFBD1228812F0020F4C
:10409000FBD00180218811F0010FFBD00188FF21A6
:1040A000228812F0800FFBD1228812F0020FFBD081
:1040B0000180218811F0010FFBD0008801E00BE0A6
:1040C00001E0C8F81090032E19D0FEF70FFC6846E7
:1040D000FFF71CFC70B3B9E0FF21208810F0800FBF
:1040E000FBD1208810F0020FFBD02A4629802088BF
:1040F00010F0010FFBD01088C8F81090A6E0FEF772
:10410000F5FB6846FFF702FC00287DD19DF805000D
:1041100000F00F00092877D19DF807009DF80810DE
:10412000000440EA01209DF809100843800200F5D0
:10413000806023E09DF805009DF8083000F00F0135
:104140009DF806008007020E9DF8070042EA9002E3
:10415000800040EA9310C0B240EA02129DF80900C4
:104160009DF80A308007400F40EAD310521C801C93
:1041700002FA00F009291CBF09398840411C65D0AA
:1041800046490E708860400248600120487088707F
:10419000FF21208810F0800FFBD1208810F0020F43
:1041A000FBD02980208810F0010FFBD02888FF2148
:1041B000208810F0800FFBD1208810F0020FFBD078
:1041C0002980208810F0010FFBD02888FDF771FAB4
:1041D000C8F814900021FF22208810F0800FFBD136
:1041E000208810F0020FFBD02A80208810F0010FE9
:1041F000FBD02888481C81B2B1F5806FEBD3FDF766
:1042000058FAC8F8109000E020E0FF20218811F053
:10421000800FFBD1218811F0020FFBD0288020886D
:1042200010F0010FFBD02888FF21208810F0800FAC
:10423000FBD1208810F0020FFBD02980208810F0DD
:10424000010FFBD02888FDF734FA07E00BF10100DD
:104250001FFA80FBBBF1050FFFF42EAE0C4801885E
:1042600021F0380141F00801018005E62DE9F04117
:104270001E4614460F46804639464046FFF791FCDD
:10428000054614B1FEF745FB50B1FF20BDE8F081B3
:10429000003800400C380040FFFF0F00700A00207B
:1042A000601EC4B2B542E7D12846EFE7FE48018858
:1042B00011F0010FFBD0FD4800887047FA490A88C9
:1042C00012F0800FFBD10A8812F0020FFBD0F749E1
:1042D000088070472DE9F0470446FEF707FBF44FCE
:1042E0004FF400567E61F3480078032818BF64023B
:1042F00021461120FFF75BFAEB4C251D002814BF67
:10430000FF22DFF8B48310D0218811F0800FFBD199
:10431000218811F0020FFBD02A80218811F0010FB3
:10432000FBD029883E61BDE8F087FF20FFF7CCF97C
:10433000C0B2FE2807D0FEF7ECFA00284ED1B8F143
:104340000108F2D14AE0B8F1000F47D0DB49012063
:104350000860DB494FF033300860FF21208810F0FF
:10436000800FFBD1208810F0020FFBD02980DFF8EE
:1043700054834FF00009208810F0010FFBD02888EB
:10438000FF22C0B2218811F0800FFBD1218811F0EB
:10439000020FFBD02A80FEF7B2FB98F8000001283C
:1043A0002FD0208810F0010FFBD02888B9F5007FAE
:1043B00031D2FF21208810F0800FFBD1208810F02F
:1043C000020FFBD02980208810F0010FFBD0288835
:1043D00009F10109B9F5007FEBD31CE0FF2120882A
:1043E00010F0800FFBD1208810F0020FFBD0298045
:1043F000208810F0010FFBD028883E61FF20BDE827
:10440000F08709F10109B9F5007FB4D3208810F0D5
:10441000010FFBD02888FF20218811F0800FFBD1ED
:10442000218811F0020FFBD02880208810F0010FA6
:10443000FBD02888FF21208810F0800FFBD1208836
:1044400010F0020FFBD02980208810F0010FFBD064
:104450002888FF21208810F0800FFBD1208810F0E1
:10446000020FFBD02980208810F0010FFBD0288894
:104470003E610021FF22208810F0800FFBD12088B0
:1044800010F0020FFBD02A80208810F0010FFBD023
:104490002888491C0329EDD398F80000012814BF8F
:1044A000FF200020BDE8F0872DE9F05F8846044634
:1044B000FEF71CFA7E484FF4005BC0F814B07D484C
:1044C0000078032818BF640221461220FFF76FF915
:1044D000764E341F002818BFFF2212D0218811F019
:1044E000800FFBD1218811F0020FFBD03280218890
:1044F00011F0010FFBD031886D49C1F810B0BDE853
:10450000F09F6E49012008606D494FF0333008601C
:104510004FF000094F46B8F1000F88BFDFF8A4A1A3
:104520007AD9FF20FFF7D0F8FE2808BFFF20F8D186
:10453000218811F0800FFBD1218811F0020FFBD0F0
:1045400030800025208810F0010FFBD03088FF223A
:10455000C0B2218811F0800FFBD1218811F0020F29
:10456000FBD03280FEF7CBFA9AF8000001281ED06B
:10457000208810F0010FFBD03088B5F5007F13D2F2
:10458000FF21208810F0800FFBD1208810F0020F4F
:10459000FBD03180208810F0010FFBD03088681CE0
:1045A00085B2B5F5007FEBD34FF0010909E0681C37
:1045B00085B2B5F5007FC5D3208810F0010FFBD080
:1045C0003088A8EB0700012826D0B9F1000F08BFFA
:1045D000FF2021D1218811F0800FFBD1218811F01B
:1045E000020FFBD031463080208810F0010FFBD045
:1045F0000888FF20228812F0800FFBD1228812F059
:10460000020FFBD00880208810F0010FFBD0088833
:10461000781C87B2474584D300210C20FFF7C7F8E8
:10462000FF21208810F0800FFBD1208810F0020FAE
:10463000FBD03180208810F0010FFBD030881C485F
:10464000C0F810B019F1000018BFFF20BDE8F09FBE
:104650002DE9F35F0446FEF749F915494FF4005080
:104660004861DFF850B027469BF80000032818BFC8
:104670007C0221461920FFF79AF80C4E0100A6F1A2
:10468000040518BFFF2227D0288810F0800FFBD127
:10469000288810F0020FFBD03280288810F0010F1C
:1046A000FBD0308810E00000083800400C38004093
:1046B00000100140700A0020FFFF0F0010080140A9
:1046C000000C014006000020FF4A4FF4005010612A
:1046D00002B00846BDE8F09FFC494FF04430086046
:1046E000FB490120086001984FF00008C1460028EE
:1046F00088BFDFF8E0A379D9DBF80800874202D34E
:104700004FF0010872E0FF20FEF7DEFFFF28FAD12C
:10471000FC20298811F0800FFBD1298811F0020FAD
:10472000FBD03080288810F0010FFBD030880024A7
:10473000FEF701FA9AF80010012908BF014619D0C6
:10474000B4F5007F13D2FF21288810F0800FFBD131
:10475000288810F0020FFBD03180288810F0010F5C
:10476000FBD03088601C84B2B4F5007FEBD34FF0EF
:10477000010812E0288810F0800FFBD1288810F083
:10478000020FFBD03180288810F0010FFBD0308859
:10479000601C84B2B4F5007FCAD3FF21288810F0D2
:1047A000800FFBD1288810F0020FFBD031802888C1
:1047B00010F0010FFBD03088FF21288810F0800F07
:1047C000FBD1288810F0020FFBD03180288810F030
:1047D000010FFBD030887F1CB8F1000F06D109F122
:1047E00001001FFA80F90198814585D3FF20FEF76B
:1047F0006BFFFF28FAD1FD20298811F0800FFBD133
:10480000298811F0020FFBD03080288810F0010FAA
:10481000FBD03088FF20FEF757FFFF28FAD19BF826
:104820000000012808D100210C20FEF7C0FFFF2066
:10483000FEF74AFFFF28FAD1FF20298811F0800FE8
:10484000FBD1298811F0020FFBD03080288810F0AE
:10485000010FFBD030889C494FF40050086118F1DB
:10486000000018BFFF2002B0BDE8F09F2DE9F0471F
:104870000446FEF73BF8DFF850824FF40057C8F8C3
:10488000147095480078032818BF64022146182048
:10489000FEF78DFF914E341F002814BFFF22FF2129
:1048A0000DD0218811F0800FFBD1218811F0020F6B
:1048B000FBD03280218811F0010FFBD08BE02088E3
:1048C00010F0800FFBD1208810F0020FFBD0318058
:1048D000208810F0010FFBD03088FE21208810F0D6
:1048E000800FFBD1208810F0020FFBD03180208890
:1048F00010F0010FFBD0308874494FF0443008604D
:104900007349012008600025DFF8C891FEF713F90C
:1049100099F80010012916D0B5F5007F25D20021A5
:10492000208810F0800FFBD1208810F0020FFBD000
:104930003180208810F0010FFBD030886D1CB5F558
:10494000007FECD311E0218811F0800FFBD121888A
:1049500011F0020FFBD03080208810F0010FFBD047
:1049600030886D1CB5F5007FD0D3FF21208810F072
:10497000800FFBD1208810F0020FFBD031802088FF
:1049800010F0010FFBD03088FF20218811F0800F3C
:10499000FBD1218811F0020FFBD03080208810F06D
:1049A000010FFBD03088FF20FEF78EFEC0B200F072
:1049B0001F0105290CBF4A4DFF2211D0218811F09B
:1049C000800FFBD1218811F0020FFBD032802188AB
:1049D00011F0010FFBD03188C8F81070BDE8F087E6
:1049E000FF20FEF771FE10F0FF0F06D1FDF791FFDB
:1049F00008B1002501E06D1EF2D1FF21208810F0E2
:104A0000800FFBD1208810F0020FFBD0318020886E
:104A100010F0010FFBD03088C8F81070002D0CBFCB
:104A2000FF200020BDE8F0872DE9F041FDF75EFF93
:104A3000DFF8A48098F80000012804BF002123209B
:104A400008D0022813BF032800212020012018BF0E
:104A5000BDE8F081FFF7A5F8204D1B4F2C1F4FF448
:104A60000056002818BFFF220DD0218811F0800FBA
:104A7000FBD1218811F0020FFBD02A80218811F090
:104A8000010FFBD056E098F80010012906D1D8F8A4
:104A90000400A0F500712420FFF783F898F80010B7
:104AA000022906D1D8F80400A0F500712120FFF7F3
:104AB00078F898F80010032905D1D8F80800411EAD
:104AC0002120FFF76EF80DE000100140000C0140BE
:104AD0001408014006000020700A00200C38004035
:104AE000FFFF0F00002818BFFF220DD0218811F012
:104AF000800FFBD1218811F0020FFBD02A80218882
:104B000011F0010FFBD015E07E6100212620FEF799
:104B10004EFE002818BFFF2210D0218811F0800F10
:104B2000FBD1218811F0020FFBD02A80218811F0DF
:104B3000010FFBD029883E61BDE8F081FF20FEF720
:104B4000C3FD0028FAD03E61FF21208810F0800FBD
:104B5000FBD1208810F0020FFBD02980208810F0B4
:104B6000010FFBD028880020BDE8F0812DE9F04737
:104B70000446FDF7BBFEDFF8B0914FF40057C9F8CB
:104B800014706A480078032818BF64022146112077
:104B9000FEF70DFE664C261D002814BFFF21654D53
:104BA00011D0228812F0800FFBD1228812F0020F60
:104BB000FBD03180218811F0010FFBD03188C9F87A
:104BC0001070BDE8F087FF20FEF77EFDC0B2FE2822
:104BD00005D0FDF79EFE88BB6D1EF4D12FE06DB3AE
:104BE00055494FF044300860544901200860DFF80F
:104BF00050810025FF20FEF767FD00F0FF0AFDF75A
:104C00009AFF98F80010012908BF50452BD0B5F540
:104C1000007F2CD2FF21208810F0800FFBD120884C
:104C200010F0020FFBD03180208810F0010FFBD074
:104C300030886D1CB5F5007FECD318E0FFE7FF214D
:104C4000208810F0800FFBD1208810F0020FFBD0DD
:104C50003180208810F0010FFBD03088C9F8107027
:104C6000FF20BDE8F0876D1CB5F5007FC2D3FF21A2
:104C7000208810F0800FFBD1208810F0020FFBD0AD
:104C80003180208810F0010FFBD03088FF21208870
:104C900010F0800FFBD1208810F0020FFBD0318084
:104CA000208810F0010FFBD03088FF21208810F001
:104CB000800FFBD1208810F0020FFBD031802088BC
:104CC00010F0010FFBD03088C9F810700021FF22CE
:104CD000208810F0800FFBD1208810F0020FFBD04D
:104CE0003280208810F0010FFBD03088491C032946
:104CF000EDD398F80000012814BFFF200020BDE884
:104D0000F08770B50D1E06464FF0000409D9301922
:104D1000FFF72CFF08B1FF2070BD601C84B2AC42CD
:104D2000F5D3002070BD000000100140700A002083
:104D300008380040FFFF0F00000C0140140801403C
:104D400006000020E248816D21F001018165416C7F
:104D500021F0010141640021C1658164FCF7A9BC17
:104D6000DB48C16D002904BF816C0029F9D170476F
:104D70002DE9F34F0746D74883B00078032818BFC2
:104D80007F020120DFF85083C8F80000D3494FF0BC
:104D9000333008600026FF224FF40271D04800F043
:104DA00073FCD0480290FDF7A1FD00254FF6FF7B74
:104DB000FDF7AFFD58BBDFF830A34FF40059CAF838
:104DC000149039461220FEF7F2FC040009D0FF20AF
:104DD000FEF77AFC51464846086105B02046BDE81A
:104DE000F08FFF20FEF770FCC0B2FE2813D0601CCD
:104DF00084B2A345F5D8CAF81090FF20FEF764FCF2
:104E0000FF20FEF761FC681C85B2052DD0D305B0EC
:104E1000FF20BDE8F08F4FF40072B1491046029BAD
:104E2000FCF766FC0498401E80B2019000200090C0
:104E3000049800285ED9DFF8B4A2DFF8B4B2AD4D13
:104E40004FF00409A248C16D002904BF806C0028FE
:104E5000F8D1FCF72EFCA348029C84420CBFA64864
:104E6000A0480290DDE9000188421CD0FF20FEF737
:104E70002BFCFF20FEF728FCFF20FEF725FCFE2878
:104E80000AD000BFFDF745FD08B1012604E0FF2070
:104E9000FEF71AFCFE28F5D14FF400729049104637
:104EA000029BFCF725FC002714F8010BCAF8000050
:104EB000C8F8009000BFCBF8009000BFFDF729FDB7
:104EC00020B18E4900200126087013E0286810F4F4
:104ED000006FF3D04FF4006028605EB9781C87B291
:104EE000B7F5007FE0D300980499401C80B2009091
:104EF0008842A7D37648816D21F001018165416C1C
:104F000021F0010141640021C1658164FCF7D1FBFE
:104F100000210C20FEF74BFCFF20FEF7D5FB724969
:104F20004FF400500861002E08BF00207FF46FAFDF
:104F300005B0BDE8F08F2DE9F05F8A460446FDF725
:104F4000D5FC69494FF400504861DFF88891264646
:104F500099F80000032818BF740221461920FEF7B3
:104F600026FC040009D0FF20FEF7AEFB5E494FF49B
:104F7000005008612046BDE8F09F58494FF044308A
:104F800008605B49012008600027564CB846BAF11A
:104F9000000F88BFDFF864B149D900BFD9F8080015
:104FA000B04201D8012742E0FC2004F8010B0025A3
:104FB000FDF7C1FD04F8010B9BF800000128F1D1B9
:104FC000681C85B2B5F5007FF2D3FF2020706070B9
:104FD00018F0010F19BF484DA5F50274414D05F5B4
:104FE00002743B48C16D002904BF816C0029F9D1CE
:104FF000FCF75FFBFF20FEF767FBFF2809D000BF2F
:10500000FDF787FC0028CDD1FF20FEF75DFBFF28D0
:10501000F6D140F203223A4B29461046FCF768FBD2
:1050200008F10100761C1FFA80F8D045B6D3284855
:10503000C16D002904BF816C0029F9D1FCF739FB4F
:10504000FF20FEF741FBFF280AD000BFFDF761FCFF
:1050500008B1012704E0FF20FEF736FBFF28F5D159
:10506000FD20FEF731FBFF20FEF72EFBFF2809D0C5
:10507000FDF74FFC08B1012704E0FF20FEF724FBF9
:10508000FF28F5D199F80000012813D100210C2048
:10509000FEF78DFBFF20FEF717FBFF280AD000BFAD
:1050A000FDF737FC08B1012704E0FF20FEF70CFBF9
:1050B000FF28F5D1FF20FEF707FB0B494FF4005006
:1050C0000861002F14BFFF200020BDE8F09F000002
:1050D00000000240700A002010080140000C01404E
:1050E000800A0020880C0020001001400C0C0140B8
:1050F0001408014014040140900E00200600002016
:105100009810002002461A4800881A4B002803EB2A
:1051100042020CBF10880846704770B50D4615490D
:105120008E1E01EB400431882088002902BFA8426E
:10513000042070BD00F039F8352000F05EFA3046EA
:1051400000F091F8042818BF70BD0021304600F02F
:105150002AF9042818BF70BD2946204600F023F91B
:105160000446042818BF70BD00F025F8204670BD25
:1051700000F8000802F80008FE490A6802F0380248
:10518000104308607047FB490A6822F008020A6071
:105190000A68104308607047F6490A6822F0100256
:1051A0000A600A68104308607047F248F24941609B
:1051B000F24941607047EF48016941F080010161A7
:1051C0007047EC490420CA6812F0010F1CBF01208F
:1051D0007047CA6812F0040F1CBF02207047C968EC
:1051E00011F0100F18BF03207047014681B0042052
:1051F000E04AD36813F0010F18BFFF232ED1D36804
:1052000013F0040F18BF022021D1D26812F0100F42
:1052100018BF03201BE00098401E0090FBD1D2F87D
:105220000CC004201CF0010F18BF01200CD1D2F8D3
:105230000CC01CF0040F18BF022005D1D2F80CC01E
:105240001CF0100F18BF0320491E012806D00029AA
:105250001CBF01B07047052001B07047002918BF7E
:105260000093D8D1F7E730B5054640F6FF70FFF759
:10527000BCFF042818BF30BDBE4C206940F00200BE
:1052800020616561206940F04000206140F6FF70B8
:10529000FFF7ABFF052808BF30BD216941F6FD725D
:1052A0001140216130BD10B540F6FF70FFF79DFF42
:1052B000042818BF10BDAF4C206940F004002061E5
:1052C000206940F04000206140F6FF70FFF78DFF3D
:1052D000052808BF10BD216941F6FB72114021610C
:1052E00010BD30B540F6FF70FFF77FFF042818BFF0
:1052F00030BDA1489F4CA060A048A060206940F04C
:1053000020002061206940F04000206140F6FF70DD
:10531000FFF76BFF41F6EF75042803D0052808BF9F
:1053200030BD11E0206941F6DF710840206120693D
:1053300040F0100020619249A52008800F20FFF75F
:1053400054FF052808BF30BD21692940216130BDC7
:10535000F8B50646002000900D460F20FFF745FFE8
:10536000042818BFF8BD834C206940F0010020617B
:1053700035800F20FFF739FF41F6FE77042803D070
:10538000052808BFF8BD0AE0B01C00900099280C61
:1053900008800F20FFF729FF052808BFF8BD216905
:1053A00039402161F8BD70B506460D460F20FFF764
:1053B0001CFF042818BF70BD6E4C206940F001002E
:1053C000206135800F20FFF710FF052808BF70BD52
:1053D000216941F6FE721140216170BD70B506462B
:1053E0000D460F20FFF701FF042818BF70BD62486B
:1053F000604CA0606148A060206940F0100020610E
:1054000035800F20FFF7F1FE052808BF70BD216928
:1054100041F6EF721140216170BD2DE9F041C043AA
:10542000C7B2C0F30726C0F307454FEA10680F2044
:10543000FFF7DBFE042818BFBDE8F0814E494D4C54
:10544000A1604E49A160216941F010012161FF2F47
:1054500006D04C4807800F20FFF7C7FE04281AD15A
:10546000FF2E06D0484806800F20FFF7BEFE042816
:1054700011D1FF2D06D0454805800F20FFF7B5FE5E
:10548000042808D1B8F1FF0F09D04148A0F80080E6
:105490000F20FFF7AAFE052808BFBDE8F0812169AB
:1054A00041F6EF7211402161BDE8F08130B505464B
:1054B00040F6FF70FFF799FE042818BF30BD2E4854
:1054C0002C4CA0602D48A060206940F02000206195
:1054D000206940F04000206140F6FF70FFF785FE34
:1054E00041F6DF71042806D005281ABF2269114051
:1054F00030BD216130BD206908402061206940F045
:10550000100020611E48002D14BF0021A52101803C
:1055100040F6FF70FFF769FE052808BF30BD21691E
:1055200041F6EF721140E4E7F0B5124C074612481D
:1055300015460E46A0601148A0600F20FFF755FEEB
:10554000042818BFF0BD206940F01000206146EA31
:1055500005001049384340F0F80008800F20FFF79D
:1055600044FE052808BFF0BD216941F6EF721140E5
:105570002161F0BD0020024023016745AB89EFCDDA
:1055800000F8FF1F08F8FF1F0AF8FF1F0CF8FF1FA5
:105590000EF8FF1F02F8FF1F1948C0698008704706
:1055A0001748006A704716490020C96911F0020FB8
:1055B00018BF0120704700201149096811F0200F21
:1055C00018BF0120704700290D4A116914BF084314
:1055D00021EA00001061704701460020084A0129B5
:1055E00004D0D2680A4208BF704704E0D16911F0C4
:1055F000010F08BF7047012070470149C86070471C
:1056000000200240431A28BF9A4240F24880032AF1
:105610001044114440F2268010F0030F1EBF11F811
:10562000013D521E00F8013D10F0030F7FF4F6AF6C
:1056300011F0030300F08B80083AC0F00B8051F8A2
:10564000043D083A51F804CD40F8043D40F804CD3B
:10565000FFF7F3BF121D5CBF51F8043D40F8043D55
:10566000AFF30080D20724BF11F8013D11F801CD3E
:1056700048BF11F8012C24BF00F8013D00F801CD0E
:1056800048BF00F8012C704702F0FF0343EA0322F1
:1056900042EA024200F087B8704770477047032A19
:1056A00040F2308010F0030C00F0158011F8013B3F
:1056B000BCF1020F624498BF11F801CB00F8013B26
:1056C00038BF11F8013BA2F1040298BF00F801CBEA
:1056D00038BF00F8013B11F0030300F08480083A62
:1056E000C0F0088051F8043B083A51F804CBA0E818
:1056F0000810F5E7121D5CBF51F8043B40F8043B6D
:10570000AFF30080D20724BF11F8013B11F801CBA1
:1057100048BF11F8012B24BF00F8013B00F801CB72
:1057200048BF00F8012B7047431A28BF9A4240F245
:105730005A80104410F0030F11441EBF11F8013DB0
:10574000521E00F8013D10F0030F7FF4F6AF103A3F
:10575000C0F00A8010B531E91850103A20E918500D
:10576000BFF4F9AFBDE81040530724BF31E908107A
:1057700020E9081044BF51F8043D40F8043D12F000
:10578000030F08BF7047D20728BF31F8023D48BF5A
:1057900011F8012C28BF20F8023D48BF00F8012C69
:1057A00070474FF000020429C0F0128010F0030C83
:1057B00000F04D80CCF1040CBCF1020F18BF00F8D2
:1057C000012BA8BF20F8022BA1EB0C0100F03FB881
:1057D0005FEAC17C24BF00F8012B00F8012B48BF11
:1057E00000F8012B704710B5203AC0F00B80B1E8EB
:1057F0001850203AA0E81850B1E81850A0E8185006
:10580000BFF4F5AF5FEA027C24BFB1E81850A0E80E
:10581000185044BF18C918C0BDE810405FEA827C28
:1058200024BF51F8043B40F8043B08BF7047D2073F
:1058300028BF31F8023B48BF11F8012B28BF20F8E0
:10584000023B48BF00F8012B70474FF0000200B543
:10585000134694469646203922BFA0E80C50A0E893
:105860000C50B1F12001BFF4F7AF090728BFA0E841
:105870000C5048BF0CC05DF804EB890028BF40F80D
:10588000042B08BF704748BF20F8022B11F0804F4F
:1058900018BF00F8012B7047754600F029F8AE4696
:1058A00005006946534620F00700854618B020B52C
:1058B000FAF778FCBDE820404FF000064FF00007F3
:1058C0004FF000084FF0000B21F00701AC46ACE8A8
:1058D000C009ACE8C009ACE8C009ACE8C0098D4615
:1058E00070470446AFF300802046FAF746FC0000FC
:1058F00000487047A012002001491820ABBEFEE707
:10590000260002007047322E30300031312F303601
:105910002F313500345900080000002054000000E9
:10592000280100088859000854000020AC18000025
:10593000440100080000000000000000000000001A
:105940000000000000000000000000000000000057
:10595000000015A00611000000000000000000007B
:105960000000000000000000065900080B59000864
:1059700000A24A040000000000000000010203042D
:08598000060708090000000001
:04000005080000ED02
:00000001FF
