:020000040800F2
:10000000004B002001310008093100080B310008C5
:100010000D3100080F310008113100080000000008
:100020000000000000000000000000001331000884
:1000300015310008000000001731000819310008D0
:100040001B3100081B3100081B3100081B31000860
:100050001B3100081B3100081B3100081B31000850
:100060001B310008D70C00081B3100081B310008A9
:10007000AD0C0008790C00081B3100081B3100088A
:100080001B3100081B3100081B3100081B31000820
:100090001B3100081B3100081B3100081B31000810
:1000A0001B3100081B3100081B3100081B31000800
:1000B0001B3100081B3100081B3100081B310008F0
:1000C0001B3100081B3100081B3100081B310008E0
:1000D0001B310008E10D0008D50E0008A30F000831
:1000E0001B3100081B3100081B31000800F002F82A
:1000F00000F03AF80AA090E8000C82448344AAF188
:100100000107DA4501D100F02FF8AFF2090EBAE885
:100110000F0013F0010F18BFFB1A43F0010318473B
:100120003831000058310000103A24BF78C878C137
:10013000FAD8520724BF30C830C144BF04680C60ED
:10014000704700000023002400250026103A28BF35
:1001500078C1FBD8520728BF30C148BF0B60704739
:100160001FB51FBD10B510BD03F03EF81146FFF7D7
:10017000F7FF00F0C1FA03F05CF803B4FFF7F2FFF9
:1001800003BC03F061F80000FE480821072242800A
:1001900020F8042F491EFAD1704770B4FB4E43F685
:1001A0009821F94C8C460025A6F12902481E01042D
:1001B000090C29D0D38AE05CF02825D05B1C9BB2C7
:1001C000D382634528BFD5820028EFD0502825D19F
:1001D000D08A235C401C80B23370D082604528BF37
:1001E000D582D08A235C401C80B27370D082604577
:1001F00028BFD582D08A235C401C80B2B370D082E5
:10020000604528BFD582D1E7E1481178405C491CA0
:10021000C9B2117002299CBF70BC7047157070BCC8
:1002200070472DE9F00FDB480021026812F4003F0F
:1002300018BF08214FF4C0224260D44EDFF848C3F3
:10024000A6F12903002043F69824054603F1260B66
:1002500003F13409ACF16C0A03E0002818BF04284C
:1002600043D143F69822521E1204120C34D0B3F834
:1002700016801CF80870F02F2ED008F101081FFA24
:1002800088F8A3F81680A04528BFDD82002FEAD0A9
:10029000502F29D1DF8A1CF807807F1CBFB286F857
:1002A0000080DF82A74228BFDD82DF8A1CF807803A
:1002B0007F1CBFB286F80180DF82A74228BFDD82A3
:1002C000DF8A1CF807807F1CBFB286F80280DF82BD
:1002D000A74228BFDD82C6E71A781BF80270521CBD
:1002E000D2B21A70022A00D91D70BA09BF0619F8D5
:1002F00012202AF81120491C401C3F0EC0B289B2BE
:100300000828AAD3BDE8F00F70472DE9F001A148F5
:1003100000210723D0F800C00A461CF4800F04D047
:10032000410141600721002309E0D0F800C01CF41E
:10033000001F04D04FF4001141600F210823964E96
:100340004FF0030C06EB410036F8117030F8024C08
:100350003C1B048030F8025C30F8044C2D1B20F864
:10036000025C30F8065C641B20F8044DBCF1010C03
:10037000F0D1C81FDFF8248280B236F81010B8F828
:1003800012C0A1EB0C0126F81010A8F81270002181
:1003900006EB43004FF0080C4FF6FF77002603886A
:1003A00035463446142B14D3242B3CBF012422465B
:1003B00008D3322B3CBF0125022203D3412B3CBF83
:1003C0000126032244EA06032B431CBF07EA8101EE
:1003D0001143801CBCF1010CE0D1D8F82C3040F264
:1003E000262C03F24C40B3F84C24624524BFBDE8F0
:1003F000F001704723F812100188491C0180BDE804
:10040000F00170476548017A002902BF4FF6FF717D
:1004100081827047C17900290CBF4FF440514FF4DD
:10042000A0418182704710B45C485C495C4B447ABF
:10043000897A4FF480704FF4007C1A1F3CB1002978
:100440000CBF18601060C3F800C010BC70470029D2
:1004500014BF18601060C2F800C010BC704710F0E4
:100460000F0F18BF704730B500110C2828BF30BDE2
:10047000DFE800F034060C12183431353D344950B1
:10048000002046498872BDE83040CCE7434901204E
:100490008872BDE83040C6E7404900204872BDE898
:1004A0003040C0E73D4C01256572FFF7BCFF04F109
:1004B0001C000278811C0A7040784870A570394889
:1004C0000088A0840020A081A08C2338A084FF2075
:1004D000891C087001E031490120487030BD2F4867
:1004E0000021C171017A39B14FF4405109E02B4824
:1004F0000121C171017A11B94FF6FF7101E04FF48A
:10050000A041818230BD254801210172C1790029B5
:10051000F5D1E9E72148002101724FF6FF71818290
:1005200030BD10B5204C208910F0020F09D100BF5A
:1005300000F043FF002818BF10BD208910F0020F03
:10054000F6D0208910F0800F08BF10BD00F035FFF5
:10055000002818BF10BD208910F0800FF6D110BD03
:1005600010B50E4CE078012808BF10BD00F025FF43
:1005700008B30121E1700D484278002A08BF10BD80
:10058000002215E012090020800900202D00002023
:100590002A0000200000024034090020040000204E
:1005A000140C0140240800400030014034000020B9
:1005B0004270817010BDE0780128D7D110BD2DE9BF
:1005C000F05FFE4C88800746CA80E0789B469046E4
:1005D0000E464FF001094FF0000A012811D000BF6C
:1005E00000F0EBFE50B184F80390F5484178002903
:1005F0001CBF80F801A080F8029002E0E07801289A
:10060000EED1F04D288910F0020F06D100F0D5FE92
:1006100078B9288910F0020FF8D0288910F0800FDF
:1006200007D000BF00F0C9FE18B9288910F0800F6C
:10063000F8D1E189E448012933D07188E181016B67
:1006400021F001010163C16921F00101C161298922
:1006500011F0010F18BFA989002F0CBF0121002143
:100660002171B8F1000F0CBF01210021617184F8E4
:1006700003A0C6634763C0F828B0C0F82080016BB0
:1006800041F001010163C16941F00101C161002F25
:1006900008BFBDE8F09F4FF40040CC490860BDE8BA
:1006A000F09F416B002905BF016A002984F806A06C
:1006B00084F80690C1E7C649002043F698220B5CF7
:1006C000F02B1CBF401C9042F9D34FF08041898C25
:1006D00048434FF4C871B0FBF1F0B849C882704785
:1006E00000210170417081700A468318D970521C34
:1006F000D2B2402AF9D3704782B000200090802007
:10070000AE4D002401906C836C70AC7001F073FFEF
:1007100001F0F9FFAF490C704C708C7000200A1882
:10072000D470401CC0B24028F9D3AB490C704C7057
:100730008C7000200A18D470401CC0B24028F9D335
:10074000287A002804BF4FF6FF70A88207D0E87906
:1007500000280CBF4FF440504FF4A040A8829B4E9D
:100760004FF4407030604100301D01604FF4004193
:100770000160FFF758FE99480178821C117041789A
:100780005170A0F11C0101238B70DFF854C2BCF83A
:1007900000508D84DFF84CA28C81DFF8208298F81D
:1007A000020058B10820AAF1020107224A8021F86C
:1007B000042F401EFAD1824901204870804FB8783A
:1007C000A0B18349BC70002043F698220B5CF02B4B
:1007D0001CBF401C9042F9D34FF08041898C4843A4
:1007E0004FF4C871B0FBF1F0A8F81600387808B1E2
:1007F000787828B3F87810B101F009FEFC7098F809
:10080000010028B398F8090070B188F8094098F8F9
:100810000A004FF4807100280CBF6C4872480160D8
:100820006A484FF40071016000F0C2FD6F4B08226E
:10083000A3F110011046FFF7C2FE88F8014050E016
:10084000F8780028DBD101F0B1FD0120F870D6E77F
:1008500098F8020048B362480088B8F82410401A9B
:1008600080B21E283DD388F80240614D2978A81C2B
:100870000278914203D169784278914231D0297847
:1008800001706978417000F093FD2978687841F62D
:100890004C5241EA0020574901F10C03088106201F
:1008A000FFF78DFE012078701BE0D8F82C0090F83F
:1008B0004E04B0B100F07CFDD8F82C104E4B012254
:1008C000B1F84C04FFF77BFED8F82C00042180F827
:1008D0004E44D0F85004C8F82C0080F84E44A0F8DC
:1008E0004C14424E3078F02818BF002507D0705DB8
:1008F000FFF7B5FD6D1C0C2DF9DBF02030703F4883
:10090000006843461FFA80F9B8F8140019EA000F8E
:100910000CBF012000203870019909F0800081424D
:1009200037D0A8B1D96A40F2262501F24C42B1F87D
:100930004CC4AC4507D221F81C40B2F800C00CF101
:10094000010CA2F800C0012281F84E240190C6E0FB
:100950002B4909885982D96ADFF8A8C081F84E442A
:10096000BCF801209CF800C052BABCF1000F18BFBF
:1009700042F4004201F24C45B1F84CC440F2262644
:10098000B44504D221F81C202988491C29800190F3
:1009900001E000287ED10C48016811F4C00F79D025
:1009A0004FF0000802680726414612F4800F2BD052
:1009B00042014260B046002630E000000400002002
:1009C000340000200030014000000240100C0140C3
:1009D00080090020184400205B44002020000020F3
:1009E0002408004014090020140C01406409002070
:1009F00022000020740900201C000020080C014087
:100A0000240400402D000020026812F4001F05D0CD
:100A10004FF4001242604FF00F080826FE4D0322EB
:100A200005EB480035F8187030F802CCA7EB0C0C39
:100A3000A0F800C030F802BC30F804CC521EABEB7A
:100A40000C0B20F802BC30F806BCACEB0B0C20F809
:100A500004CDEFD1A8F1070080B2B3F812C035F889
:100A600010204FF6FF7BA2EB0C0225F8102005EBBF
:100A700046005F824FF0000C082500BF4FF00008D1
:100A8000028847464646142A18D3242A3CBF01262A
:100A9000314600E023E009D3322A3CBF012702217E
:100AA00004D3412A3CBF4FF00108032146EA080263
:100AB0003A431CBF0BEA8C0242EA010C801C6D1EFB
:100AC000DCD1DA6A40F2262502F24C40B2F84C142E
:100AD000A94204D222F811C00188491C0180CF48E4
:100AE000016811F4C02F69D00268002112F4003FA0
:100AF00018BF08214FF4C0224260DFF828B300205D
:100B0000DFF81CC343F698250BF10E0E0BF103061C
:100B100003E0002818BF042843D143F69822521E50
:100B20001204120C34D0B3F816801CF80870F02FA1
:100B30002ED008F101081FFA88F8A3F81680A845FE
:100B400028BFDC82002FEAD0502F29D1DF8A1CF881
:100B500007807F1CBFB286F80080DF82AF4228BFCB
:100B6000DC82DF8A1CF807807F1CBFB286F8018018
:100B7000DF82AF4228BFDC82DF8A1CF807807F1C3F
:100B8000BFB286F80280DF82AF4228BFDC82C6E7B0
:100B90001A781BF80270521CD2B21A70022A00D9BD
:100BA0001C70BA09BF061EF812202AF81120491C31
:100BB000401C3F0EC0B289B20828AAD34FF0804033
:100BC000018A11F0010F37D04FF6FE710182DC82ED
:100BD0009889401C80B29881022816D39249A1F1CD
:100BE0000D004A7890F800C0624503D10978427838
:100BF00091420AD002788D490A70407848700120ED
:100C000098708B48008898849C818748FF214170A8
:100C100001700821AAF102000722428020F8042F67
:100C2000491EFAD10098401CC0B20090052803D19B
:100C3000002000900120587019F4805F7FF4ADAD62
:100C40007C48012222EA99114170811D91F801C06E
:100C50004578AC453FF4A1AD057800F1020C8CF865
:100C6000005045788CF801509A70714A12889A8425
:100C70009C814078487090E510B54FF4007000F00A
:100C80008BFD6D494FF4004008606C4801210171F3
:100C90004279012A18BF10BDC17069484278002A04
:100CA00008BF10BD00224270817010BD10B5202019
:100CB00000F072FD6148012141710279012A18BFDB
:100CC00010BDC1705E484278002A08BF10BD0022E6
:100CD0004270817010BD70B5082001F039FB00280A
:100CE00008BF70BD082001F03FFB56480068504A1D
:100CF00080B213885149B1F810C0A3EB0C0C1FFA55
:100D00008CFCBCF1FF0F98BFBCF1020F38BF70BD67
:100D10000B8210F4805F18BF70BD10F0040F434BBE
:100D20004FF0000CA3F102004FF0010405780DD044
:100D3000D5B105786D1E057005781D7045785D701C
:100D40008C7012888A84A1F80CC00DE0552D0BD24E
:100D500005786D1C057005781D7045785D708C7088
:100D600012888A84A1F80CC001784FF480600029B1
:100D70000CBF31493449086070BD28494FF4C02088
:100D80004860324808210722428020F8042F491E7B
:100D9000FAD170478178002904BF0020704781781C
:100DA000491E81704178C21C895C4278521C427095
:100DB000427802F03F024270084670478278402A2B
:100DC00028BF70478278521C82700278C31CD154AD
:100DD0000178491C0170017801F03F0101707047F2
:100DE0001B4B10B4188803F1040210F0200F4ED0F2
:100DF0001088C1B21748807830B91748008810F0C1
:100E0000800F18BF154841D1124890F802C0BCF1BC
:100E1000400F37D224E000003409002000000240D7
:100E2000800900202A0000202D0000202200002040
:100E30002408004020000020140C01400400002081
:100E400034000020080C0140100C01401209002061
:100E50000038014018440020004400400444004091
:100E600090F802C00CF1010C80F802C090F800C0AC
:100E7000C41C0CF804100178491C0170017801F0C1
:100E80003F0101707B48018841F080010180188892
:100E900010F0800F04BF10BC70477748807890B185
:100EA0007548817861B18178491E81704178C31C91
:100EB000C95C43785B1C4370437803F03F03437085
:100EC000118010BC70476D48018821F080010180BD
:100ED00010BC7047DFF8A8C130B4BCF800000CF1BA
:100EE000040310F0200F26D01888C2B2654880791C
:100EF00008B3614880786449002839D16348008884
:100F000010F0800F34D0624CAA2020805A48847898
:100F1000402C0BD28478641C84700478625401786D
:100F2000491C0170017801F03F01017053480188AC
:100F300041F080010180BCF8000010F0800F04BF78
:100F400030BC70475348807820B35248817861B1F3
:100F50008178491E81704178C21C895C4278521C9C
:100F60004270427802F03F024270198030BC7047F4
:100F70004148AA248578402DC8D285786D1C85709B
:100F800005786C540478641C0470047804F03F0401
:100F90000470BBE73748018821F08001018030BC34
:100FA00070473D48008810F0200F08BF70473B484D
:100FB0000088C1B23348807900283AD02E48807822
:100FC000314AE8B93148008810F0800F18D0304B12
:100FD000BB20188028488378402B0BD283785B1C79
:100FE0008370037899540178491C0170017801F0ED
:100FF0003F0101702148018841F080010180704764
:101000001D48BB2390F802C0BCF1400FE2D290F81B
:1010100002C00CF1010C80F802C090F800C00CF87E
:10102000023003785B1C0370037803F03F03037006
:10103000D0E71848807830B91148008810F0800F48
:1010400018BF174814D113488278402A0CD28278EE
:10105000521C82700278C31CD1540178491C017063
:10106000017801F03F0101700248018841F08001E0
:10107000018070470C4400405B4400200C38014064
:1010800000440040040000205E440020003801407D
:101090000438014018440020004800400448004043
:1010A000044400404D4882B0016841F001010160F4
:1010B00041684B4A11404160016821F4102121F040
:1010C00080710160016821F480210160416821F490
:1010D000FE0141604FF41F018160002201920092E5
:1010E000016841F480310160016801F40031009130
:1010F0000199491C0191009919B90199B1F5A06FA5
:10110000F2D1016811F4003F08BF009233D00121F1
:10111000009134490A6842F010020A600A6822F01D
:1011200003020A600A6842F002020A6041684160F4
:1011300041684160416841F480614160416821F447
:101140007C114160416841F4E8114160016841F05F
:1011500080710160016811F0007FFBD0416821F0CF
:1011600003014160416841F002014160416801F0C2
:101170000C010829FAD11C494FF00060086002B048
:10118000704716494868194A10F00C03184818BFF0
:10119000042B01D0082B01D0026015E04A684B688F
:1011A00002F470124FF0020C13F4803F0CEB9242E9
:1011B00003D04B6813F4003F03D00E4B5A43026038
:1011C00002E00A4B5A43026049680B4AC1F303111B
:1011D000515C026822FA01F1016070470010024080
:1011E0000000FFF80020024008ED00E000127A0045
:1011F0004000002000093D004400002010B5754863
:101200004FF4FA6188B000680024B0FBF1F0401E92
:1012100040F28F11ADF80410ADF80000ADF80640B3
:10122000ADF802408DF8084069464FF0804000F06C
:10123000D9FA6020ADF810000120ADF812000A20A4
:10124000ADF81600ADF8184004A9400700F056FBB1
:101250000821C80600F0C1FE0121880700F093FEB6
:101260000121880700F095FD01221146900700F04A
:10127000A4FD08B010BD10B55648574988B00068A5
:10128000564CB0FBF1F0401EADF8000007210020E5
:10129000ADF80410ADF80600ADF802008DF80800B6
:1012A0006946204600F09EFA6020ADF8100001214A
:1012B0000220ADF81210ADF81610ADF8180004A910
:1012C000204600F0D9FA0821204600F080FE0021D7
:1012D000204600F058FE01221146204600F06DFD28
:1012E0003F490B20088001228915204600F065FD4A
:1012F0003C494FF4004008800121204600F049FDA0
:1013000008B010BD30B587B0FF20ADF8040009204B
:101310000024ADF80000344DADF80640ADF80240B1
:101320008DF808406946284600F05CFA00212846FE
:1013300000F029FEADF80C400220ADF80E000120AF
:10134000ADF81000ADF81240ADF8144003A92846DE
:1013500000F0BBFB25490D200880012249152846D5
:1013600000F02BFD0121284600F013FD07B030BD31
:1013700010B584B04FF6FF70ADF8040048F69F40FA
:10138000ADF8000000201A4CADF80600ADF80200E0
:101390008DF808006946204600F024FA0021204616
:1013A00000F0F1FD0121204600F0F3FC04B010BD77
:1013B000104800881049088070470E4800880E4980
:1013C0000988401A80B2B0F5FA6F8CBF0120002066
:1013D000704700004000002080841E00002C014067
:1013E000482C0140442C01400004004048040040C7
:1013F00000080040240800405400002010B4028877
:101400000B88B1F802C0CC8843EA0C03B1F804C0E1
:1014100002F441524CEA040C43EA0C03B1F808C050
:1014200043EA0C03B1F80AC043EA0C03B1F80CC05C
:1014300043EA0C03B1F80EC043EA0C031A430280DE
:10144000828B22F400628283098A018210BC704779
:101450000021018041808180C180018141818181A1
:10146000C1810721018270470029018814BF41F022
:10147000400121F04001018070470909012303FA6E
:1014800001F1002A828889B214BF114322EA0101C6
:1014900081807047002A828814BF114322EA01012B
:1014A000818070478181704780897047A1F57E42B5
:1014B0000188FF3A14BF41F4807121F480710180EA
:1014C00070470029818814BF41F0040121F0040114
:1014D00081807047028822F40062028002881143F2
:1014E00001807047B1F5804F01880CBF41F4804105
:1014F00021F48041018070470246002012890A428F
:1015000018BF01207047C9430181704701F00F03E4
:101510004FF0010C0CFA03F3002209090CFA01F157
:10152000B0F804C09BB289B200890CEA01011842EC
:101530001CBF002901221046704700002A4940F0D4
:10154000FD7040F080600860704730B4C278017868
:1015500001234FF0E02C02B3234A12680F2502F456
:10156000E062C2F5E062120AC2F1040425FA02F256
:10157000457805FA04F485782A4022431B4C120171
:101580000A55007800F01F0103FA01F140090CEB45
:101590008000C0F8001130BC704701F01F0003FA52
:1015A00000F049090CEB8101C1F8800130BC7047A3
:1015B00021F07F0121F0604108430D490860704728
:1015C0000C4A0029116814BF084321EA000010608A
:1015D00070474FF0E021042808690CBF40F0040078
:1015E00020F00400086170470CED00E000E400E02A
:1015F00008ED00E010ED00E0016821F0010101605C
:101600000021016041608160C160674A6749904282
:1016100004BF486840F00F0022D0654A904204BFE2
:10162000486840F0F0001BD0624A904204BF48680E
:1016300040F4706014D0604A904204BF486840F49F
:1016400070400DD05D4A904204BF486840F470205D
:1016500006D05B4A904204BF486840F4700001D154
:1016600048607047574A904204D1486840F0706023
:1016700048607047544A111F904204BF086840F008
:101680000F0014D0514A904204BF086840F0F000A7
:101690000DD04F4A904204BF086840F4706006D0F5
:1016A0004C4A904204BF086840F4704001D1086081
:1016B0007047494A904218BF7047086840F470204C
:1016C0000860704710B40268D1F820C08B686FF3CF
:1016D0000E1243EA0C03D1E904C44CEA040C43EAB9
:1016E0000C03D1F818C043EA0C03D1F81CC043EA3C
:1016F0000C03D1F824C043EA0C03D1F828C043EA14
:101700000C031A430260CA6842600A688260496832
:10171000C16010BC70470021016041608160C16000
:10172000016141618161C161016241628162704711
:101730000029016814BF41F0010121F0010101609D
:101740007047002A026814BF114322EA01010160B8
:101750007047406880B27047002110F0805F14BF6E
:101760001E4A124A1268024218BF012108467047F9
:1017700010F0805F19BF1A4908600C494860704733
:10178000002110F0805F14BF144A084A1268024218
:1017900018BF01210846704710F0805F19BF10493B
:1017A000086002494860704708000240000002409B
:1017B0001C00024030000240440002405800024039
:1017C0006C00024080000240080402401C040240F9
:1017D0003004024044040240580402400004024025
:1017E0000404024010B40288FE4BDFF8FCC39842A8
:1017F00018BF604511D0B0F1804F1CBFA0F18044EC
:10180000B4F5806409D0A0F18044B4F500641CBF35
:10181000A0F18044B4F5406403D14C8822F07002FA
:101820002243A0F18044B4F580541CBFA0F1804451
:10183000B4F5A05403D0CC8822F440722243028035
:101840008A8882850A880285984218BF60450DD033
:10185000A0F18042B2F5A0321FBFA0F18042B2F5E4
:10186000A232A0F18042B2F5A43201D1097A0186F8
:101870000121818210BC704710B4028C22F0010259
:101880000284028C8388B0F818C00C882CF0730C8A
:1018900044EA0C0C0C8922F0020222434C882243B9
:1018A000A0F18044B4F596341CBFA0F18044B4F597
:1018B0009A340DD0A0F18044B4F5A0341FBFA0F13C
:1018C0008044B4F5A234A0F18044B4F5A4340DD121
:1018D0004C8922F0080222438C8822F00402224321
:1018E0008C8923F440732343CC8923438380A0F85D
:1018F00018C0C9888186028410BC704730B4028C3D
:1019000022F010020284038CB0F804C0028B0D8810
:1019100022F4E6444FF6FF7202EA05252C430D89B6
:1019200023F0200302EA05152B434D8802EA051532
:101930002B43A0F18045B5F596351CBFA0F180453D
:10194000B5F59A3517D14D8923F0800302EA0515C4
:101950002B438D8823F0400302EA05152B438D8924
:101960002CF4406C02EA850545EA0C0CCD8902EAAC
:10197000850242EA0C0CA0F804C00483C9880187E0
:10198000038430BC704730B4028C22F4807202842D
:10199000028C8388B0F81CC00C882CF0730C44EACD
:1019A0000C0422F4007C0D894FF6FF7202EA052533
:1019B00045EA0C0C4D8802EA052545EA0C0CA0F11D
:1019C0008045B5F596351CBFA0F18045B5F59A3533
:1019D00017D14D892CF4006C02EA052545EA0C0C60
:1019E0008D882CF4806C02EA052545EA0C0C8D8963
:1019F00023F4405302EA05152B43CD8902EA051270
:101A0000134383808483C9888187A0F820C030BCB9
:101A1000704730B4028C22F480520284048C828895
:101A2000838B0D8823F4E64C4FF6FF7303EA0525FC
:101A300045EA0C0C0D8924F4005403EA05352C43C7
:101A40004D8803EA05352C43A0F18045B5F5963560
:101A50001CBFA0F18045B5F59A3505D18D8922F4DA
:101A6000804203EA85131A438280A0F81CC0C9880B
:101A7000A0F84010048430BC7047828B22F440628E
:101A80008283828B4FF6FF7303EA01211143818326
:101A90007047828B22F00C028283828B11438183F8
:101AA0007047028B22F440620283028B4FF6FF7371
:101AB00003EA0121114301837047028B22F00C02DB
:101AC0000283028B11430183704770B40D884C88E8
:101AD000B1F804C00B894FF6FF7255B3042D44D002
:101AE000082D058C67D025F480550584868B058CE0
:101AF00026F4734602EA0C2C4CEA060C02EA033385
:101B000043EA0C0302EA043425F4005C4CEA040CBA
:101B10004CF4805C8383A0F820C08979838B23F404
:101B200040638383838B02EA01211943818370BC64
:101B30007047058C25F001050584068B058C02EAAB
:101B4000031226F0F30642EA0C02324325F00203A8
:101B5000234343F0010302830384C988028B22F0EC
:101B60000C020283028B114322E0058C25F0100544
:101B70000584068B058C26F4734602EA033333434F
:101B800002EA0C2C4CEA030302EA041425F0200CB0
:101B90004CEA040C4CF0100C0383A0F820C08979A7
:101BA000038B23F440630383038B02EA012119436F
:101BB000018370BC704725F480750584868B058C85
:101BC00002EA042402EA031226F0F30642EA0C02B7
:101BD000324325F40073234343F4807382830384E8
:101BE000C98803E0002C014000340140828B22F0C0
:101BF0000C028283828B114398E72DE9F0014E8815
:101C000000230122002E08BF02238D88012D08BF6A
:101C100002220F880C89002F078C4FF6FF7C42D0E0
:101C200027F010070784B0F81880078C28F4734851
:101C30000CEA043444EA08040CEA05252C430CEAB7
:101C4000061627F02005354345F01005048305846A
:101C50008C79058B25F440650583058B0CEA0424FB
:101C60002C4304830C89058C25F001050584068B23
:101C7000058C0CEA041C4CEA020226F0F30625F05F
:101C8000020C32434CEA030343F001030283038452
:101C9000C988028B22F00C020283028B114301835C
:101CA000BDE8F001704727F001070784078BB0F803
:101CB00020800CEA04142C4327F0F3073C4328F05F
:101CC0000205354345F0010504830584CC88058B66
:101CD00025F00C050583058B2C4304830C7A058CB9
:101CE00025F010050584058B068C25F473450CEA58
:101CF00004342C430CEA022222430CEA031326F09C
:101D00002004234343F01003028303848979028B68
:101D100022F440620283028B0CEA01211143018309
:101D2000BDE8F00170470A884B88B1F806C01A4335
:101D30008B8843EA0C031A430B891A434B89898920
:101D40001A431143A0F8441070474FF6FF71818089
:101D500000210180C1804180017270470021018013
:101D600041808180C180018141818181C181704731
:101D700000210180418001228280C1800181704761
:101D80000021018041808180C18001814181818168
:101D900070470029018814BF41F0010121F00101C1
:101DA000018070470029B0F8441014BF41F400418D
:101DB000C1F30E01A0F844107047002A828914BFB5
:101DC000114322EA010181817047818270471143EA
:101DD000A0F848107047002A828914BF114322EAF4
:101DE000010181817047018921F00701018170475C
:101DF000028922F07002114301817047028922F0AA
:101E0000700211430181018941F00701018170478E
:101E100030B4048C4FF6FF7C60291ED024F00104FE
:101E20000484058B048C0CEA031325F0F30543F0BE
:101E3000010324F0020C2B434CEA020242F001029F
:101E400003830284028922F0700211430181018917
:101E500041F00701018130BC704724F01004048474
:101E6000058B048C0CEA03330CEA021225F473454B
:101E70002B4324F0200C43F480734CEA020242F01E
:101E8000100203830284DDE710B4B0F808C04FF6F7
:101E9000FF7404EA03231A430CF0FF0C114341EAD8
:101EA0000C01018110BC704710B4B0F808C04FF6A7
:101EB000FF7404EA03231A430CF0FF0C114341EAB8
:101EC0000C010181018941F07701018110BC70474B
:101ED00010B4B0F808C04FF6FF7404EA03231A43A5
:101EE0000CF0FF0C114341EA0C010181018941F41E
:101EF0008041018110BC7047018582827047028851
:101F000022F0700211430180704730B40589B0F8A7
:101F100018C0048C25F0070529432CF0030C2CF481
:101F2000407C40F201154CEA050C4FF6FF7505EABE
:101F3000031324F022041A4322430181A0F818C09D
:101F4000028430BC7047028B22F07002114301837F
:101F50007047028B4FF6FF7322F4E04203EA01213F
:101F6000114301837047828B22F0700211438183F9
:101F70007047828B4FF6FF7322F4E04203EA01219F
:101F80001143818370470029018814BF41F080010B
:101F900021F08001018070470029818814BF41F041
:101FA000040121F00401818070470029818814BF59
:101FB00041F0080121F008018180704700298188E3
:101FC00014BF41F0010121F0010181807047028BB3
:101FD00022F00802114301837047028B4FF6FF7312
:101FE00022F4006203EA0121114301837047828BCE
:101FF00022F00802114381837047828B4FF6FF73F2
:1020000022F4006203EA0121114381837047028BAD
:1020100022F00402114301837047028B4FF6FF73D5
:1020200022F4806203EA0121114301837047828B0D
:1020300022F00402114381837047828B4FF6FF73B5
:1020400022F4806203EA0121114381837047028BED
:1020500022F08002114301837047028B4FF6FF7319
:10206000C2F30E0203EA0121114301837047828B00
:1020700022F08002114381837047828B4FF6FF73F9
:10208000C2F30E0203EA0121114381837047028CDF
:1020900022F00202114301847047028C22F00802F0
:1020A000114301847047028C4FF6FF7322F0200227
:1020B00003EA0111114301847047028C4FF6FF734C
:1020C00022F0800203EA0111114301847047028C5F
:1020D0004FF6FF7322F4007203EA012111430184D9
:1020E0007047028C4FF6FF7322F4006203EA01216D
:1020F000114301847047028C4FF6FF7322F40052A3
:1021000003EA01311143018470470123B0F820C074
:102110008B402CEA03030384038C02FA01F1194378
:10212000018470470423B0F820C08B402CEA0303DD
:102130000384038C02FA01F119430184704710B43F
:102140004FF0010C048C00F118030CFA01FC24EA96
:102150000C0CA0F820C0002918BF082910D0081FB7
:10216000C0F34E001844016821F4E04101600168A9
:102170004FF6FF7303EA02221143016010BC70475F
:1021800003EB5100016821F0700101600168114307
:10219000016010BC70470029018814BF41F00201A2
:1021A00021F00201018070470029018814BF41F02D
:1021B000040121F00401018070470029818814BFC7
:1021C00041F0800121F0800181807047028822F077
:1021D000080202800288114301807047828822F041
:1021E000700282808288114381807047028922F0C8
:1021F000070202810289114301817047028922F09E
:1022000080020281028911430181704781847047F5
:102210008185704781867047018770478187704745
:10222000A0F840107047028822F4407202800288B1
:10223000114301807047808E7047008F7047808FF8
:102240007047B0F840007047808C7047008D704731
:1022500002460020128A0A4218BF01207047C94373
:1022600001827047038A002280890B4200EA010044
:102270001CBF0028012210467047C94301827047E5
:102280003B4900200860091D0860091D0860091D00
:102290000860394937480860704782790168002A28
:1022A00035D0334A136823EA01011160111D0A6811
:1022B00003689A430A60017901F1804101F5823196
:1022C0000A6803681A430A602C490A6803689A433B
:1022D0000A600B1D1A68D0F800C022EA0C021A60CE
:1022E0004279102A08D002F1804202F58232116848
:1022F00000680843106070470A68D0F800C042EADE
:102300000C020A6019680068084318607047007979
:1023100000F1804000F58230026822EA010101608C
:1023200070470021016001710C2242718171704778
:1023300013490A681043086070470F4A014600209D
:1023400012680A4218BF012070470B4908607047A5
:10235000074A00211268084B02401B6803421CBF59
:10236000002A0121084670470349086070470000B1
:1023700000040140FFFF0F00140401400804014065
:10238000100401403048016821F00F01016001682C
:1023900041F00F01016070472C48016821F0F00105
:1023A0000160016841F0B001016070472848016890
:1023B0006FF30B010160016840F277721143016015
:1023C0002248016821F0F0010160016841F0B0018C
:1023D0000160001D016821F00F010160016841F0FA
:1023E0000F01016070471848016821F00F0101607A
:1023F000016841F00401016070471448016821F050
:10240000F0010160016841F040010160704710482F
:1024100001686FF30B010160016840F2444211430F
:1024200001600A48016821F0F0010160016841F093
:1024300040010160001D016821F00F010160016889
:1024400041F00401016070470408014000080140A8
:10245000040C014010B5FF4C86B000212046FFF768
:1024600003F86846FEF7F4FFE014ADF8040069468F
:102470002046FEF7C3FFA08840F0C300A0800121E2
:102480002046FEF7F1FF06B010BD10B5F24C8CB03F
:102490002046FFF7B1F8F14801901021F048029171
:1024A0000391009000218020CDE9041040000690A7
:1024B0008000079020200890C001CDE909016946FD
:1024C0002046FFF7FFF8012204212046FFF739F9E3
:1024D000012202212046FFF734F901212046FFF7AF
:1024E00027F90CB010BD10B5DE4C8CB02046FFF7BC
:1024F00083F8DD480090DD480021CDE9010110207E
:10250000CDE90301802005904000069080000790EF
:1025100020200890C001CDE9090169462046FFF757
:10252000D1F8012204212046FFF70BF901220221F4
:102530002046FFF706F901212046FFF7F9F80CB015
:1025400010BD2DE9F043DFF828938DB04846FFF722
:1025500053F8C84D102000240095CDE90140070133
:1025600004A880264FF480680394A0E8D001681482
:10257000CDE90840694648460A94FFF7A3F80122CE
:1025800002214846FFF7DDF8DFF8EC924846FFF7F6
:1025900033F8CDE9005404A802940394A0E8D001D4
:1025A0004FF44050CDE90840694648460A94FFF789
:1025B00089F8012202214846FFF7C3F80D208DF863
:1025C0002C0001248DF82D408DF82E408DF82F40E1
:1025D0000BA8FEF7BAFF0C208DF82C0002208DF816
:1025E0002D008DF82E008DF82F400BA8FEF7ADFFC3
:1025F0000DB0BDE8F0832DE9F041A0484CF6FE2671
:102600000121068041809E49002404270A88028116
:10261000498841818481C4819A4840F24C410680B6
:1026200047804481984800F093FD974D40F24C411B
:1026300005F2544000F08CFD284600F25441A0F809
:102640004C7480F84E44C0F850142E800320A1F240
:1026500054426880A2F8A07882F8A248C2F8A45830
:102660000E80A1F25441A1F8560488480560BDE8E7
:10267000F08170B5864C84B00121204600F0E8FA64
:10268000844D0121284600F0E3FA834E01213046B3
:1026900000F0DEFA00214FF496400090ADF80810EB
:1026A000ADF804100C20ADF80610ADF80A00ADF836
:1026B0000C106946204600F051FA41F68460009003
:1026C0006946284600F04AFA6946304600F046FA64
:1026D000012240F22551204600F0C3FA012240F2C7
:1026E0002551284600F0BDFA012240F2255130461E
:1026F00000F0B7FA69482021016040210160802183
:10270000016004B070BD2DE9F04F654C8DB060697B
:1027100040F001006061E06940F0070040F4C02033
:10272000E061A06945F60C010843A0615D480168BD
:1027300001F07041016001685B4A1143016001686A
:1027400021F4706121F070410160016841F4006181
:1027500041F000410160554984200860544900203F
:1027600008705449012008705349002008705349EB
:102770000870FFF74CFE524800685149C0B208602B
:102780000868504908434E490860081D0068091D43
:1027900020F47F600860086840F4966008604A484A
:1027A000016821F0F0210160016841F4804141F0AD
:1027B00040510160A06940F00100A061434DA414A4
:1027C000AC60434908200860091D08604149086061
:1027D00009208DF8000001208DF801008DF802001D
:1027E0008DF803006846FEF7B0FE686840F00070A0
:1027F0006860686840F400606860FEF7FFFCFEF700
:1028000081FDDFF860A05046FEF7F6FE1648019005
:102810001648029000201025CDE90305202705A9C0
:1028200080264FF480784FF480690997A1E841032E
:10283000CDE90A4001A95046FEF744FF01220421D8
:102840005046FEF77EFF012202215046FEF779FF37
:10285000012141E0003001405800024014090020ED
:102860004C2C01406C0002404C0400403409002014
:10287000300002400C3001401C000240540900208E
:1028800000000020740900206C00002030000020AF
:1028900000380140004400400048004004E100E0EE
:1028A00000100240000C014044444404100C01405C
:1028B0000B0000200C0000200D0000200E00002066
:1028C00000080140004BBBBB040C0140000001406C
:1028D000000401400C0401405046FEF729FFF0229D
:1028E00043F69821604800F02BFC604901200870F5
:1028F0005F4908705F490870DFF87CA100215046ED
:10290000FEF7B2FD01A8FEF7A3FD6010ADF80800C8
:1029100001A95046FEF772FDBAF8040040F0C3006A
:10292000AAF8040001215046FEF79EFDFFF709FEBC
:10293000DFF848A10821AAF102000722428020F80E
:10294000042F491EFAD1FEF796FCDFF834B1584641
:10295000FEF752FECDE902A54A480495019005A96B
:1029600000250997A1E8600301A95846CDE90A4569
:10297000FEF7A8FE012204215846FEF7E2FE0122DE
:1029800002215846FEF7DDFE01215846FEF7D0FE33
:10299000FEF7EEFC3C4805803C48457005703C491C
:1029A000FF200870487088703A494D703A490D70A0
:1029B0004D703A490870487039480580394805809B
:1029C000394C0121204600F043F9DFF8E080012175
:1029D000404600F03DF9DFF8D8900121484600F06C
:1029E00037F94FF496400290ADF810500C20ADF836
:1029F0000C50ADF81200ADF80E50ADF8145002A90D
:102A0000204600F0ABF841F68460029002A94046EF
:102A100000F0A4F802A9484600F0A0F8012240F214
:102A20002551204600F01DF9012240F22551404673
:102A300000F017F9012240F22551484600F011F943
:102A40001C4807604021016006600DB0BDE8F08FB2
:102A50004FF400714FF0E022002814BFC2F880113B
:102A6000C2F8001170470000800900200700002014
:102A70000800002009000020003001401409002057
:102A8000580002404C2C01401A0000202000002079
:102A90002D0000202600002022000020240000201D
:102AA00016000020280000200038014000440040AB
:102AB0000048004004E100E010B5A0F18041B1F50C
:102AC0009C310AD10121880300F0D8FABDE81040FA
:102AD00000214FF4804000F0D1BAA0F18041B1F55F
:102AE00088410AD10121480400F0D1FABDE8104024
:102AF00000214FF4003000F0CABAA0F18041B1F5D6
:102B000090410AD10121880400F0C1FABDE81040CB
:102B100000214FF4802000F0BABAA0F18041B1F555
:102B200098410AD10121C80400F0B1FABDE8104073
:102B300000214FF4002000F0AABAA0F18041B1F5C5
:102B4000A04118BF10BD0121080500F0A0FABDE8A2
:102B5000104000214FF4801000F099BA30B50446BF
:102B6000008A85B00D464CF6FF710840E98808439D
:102B70002082A0894EF6F3110840A9882A891143C2
:102B80006A8910430843A081A08A4FF6FF4108409C
:102B9000A9890843A082684600F009FAA4F18040A0
:102BA000B0F59C300CBF03980298A18911F4004F36
:102BB00000EBC00101EB0010296814BF4900890037
:102BC000B0FBF1F0954A6FF0180CA2FB00314909F7
:102BD00009010B0903FB0CF300EB8300A38913F439
:102BE000004F4FF0320314BF03EBC00003EB0010A3
:102BF000A2FB00204FEA501014BF00F0070000F0C5
:102C00000F000843208105B030BD4FF4165101601C
:102C100000218180C18001810C2242818181704725
:102C2000028A4FF2FF031A400B88B1F802C043EA50
:102C30000C03B1F804C0C9884CEA010119431143DF
:102C4000018270470021018041808180C1807047EE
:102C50000029818914BF41F4005121F40051818180
:102C60007047C1F3421301F01F014FF0010C0CFA41
:102C700001F1012B08BF0C3003D0022B0CBF103028
:102C80001430002A026814BF114322EA01010160D6
:102C90007047002A828A14BF114322EA010181820F
:102CA0007047028A22F00F020282028A11430182D7
:102CB0007047828922F40062828182891143818176
:102CC00070470029818914BF41F0020121F00201FF
:102CD00081817047028A22F020020282028A114317
:102CE000018270470029018A14BF41F4804121F418
:102CF000804101827047C1F308018180704780885C
:102D0000C0F308007047818941F00101818170475B
:102D1000028BD2B20283028B42EA01210183704707
:102D2000028B02F47F420283028B114301837047BE
:102D30000029818A14BF41F0200121F02001818205
:102D400070470029818A14BF41F0100121F0100161
:102D5000818270470029818A14BF41F0080121F067
:102D60000801818270470029818914BF41F4004124
:102D7000C1F30E01818170470029818A14BF41F49B
:102D8000006121F4006181827047828A22F004028E
:102D90008282828A1143818270470029818A14BF0E
:102DA00041F0020121F002018182704702460020B9
:102DB00012880A4218BF01207047C943018070473A
:102DC00010B401F01F0201240023C1F3421C04FAD5
:102DD00002F2BCF1010F04BFB0F80CC00CEA020211
:102DE00008D0BCF1020F0CBFB0F810C0B0F814C08E
:102DF0000CEA0202090A008804FA01F10840002ADC
:102E00001CBF00280123184610BC7047090A012284
:102E100002FA01F1C9430180704700001F85EB51A0
:102E2000AC48016841F0010101604168AA4A1140C3
:102E30004160016821F4102121F080710160016876
:102E400021F480210160416821F4FE0141604FF4CA
:102E50001F01816070479F490A6822F480320A602E
:102E60000A6822F480220A60B0F5803F04BF086837
:102E700040F4803006D0B0F5802F06BF086840F4DB
:102E8000A020704708607047002243099149012B38
:102E900008BF096803D0022B0CBF096A496A00F019
:102EA0001F00012303FA00F0084218BF0122104658
:102EB000704781B000208749009000200A6812F412
:102EC000003F18BF0120009A521C0092B2F5A06F7B
:102ED00001D00028F1D0086810F4003018BF01209C
:102EE00001B070477B490A6822F0F80242EAC0004C
:102EF00008607047794908607047764A536808430C
:102F000023F47C1318435060704774490866704777
:102F100070494A6822F003021043486070476D48C8
:102F2000406800F00C0070476A494A6822F0F002DD
:102F300010434860704767494A6822F4E0621043D2
:102F40004860704763494A6822F4605242EAC00010
:102F5000486070475F4A0029517A14BF084321EA4C
:102F60000000507270475E490860704759494A68CE
:102F700022F440421043486070475649002281F8CD
:102F8000202081F82020012803D004280CBF052030
:102F9000704781F8200070475249086070474D49DA
:102FA0000A6A1043086270474F49086070474949F0
:102FB00010B44A6812F00C034C4A18BF042B01D01D
:102FC000082B01D0026015E04A684B6802F47012C9
:102FD0004FF0020C13F4803F0CEB924203D04B688D
:102FE00013F4003F03D0424B5A43026002E03F4BD0
:102FF0005A4302604A680F2303EA12123D4B9A5C5F
:10300000D0F800C02CFA02F24260D1F804C00724C4
:1030100004EA1C2C13F80CC022FA0CFCC0F808C0FF
:10302000D1F804C004EADC2C13F80C30DA40C2609A
:103030004968032303EA91312F4B595CB2FBF1F14C
:10304000016110BC7047234A0029516914BF08432D
:1030500021EA0000506170471E4A0029916914BF9F
:10306000084321EA0000906170471A4A0029D1699B
:1030700014BF084321EA0000D0617047154A0029B7
:10308000D16814BF084321EA0000D0607047114A9C
:103090000029116914BF084321EA0000106170473C
:1030A0001649086070470D49C86470470949C871DE
:1030B00070470848416A41F0807141627047054A93
:1030C0000146002092680A4218BF0120704701495A
:1030D00088727047001002400000FFF80000424272
:1030E000D8004242800442423C04424200127A002C
:1030F00000093D005A0000205600002040044242D2
:103100000948804709480047FEE7FEE7FEE7FEE77B
:10311000FEE7FEE7FEE7FEE7FEE7FEE704480549B7
:10312000054A064B70470000A5100008ED00000896
:1031300000450020004B00200047002000470020F1
:1031400002F0FF0343EA032242EA024200F02CB8F5
:103150004FF0000200B5134694469646203922BF30
:10316000A0E80C50A0E80C50B1F12001BFF4F7AF7B
:10317000090728BFA0E80C5048BF0CC05DF804EB5D
:10318000890028BF40F8042B08BF704748BF20F8CB
:10319000022B11F0804F18BF00F8012B70477047C9
:1031A000704770474FF000020429C0F0128010F001
:1031B000030C3FF4CFAFCCF1040CBCF1020F18BFED
:1031C00000F8012BA8BF20F8022BA1EB0C01FFF7A0
:1031D000C1BF5FEAC17C24BF00F8012B00F8012BBE
:1031E00048BF00F8012B7047754600F029F8AE463D
:1031F00005006946534620F00700854618B020B503
:10320000FFF78CFFBDE820404FF000064FF00007AD
:103210004FF000084FF0000B21F00701AC46ACE87E
:10322000C009ACE8C009ACE8C009ACE8C0098D46EB
:1032300070470446AFF300802046FCF79EFF000075
:1032400000487047A044002001491820ABBEFEE7AB
:1032500026000200704700007832000800000020BD
:103260006C00000028010008E43200086C00002017
:10327000944A00004401000817F013040000000005
:10328000000000000000000000000000000000003E
:10329000000000000000000000000000000000002E
:1032A0000000A96A96000000000000000000000075
:1032B000070007000B000F0000A24A0400000000F6
:1032C00000000000010203040607080900000204D0
:1032D00006080000000001020304010203040607BF
:0432E00008090000D9
:0400000508003101BD
:00000001FF
