:020000040800F2
:1000000078480020652400086D2400086F2400084B
:100010007124000873240008752400080000000003
:10002000000000000000000000000000772400082D
:1000300079240008000000007B2400087D240008CB
:100040007F2400087F2400087F2400087F24000804
:100050007F2400087F2400087F2400087F240008F4
:100060007F240008790700087F2400087F24000807
:100070004F070008190700087F2400087F240008A4
:100080007F2400087F2400087F2400087F240008C4
:100090007F2400087F2400087F2400087F240008B4
:1000A0007F2400087F2400087F2400087F240008A4
:1000B0007F2400087F2400087F2400087F24000894
:1000C0007F2400087F2400087F2400087F24000884
:1000D0007F240008A524000831250008E325000836
:1000E0007F2400087F2400087F24000800F002F825
:1000F00000F03AF80AA090E8000C82448344AAF188
:100100000107DA4501D100F02FF8AFF2090EBAE885
:100110000F0013F0010F18BFFB1A43F0010318473B
:100120005C2800007C280000103A24BF78C878C101
:10013000FAD8520724BF30C830C144BF04680C60ED
:10014000704700000023002400250026103A28BF35
:1001500078C1FBD8520728BF30C148BF0B60704739
:100160001FB51FBD10B510BD02F0D1FB1146FFF742
:10017000F7FF00F045F902F0EFFB03B4FFF7F2FFE1
:1001800003BC02F0F3FB00000020FF4A072122F825
:100190001010401C1028FADB704770B5FB490B7833
:1001A000FB4A137049785170FA490025FA4B0D80CB
:1001B000FA4EFB4CFB4930B1188823381880FF20D9
:1001C000087048700DE0F8480088188010780B78A7
:1001D000984206D150784978884202D135706570CE
:1001E00070BD01233370FFF7CFFF637070BDF0B5B2
:1001F000EE4843F2E855EE4EEE4B01682A461924CC
:10020000521E1204120C29D01F88C85DF02825D078
:100210007F1CBFB21F80AF4200D31C800028EFD0EC
:1002200050281CD118880F5C401C80B23770188091
:10023000A84200D31C8018880F5C401C80B27770E5
:100240001880A84200D31C8018880F5C401C80B224
:10025000B7701880A842D3D31C80D1E75520F0BDD9
:10026000F0B5D54800250168890300D508254FF46D
:10027000C02141600024D14EC34F02E00CB1042CD8
:1002800001D1FFF7B4FF8109800616F8111027F895
:1002900015106D1C641C000EE4B2ADB2082CEDD339
:1002A000F0BDC7480178C74831B1C749097831B1B5
:1002B0004FF4A041018070474FF6FF71FAE74FF409
:1002C0004051F7E730B5C1484FF48071C14A057815
:1002D000BF484C00131F00782DB108B1196000E031
:1002E0001160146030BD08B1116000E019601C603D
:1002F00030BDF0B510F00F0F21D107110021B44A25
:100300000120B24CB04DAE4E0C2F18D2DFE807F0F2
:100310001706080A0E1715181A171C1E117002E08E
:10032000107000E02170BDE8F040CBE72070FFF7CF
:10033000C9FFBDE8F04001202FE7A7490870F0BDD4
:10034000297004E0287002E0307000E03170BDE8F0
:10035000F040A6E72DE9F04188801F4615460E467D
:100360000446CA8000F0FEFB88B300209B49087059
:100370009148016B21F001010163C16921F0010184
:10038000C16197490A89D20700D089890CB300213D
:10039000944A1170FDB10021934A1170934A0021D3
:1003A0001170C663446387620562016B41F001010D
:1003B0000163C16941F00101C16124B185494FF474
:1003C0000040091F0860BDE8F04100F0C5BB0120F6
:1003D000CCE70121DCE70121DEE7854843F2E75164
:1003E000744A4089884201D3192007E04FF08041C8
:1003F000898C48434FF4C871B0FBF1F0108070470E
:100400007A4C4FF00108002584F80080674978484D
:100410002E46086077480580DFF8DCA1DFF8B8B128
:100420008AF800508BF800505C48057000F072FAB2
:1004300001F07EFB01F006FC704802F02BF97048D9
:1004400002F028F9FFF72DFF62494FF44070091FB1
:10045000086041005F4801604FF400410160FFF710
:1004600031FF0120FFF799FE4D4FB87810B1BE70F3
:10047000FFF7B3FF387808B1787840B1F87810B159
:1004800001F06EFAFE70594C207840B12DE0F878FA
:100490000028F8D101F03FFA87F80380F3E700F075
:1004A00061FB10B34B494FF4004008604248016BB8
:1004B00021F001010163C16921F00101C161002145
:1004C000474800F093FB4F48C16841F48051C16038
:1004D000C16821F48051C16001F05FFA787810B1F1
:1004E0007E7087F8028084F800802078A14688B367
:1004F0009BF800005C4668B13448017811B1067081
:10050000FFF7E0FE0822404B40491046FFF722FF6C
:10051000267036E021490878E8B1234800881E4A51
:100520001288801A80B21E282BD30E7018480278C9
:100530001C490A7042784A70017840782C4B41EA95
:100540000020334941F6F42208810620FFF702FF1C
:1005500087F8018015E02F4C216891F8160580B1CD
:10056000B1F814052C4B0122FFF7F4FE206804219A
:1005700080F81665D0F81805206080F81665A0F898
:10058000141599F8000049E0CC0A00206100002011
:1005900063000020440000206A0000205300002077
:1005A0007100002065000020240800405400002055
:1005B0004C000020580000200000024002000020F3
:1005C0006E000020500000206D0000206F00002011
:1005D00070000020140C0140520000206C0000202C
:1005E000003001405F000020600000205E0000201D
:1005F000980B00205C000020750000208041002046
:10060000CC410020001002407C0B00206C0B00202D
:100610008C0B0020480000205A000020012816D131
:1006200072480188F02912D00024814639F814005C
:10063000010A00F0FF0C0846FFF75BFE6046FFF77B
:1006400058FE641C082CF1DBF021A9F80010684862
:10065000006884B267480088044205D000203870E2
:1006600014F0800F02D008E00120F8E702F040F813
:100670009AF80010491C8AF800105F48006810F4CE
:10068000C02F01D0FFF7ECFD4FF08040018AC90771
:100690002ED04FF6FE7101825848192101809AF838
:1006A000001021B18AF800600120FFF776FD54495F
:1006B0000888401C80B2088002280CD35148524957
:1006C00042780B789A4203D100784978884202D068
:1006D0000020FFF762FD4B48FF2141700170FFF7DA
:1006E00053FD6D1CEDB2052D02D100258BF8008065
:1006F000E0043FF5B9AE44F38010434C401C6070F9
:10070000424F7878617888423FF4AEAE0020FFF720
:1007100044FD60787870A7E610B54FF4007000F0E3
:10072000FAFB33494FF400400C310860384801218E
:10073000017038480078012808D1374801703748DF
:100740004278002A02D000224270817010BD10B59C
:10075000202000F0E0FB2F49012008702C49097887
:10076000012908D12C4908702C494A78002A02D066
:1007700000224A70887010BD10B5082001F0A0F862
:10078000002829D0082001F0A9F81948006882B291
:1007900023480188234B1888081A80B2FF2801D803
:1007A000022819D31980D00416D4174C500720788A
:1007B00003D550B12078401E03E0552805D220789B
:1007C000401C20700020FFF7E8FC21784FF4806087
:1007D00019B107490831086010BD05490C31FAE725
:1007E00005494FF4C0204860CEE400007C0B002097
:1007F000080C01405000002000000240580000207A
:10080000440000204C000020610000206700002010
:100810005F000020600000205E00002071000020CA
:1008200024080040000000200CB500224F48009230
:100830000192016841F4803101604FF4A0630168C6
:1008400001F4003101910099491C0091019911B9FD
:1008500000999942F3D10168890302D501210191E0
:1008600000E0019242490A6842F010020A600A68F8
:1008700022F003020A600A6842F002020A6041683C
:10088000416041684160416841F480614160019983
:100890000029416821F47C114160416802D041F493
:1008A000E81101E041F460114160016841F080719C
:1008B000016001688901FCD5416821F003014160B4
:1008C000416841F0020141604168C1F381010229A0
:1008D000FAD10CBD254810B5016841F00101016055
:1008E0004168244A114041600168234A1140016077
:1008F000016821F480210160416821F4FE0141601A
:100900004FF41F018160FFF78FFF1C494FF000601B
:10091000086010BD154A10B55068194B10F00C0155
:10092000184803D0042901D0082901D0036012E03F
:100930005168536801F470114FF0020413F4803FC2
:1009400004EB914102D053689B0301D50E4B00E0AC
:100950000B4B5943016051680A4AC1F30311121D40
:10096000515C0268CA40026010BD000000100240E5
:10097000002002400000FFF8FFFFF6FE08ED00E057
:1009800000127A000C00002000093D0030B57C48C0
:100990004FF4FA6187B000680024B0FBF1F0401E0C
:1009A00040F28F11ADF80410ADF800004FF0804513
:1009B000ADF80640ADF802408DF80840694628467B
:1009C00000F0B8FA6021ADF80C100120ADF80E006F
:1009D0000A20ADF81200ADF8144003A9284600F033
:1009E00017FB0821284600F0ACFD0121284600F045
:1009F0007AFD0121284600F0C0FC0122114628465C
:100A000000F0D0FC07B030BD10B55D485D4988B03E
:100A100000685D4CB0FBF1F0401EADF8000007210E
:100A20000020ADF80410ADF80600ADF802008DF816
:100A300008006946204600F07DFA6020ADF80C0001
:100A400001210220ADF80E10ADF81210ADF814001F
:100A500003A9204600F0A7FA0821204600F06BFD0C
:100A60000021204600F03FFD01221146204600F003
:100A700099FC45480B214830018081150122204610
:100A800000F090FC40494FF40040443108800121BF
:100A9000204600F072FC08B010BD30B538483B4924
:100AA00087B000680024B0FBF1F0401E4FF6FF71E4
:100AB000ADF80410ADF80000354DADF80640ADF8C6
:100AC00002408DF808406946284600F033FA0021BC
:100AD000284600F008FDADF80C400220ADF80E00ED
:100AE0000120ADF81000ADF81240ADF8144003A994
:100AF000284600F073FB26490D204831088001226A
:100B00004915284600F04EFC0121284600F035FC2E
:100B100078E73EB51A484FF4FA611E4C0068B0FB06
:100B2000F1F0401EADF800004FF6FF710020ADF867
:100B30000410ADF80600ADF802008DF80800694613
:100B4000204600F0F7F90021204600F0CCFC0121FE
:100B5000204600F012FC3EBD0E48243000880E49AD
:100B6000088070470B48243000880B490988401AD8
:100B700080B2B0F5FA6F01D90120704700207047AC
:100B80000C00002080841E00002C014000127A001E
:100B900000040040000800402000002030B502881A
:100BA0004C8802F441530A88CD8822438C882C4318
:100BB00022430C8922434C8922438C892243CC89CD
:100BC00022431A430280828B22F400628283098AC4
:100BD000018230BD0021018041808180C18001817E
:100BE00041818181C18107210182704700290188EB
:100BF00002D041F0400101E021F040010180704746
:100C0000090901238B40002A828899B201D00A4346
:100C100000E08A4382807047002A828801D00A431C
:100C200000E08A43828070478181704780897047E5
:100C3000A1F57E420188FF3A02D041F4807101E0C3
:100C400021F48071018070470029818802D041F031
:100C5000040101E021F0040181807047028822F440
:100C60000062028002880A4302807047B1F5804F1B
:100C7000018803D021F480410180704741F4804114
:100C8000FAE70246002012890A4200D0012070478C
:100C9000C9430181704730B501F00F0301250246B9
:100CA00005FA03F40020A3B2090905FA01F49188BA
:100CB000A4B2128921401A4202D0002900D001209A
:100CC00030BD00002749084327490860704770B5C8
:100CD0000F23C278017801244FF0E025DAB1224ACF
:100CE000126802F4E062C2F5E062120AC2F1040680
:100CF000D3404278B24086781E401C4B16433201E6
:100D0000CA54007800F01F018C40400905EB8000B8
:100D1000C0F8004170BD01F01F008440480905EB98
:100D20008000C0F8804170BD114A114001430E4857
:100D3000001F016070470C4A121D0029116801D084
:100D4000014300E08143116070474FF0E021042827
:100D5000086903D020F004000861704740F00400E7
:100D6000FAE700000000FA050CED00E000E400E006
:100D700080FFFF1F016821F0010101600021016077
:100D800041608160C1606949684A0839904203D175
:100D9000486840F00F0006E0644A1432904204D1E3
:100DA000486840F0F00048607047604A283290423E
:100DB00003D1486840F47060F5E75C4A3C329042E9
:100DC00003D1486840F47040EDE7584A50329042F1
:100DD00003D1486840F47020E5E7544A64329042F9
:100DE00003D1486840F47000DDE7504A7832904201
:100DF00003D1486840F07060D5E74D4A111F90421A
:100E000003D1086840F00F0006E0494A14329042CE
:100E100004D1086840F0F00008607047444A283266
:100E2000904203D1086840F47060F5E7404A3C32D4
:100E3000904203D1086840F47040EDE73C4A5032DC
:100E40009042EAD1086840F47020E5E730B50268C6
:100E500047F6F0739A430C6A8B682343D1E9044543
:100E60002C4323438C692343CC6923434C6A23439B
:100E70008C6A234313430360CA6842600A68826035
:100E80004968C16030BD0021016041608160C1607E
:100E9000016141618161C1610162416281627047AA
:100EA0000029016802D041F0010101E021F00101B7
:100EB00001607047002A026801D00A4300E08A43BB
:100EC00002607047406880B2704702460020D1003F
:100ED00002D51749083901E0144908390968114257
:100EE00000D001207047C10003D51149091F0860D7
:100EF00070470E4908394860704702460020D1000B
:100F000002D50B49083901E008490839096811423E
:100F100000D001207047C10003D50549091F0860B2
:100F200070470249083948607047000008000240D5
:100F30000804024030B50288F84CF94DA0420DD0AB
:100F4000A8420BD0B0F1804F08D0F64B984205D0A4
:100F5000F54B984202D0F54B984203D122F0700332
:100F60004A881A43F24B984206D0F24B984203D07B
:100F700022F44073CA881A4302808A8882850A88CC
:100F80000285A0420AD0A84208D0EB4A904205D080
:100F9000EA4A904202D0EA4A904201D1097A018697
:100FA0000121818230BD30B5028C22F00102028421
:100FB000028C8388048B22F0020224F073050C88D3
:100FC0002C430D8915434A882A43D44DA8420BD09F
:100FD000D34DA84208D0D84DA84205D0D74DA8423D
:100FE00002D0D74DA8420DD122F008054A8923F43A
:100FF00040732A4322F004058A882A438D891D43C1
:10100000CB892B4383800483C9888186028430BDC9
:1010100070B5028C22F010020284028C8388048B4B
:101020000D8824F4E6464FF6FF7404EA052535439F
:101030000E8922F0200204EA061616434A8804EAC2
:1010400002123243B54EB04202D0B54EB04215D175
:1010500022F080064A8923F4406304EA02123243F4
:1010600022F040068A8804EA021232438E8904EA9A
:1010700086061E43CB8904EA8303334383800583BA
:10108000C9880187028470BD70B5028C22F4807219
:101090000284028C8388848B0D8824F0730425439A
:1010A0000E894FF6FF7422F4007204EA06261643F6
:1010B0004A8804EA02223243984EB04202D0984E47
:1010C000B04215D122F400664A8923F4405304EA61
:1010D0000222324322F480668A8804EA02223243E2
:1010E0008E8904EA06161E43CB8904EA03133343B0
:1010F00083808583C9888187028470BD70B5028C26
:1011000022F480520284058C8288838B0C8823F41D
:10111000E6464FF6FF7303EA0424344325F40056F1
:101120000D8903EA053535434E8803EA06362E431A
:101130007A4DA84202D07A4DA84205D122F48045CA
:101140008A8903EA82122A4382808483C988A0F8AC
:101150004010068470BD828B22F440628283828BB1
:101160004FF6FF7303EA01210A4382837047828BA3
:1011700022F00C028283828B0A4382837047028BA7
:1011800022F440620283028B4FF6FF7303EA0121CF
:101190000A4302837047F0B5048C24F010040484E1
:1011A000078B068C4FF6FF7404EA011527F473478A
:1011B00004EA0331394304EA02220A4326F02001FB
:1011C000294341F0100102830184F0BD028B22F01B
:1011D0000C020283028B0A43028370472DE9F0411F
:1011E0000C460E884988A288238905460EB3042E32
:1011F00026D0082E2E8C4FF6FF7028D026F480566D
:101200002E84AF8B2E8C00EA022200EA013127F4F3
:1012100073473A4300EA0330104326F400520A436E
:1012200042F48051A8832984E1882846BDE8F04132
:1012300091E700F0D0FAE1882846BDE8F041C5E723
:10124000FFF7A9FFE1882846BDE8F04197E726F4BB
:1012500080762E84AF8B2E8C00EA012100EA0310E9
:10126000104327F0F307384326F400720A4342F490
:101270008071A8832984E1882846BDE8F04176E79B
:101280002DE9F0410C46002649880746012501B9A1
:101290000226A288012A00D102252088238900285D
:1012A000384610D0FFF777FFE1883846FFF767FF31
:1012B00023892A463146384600F08DFAE1883846BF
:1012C000BDE8F04182E700F086FAE1883846FFF792
:1012D0007DFF23892A4631463846FFF75CFFE188C7
:1012E0003846BDE8F0414AE710B50A884B88CC88FB
:1012F0001A438B8823431A430B891A434B898989E4
:101300001A430A43A0F8442010BD4FF6FF718180B4
:1013100000210180C180418001727047002C014092
:10132000003401400004004000080040000C004070
:101330000010004000140040004001400044014003
:10134000004801400021018041808180C1800181ED
:1013500041818181C181E0E700210180418001223A
:101360008280C1800181D8E7002101804180818095
:10137000C180018141818181CFE70029018802D0AC
:1013800041F0010101E021F001010180C5E70029E0
:1013900030F8441F02D041F4004101E0C1F30E01D6
:1013A0000180BAE7002A828901D00A4300E08A431B
:1013B0008281B2E78182B0E71143A0F84810ACE720
:1013C000002A828901D00A4300E08A438281A4E78F
:1013D000018921F0070101819FE7028922F0700253
:1013E0000A43028199E700B50346FFF7F6FF188923
:1013F00040F00700188100BD70B516460D46602903
:1014000004464FF0010231460AD000F0E4F92946C3
:101410002046FFF7E2FF208940F00700208170BDE1
:10142000FFF7B9FEF3E730B504894FF6FF7505EA1B
:1014300003231343E4B20B432343038130BD10B5B0
:101440000446FFF7F0FF208940F07700208110BDAF
:1014500010B50446FFF7E7FF208940F48040208163
:1014600010BD0185828258E7028822F070020A438B
:10147000028052E770B50589048B068C25F00705BC
:101480000D434FF6FC410C4040F201110C434FF666
:10149000FF7101EA031126F0220611433143058151
:1014A0000483018470BD028B22F070020A43028320
:1014B00033E7028B4FF6FF7322F4E04203EA012187
:1014C0001143018329E7828B22F070020A43828351
:1014D00023E7828B4FF6FF7322F4E04203EA0121F7
:1014E0001143818319E70029018802D041F080016E
:1014F00001E021F0800101800FE70029818802D0FE
:1015000041F0040101E021F00401818005E7002998
:10151000818802D041F0080101E021F008018180BA
:10152000FBE60029818802D041F0010101E021F0B1
:1015300001018180F1E6028B22F008020A43028356
:10154000EBE6028B4FF6FF7322F4006203EA0121FF
:1015500011430183E1E6828B22F008020A43828371
:10156000DBE6828B4FF6FF7322F4006203EA01216F
:1015700011438183D1E6028B22F004020A430283E5
:10158000CBE6028B4FF6FF7322F4806203EA01215F
:1015900011430183C1E6828B22F004020A43828355
:1015A000BBE6828B4FF6FF7322F4806203EA0121CF
:1015B00011438183B1E6028B22F080020A43028349
:1015C000ABE6028B4FF6FF73C2F30E0203EA012172
:1015D00011430183A1E6828B22F080020A438283B9
:1015E0009BE6828B4FF6FF73C2F30E0203EA0121E2
:1015F0001143818391E6028C22F002020A430284A5
:101600008BE6028C22F008020A43028485E6028CF3
:101610004FF6FF7322F0200203EA01111143018407
:101620007BE6028C4FF6FF7322F0800203EA011181
:101630001143018471E6028C4FF6FF7322F40072AD
:1016400003EA01211143018467E6028C4FF6FF7320
:1016500022F4006203EA0121114301845DE6028C59
:101660004FF6FF7322F4005203EA01311143018463
:1016700053E610B50123048C8B409C430484038CF7
:101680008A401343038410BD10B50423048C8B409F
:101690009C430484038C8A401343038410BD30B5FB
:1016A0000124058C00F118038C40A543058489B101
:1016B00008290FD0091FC1F34E001844016821F416
:1016C000E041016001684FF6FF7303EA0222114313
:1016D000016030BD03EB5100016821F07001016031
:1016E0000168F4E70029018802D041F0020101E01D
:1016F00021F00201018010E60029018802D041F0AA
:10170000040101E021F00401018006E6002981883E
:1017100002D041F0800101E021F080018180FCE5F0
:10172000028822F00802028002880A430280F4E55F
:10173000828822F07002828082880A438280ECE5EF
:10174000028922F00702028102890A430281E4E54C
:10175000028922F08002028102890A430281DCE5CB
:101760008184DAE58185D8E58186D6E50187D4E5EF
:101770008187D2E5A0F84010CFE5028822F44072BC
:10178000028002880A430280C7E5808EC5E5008F8B
:10179000C3E5808FC1E5B0F84000BEE5808CBCE5B4
:1017A000008DBAE502460020128A0A4200D00120CC
:1017B000B3E5C9430182B0E502460020138A92894D
:1017C0000B4202EA010202D0002A00D00120A4E567
:1017D000C9430182A1E570B5048C24F0010404849E
:1017E000058B048C4FF6FF7606EA0313134325F0AE
:1017F000F3052B4324F002020A4342F00101038364
:10180000018470BD374900200860091D0860091D6A
:101810000860091D08603349334814310860704777
:1018200030B5304A8379016853B313688B43136032
:10183000111D0B680468A3430B60017911440B6808
:10184000046823430B60274B083319680468A143DD
:1018500019601C1D21680568A94321604179102980
:1018600005D011440A68006802430A6030BD196857
:10187000026811431960216800680143216030BD8E
:101880000079104402688A43026030BD0021016083
:1018900001710C22427181717047124910310A683E
:1018A00002430A60704701460E4A00201432126853
:1018B0000A4200D0012070470A491431086070477D
:1018C000084A014600201268064B0A4014331B6880
:1018D0000B4202D0002A00D0012070470149143188
:1018E0000860704700040140FFFF0F0024480168B2
:1018F00021F00F010160016841F00F0101607047A4
:101900001F48001F016821F0F0010160016841F0EB
:10191000B001016070471B4800B501686FF30B010F
:101920000160016840F2777211430160FFF7E8FF40
:101930005DF804EBDAE71248016821F00F0101605D
:10194000016841F00401016070470D48001F016803
:1019500021F0F0010160016841F040010160704731
:10196000084800B501686FF30B010160016840F29F
:10197000444211430160FFF7E8FF5DF804EBDAE74A
:1019800004080140040C014010B5FE48FFF722F99D
:10199000FC494FF40060888010BD10B5FA4C00215E
:1019A0002046FFF723F9F7492046FFF7F7F8A0880C
:1019B00040F0C300A0802046BDE810400121FFF7A1
:1019C00015B910B5F14C8CB02046FFF7D3F9F048AB
:1019D00001901021EF480291039100900021802096
:1019E000CDE9041040000690800007902020089068
:1019F000C001CDE9090169462046FFF727FA012217
:101A000004212046FFF756FA012202212046FFF763
:101A100051FA01212046FFF743FA0CB010BD10B572
:101A2000DA4C8CB014342046FFF7A4F9DA48009061
:101A3000DA480021CDE901014020CDE903018020F1
:101A40000590400006908000079020200890C0017B
:101A5000CDE9090169462046FFF7F8F90122042182
:101A60002046FFF727FA012202212046FFF722FA3B
:101A7000D3E72DE9F043DFF814938DB0A9F12809DD
:101A80004846FFF777F9C04D10200C35002400952B
:101A9000CDE90140070104A880264FF48068039433
:101AA000A0E8D0016814CDE90840694648460A9488
:101AB000FFF7CCF9012202214846FFF7FBF9DFF8D6
:101AC000CC92A9F13C094846FFF754F9CDE90054FE
:101AD00004A802940394A0E8D0014FF44050CDE94B
:101AE0000840694648460A94FFF7B0F901220221EE
:101AF0004846FFF7DFF90D208DF82C0001248DF802
:101B00002D408DF82E408DF82F400BA8FFF7DFF801
:101B10000C208DF82C0002208DF82D008DF82E0061
:101B20008DF82F400BA8FFF7D2F80DB0BDE8F08379
:101B300070B59B484CF6FE230121038041809949F2
:101B400040F28A250A8802814988418100218181E9
:101B5000C18195480424954A038044804181084608
:101B600002EB400622F81010401C80B2A6F81C15AB
:101B7000A842F5D38D488D4D8C4EA0F8144580F8C1
:101B8000161500F21C50C5F8180513800325558062
:101B9000A6F8304A344684F8321A2146C1F8342A6D
:101BA00003800846A0F81E558148026070BD2DE9EB
:101BB000FF41804C0121204600F008FA7E4D0121B2
:101BC000284600F003FA7D4E0121304600F0FEF970
:101BD00000214FF496400090ADF80810ADF80410C5
:101BE0000C20ADF80610ADF80A00ADF80C106946EF
:101BF000204600F073F941F684600090694628465B
:101C000000F06CF96946304600F068F940F225575B
:101C100001223946204600F0E3F9012239462846E0
:101C200000F0DEF901223946304600F0D9F92520CE
:101C300000F00DF9262000F00AF9272000F007F93E
:101C4000BDE8FF81F8B55E4C606940F0010060615D
:101C5000E0695C490843E061A06945F60C0108436E
:101C6000A0615948016801F0704101600168574A5C
:101C7000114301600168564A114001600168554AEC
:101C800011430160504984201031086052480025FA
:101C9000012605705148067051480570514805707D
:101CA000FFF75EFE50480168C9B2016001684F4A03
:101CB00011430160001D016821F47F61016001682A
:101CC00041F4966101604048001D016821F0F02157
:101CD00001600168464A11430160A06940F00100BB
:101CE000A061A014434CA060434908200860091D6E
:101CF000086041490C31086009208DF800008DF81A
:101D000001608DF802608DF803606846FEF7DFFF22
:101D1000606840F000706060606840F4006060607F
:101D2000FEF734FEFEF7B9FEFFF779FE33490020D7
:101D3000F022096841F6F4230A54401C80B298420C
:101D4000FAD32F4806702F4806702F480670FFF709
:101D50001BFEFFF722FEFFF78CFE00200C4A072136
:101D600022F81010401C80B21028F9D3FEF74CFE68
:101D7000FFF727FEFEF7CDFE244805802448457076
:101D8000057047E08000002000300140580002400C
:101D9000CC0A00204C2C01404C040040EC0A0020EE
:101DA0006C0B0020400000208C0B002094000020D1
:101DB0004800002000380140004400400048004036
:101DC0000010024007000600000C01404444440497
:101DD000FFF0FF0F000800806D0000206E00002063
:101DE0006F0000207000002000080140004BBBBBCA
:101DF0000040003000000140000401405400002079
:101E00005E0000205F0000206000002058000020DD
:101E1000610000201449FF20087048708870134941
:101E20004D7013490D704D7012490870487012487A
:101E30000580FFF7BCFEF8BD4FF400724FF0E021C3
:101E400010B1C1F880217047C1F80021704700F03F
:101E50001F020121914040094FF0E02202EB800077
:101E6000C0F80011704700004C00002067000020FF
:101E700063000020650000206A000020C64910B5FC
:101E800088420AD101218C03204600F0AEFA204698
:101E9000BDE81040002100F0A8BAC049884202D134
:101EA00001214C0410E0BE49884202D101218C047A
:101EB0000AE0BC49884202D10121CC0404E0BA49BD
:101EC00088420AD101210C05204600F097FA2046ED
:101ED000BDE81040002100F091BA10BD30B50446B5
:101EE000008A85B00D464CF6FF710840E988014331
:101EF0002182A0894EF6F3110840A9882A8911434E
:101F00006A8902431143A181A08A4FF6FF4108402C
:101F1000A9890143A182684600F00AFA9E488442DA
:101F200001D1039800E00298A1890904002900EB7F
:101F3000C00101EB0010296802DA4FEA410101E01B
:101F40004FEA8101B0FBF1F06422B0FBF2F14FEAFD
:101F500001114FEA11136FF018056B4300EB83007A
:101F6000A3891D044FF0320306D503EBC000B0FB7C
:101F7000F2F000F0070005E003EB0010B0FBF2F018
:101F800000F00F000843208105B030BD4FF416511A
:101F9000016000218180C18001810C224281818108
:101FA000704710B5028A4FF2FF031A400B884C8825
:101FB00023438C88C9880C4323431343038210BDF9
:101FC0000021018041808180C18070470029818982
:101FD00002D041F4005101E021F4005181817047A9
:101FE00010B5C1F3421301F01F040121A140012BE0
:101FF00007D0022B07D01430002A026805D00A430C
:1020000004E00C30F8E71030F6E78A43026010BDB8
:10201000002A828A01D00A4300E08A438282704704
:10202000028A22F00F020282028A0A430282704769
:10203000828922F40062828182890A438281704708
:102040000029818902D041F0020101E021F0020162
:1020500081817047028A22F020020282028A0A43AA
:10206000028270470029018A02D041F4804101E0D8
:1020700021F4804101827047C1F3080181807047DB
:102080008088C0F308007047818941F00101818197
:102090007047028BD2B20283028B42EA0121018394
:1020A0007047028B02F47F420283028B0A43028351
:1020B00070470029818A02D041F0200101E021F01F
:1020C0002001818270470029818A02D041F01001ED
:1020D00001E021F01001818270470029818A02D03D
:1020E00041F0080101E021F00801818270470029D8
:1020F000818902D041F4004101E0C1F30E018181E8
:1021000070470029818A02D041F4006101E021F486
:10211000006181827047828A22F004028282828A70
:102120000A43828270470029818A02D041F002016D
:1021300001E021F0020181827047024600201288EE
:102140000A4200D001207047C9430180704770B532
:1021500001F01F0501260024C1F3421306FA05F21F
:10216000012B0FD0022B0FD0838A4FEA1121008858
:10217000134206FA01F600EA060001D000B101247C
:10218000204670BD8389F0E7038AEEE70A0A012141
:102190009140C9430180704700380140004400402D
:1021A00000480040004C004000500040A548016835
:1021B00041F0010101604168A34A1140416001689A
:1021C000A24A11400160016821F480210160416848
:1021D00021F4FE0141604FF41F018160704799496D
:1021E0000A6822F480320A600A6822F480220A60B7
:1021F000B0F5803F07D0B0F5802F03D1086840F4D8
:10220000A02008607047086840F48030F9E7034672
:10221000002059098B4A01290AD002290AD0516AA3
:1022200003F01F02012393400B4200D001207047AE
:102230001168F5E7116AF3E718B500204FF4A064C0
:1022400000903120FFF7E3FF0099491C0091A14263
:1022500001D00028F5D03120FFF7D9FF002800D0A9
:10226000012018BD774A116821F0F80141EAC00049
:1022700010607047764908607047724B5A6808438F
:1022800022F47C1210435860704771490866704709
:102290006C4A516821F0030101435160704769485D
:1022A000406800F00C007047664A516821F0F00168
:1022B000014351607047634A516821F4E061014372
:1022C000516070475F4A516821F4605141EAC00093
:1022D000506070475B4A0029517A01D0014300E009
:1022E0008143517270475A49D83108607047554A46
:1022F000516821F440410143516070475149002227
:1023000081F8202081F82020012802D0042802D161
:10231000052081F8200070474E4908607047494900
:102320000A6A02430A6270474A49443908607047A2
:1023300030B5444A5168484B11F00C0103D00429D0
:1023400001D0082901D0036012E05168536801F4FC
:1023500070114FF0020413F4803F04EB914102D05E
:1023600053689B0301D53D4B00E03B4B5943016053
:1023700051680F2303EA1111394B5C5C0168E1409D
:1023800041605468072505EA14241C5D21FA04F411
:102390008460546805EAD4241B5DD940C16052684A
:1023A000032303EA92322E4B1B1F9A5CB1FBF2F11E
:1023B000016130BD234A0029516901D0014300E089
:1023C0008143516170471F4A0029916901D001433F
:1023D00000E08143916170471A4A0029D16901D018
:1023E000014300E08143D1617047164A0029D1685A
:1023F00001D0014300E08143D1607047114A0029B8
:10240000116901D0014300E0814311617047114916
:102410004039086070470E49C86470470949C8715F
:1024200070470848416A41F0807141627047054A2F
:102430000146002092680A4200D0012070470149FD
:1024400088727047001002400000FFF8FFFFF6FEA0
:10245000000042428004424200127A0000093D001E
:10246000260000200948804709480047FEE7FEE7AC
:10247000FEE7FEE7FEE7FEE7FEE7FEE7FEE7FEE734
:1024800004480549054A064B70470000D508000876
:10249000ED000008784200207848002078440020B1
:1024A00078440020824A10B5108802F104038006A7
:1024B0001DD51888C1B27F48007818B97E480088B9
:1024C00000062BD47B480478641C04704468217097
:1024D000416800F14C04491C4160A14202D300F163
:1024E0000C0141607548018841F08001018010882D
:1024F000000612D57248007898B171480178491EDB
:102500000170816811F8012B00F14C048160A14237
:1025100002D300F10C0181601A8010BD6648001DD5
:10252000E4E763480C30018821F08001018010BD90
:10253000F0B5614E308806F10404800634D5208859
:10254000C5B26048007878B35D4800785C4901F115
:102550004C0201F10C0118B95548008800060DD451
:102560005748AA2307787F1C077047683B70436869
:102570005B1C4360934205D3416003E04C4BAA20AF
:102580001B1D18804E4803785B1C037043681D7048
:1025900043685B1C4360934200D3416044480C3065
:1025A000018841F0800101803088000612D5414841
:1025B000007880B13F480178491E0170816811F8A8
:1025C000012B00F14C038160994202D300F10C0110
:1025D00081602280F0BD3948018821F080010180AE
:1025E000F0BD30B53848008880064FD53648001D0C
:1025F0000088C1B23348007860B331480078304A6F
:1026000002F14C0302F10C0218B9294800880006B7
:102610000DD42B48BB2405786D1C057045682C70C3
:102620004468641C44609C4205D3426003E0204C33
:10263000BB20241D208022480478641C0470446858
:1026400021704168491C4160994200D3426018489A
:102650000C3017E01748007818B9174800880006B2
:1026600015D414480278521C0270426811704168F7
:1026700000F14C02491C4160914202D300F10C016F
:1026800041600E48018841F08001018030BD0A4858
:10269000001DFAE70022027000F10C014160816028
:1026A000114643181A73491CC9B24029F9D370471F
:1026B0000038014080410020004400400C440040AC
:1026C000CC4100206C0000200048004081491920C6
:1026D000088081488078421E132A08D27F4A02EB84
:1026E000400043F2E7528089904200D20880704750
:1026F0002DE9F05F7A4D28687A484FF4C0014160B7
:1027000079494FF000094C46A1F80090402101673B
:10271000744801216C30FEF7C3FB74480421006843
:1027200000F1080280F81645714CA0F8141500F26B
:102730000C50C4E900206848B0F80110007849BA8C
:1027400008B141F4004163481180DFF8A8E1008836
:10275000508002F10402DFF8A0B1684F684E694D65
:102760004FF6FF7C22605E480068000651D4D4E931
:10277000000188424DD25B49086810F4C000F2D0D5
:102780004FF4C0024A606FEA4020C00F40014FF092
:10279000000AABF800000EEB4001504631F8022B66
:1027A0003B883A80D31A9BB20022A3F10808B8F103
:1027B000400F1ED2272B01D2012206E0392B01D275
:1027C000022202E0482B00D2032233880CEA830362
:1027D000134333802A88521C92B22A80082A08D3D5
:1027E000A5F80090226822F8023B226063689A42B2
:1027F00003D2401C80B22028D0D3BAF1000FB2D04F
:1028000028880028AFD02068318820F8021B20607B
:10281000A9E7BBF800004FF0010AB0B10020ABF807
:1028200000000EEB4001002031F8023B3A883B806B
:102830009A1A92B2A2F108034FF00008402B24D25A
:10284000272A04D24FF001080AE02020E7E7392ABE
:1028500002D24FF0020803E0482A01D24FF00308E9
:1028600032880CEA820343EA080333802A88521C28
:1028700092B22A80082A08D3A5F80090226822F88C
:10288000023B226063689A4203D2401C80B2202837
:10289000CAD3BAF1000F06D0288820B12068318849
:1028A00020F8021B20600F4800216C30FEF7F8FA78
:1028B00021680E4821F8029B21600068091AC1F3C3
:1028C0004F01A0F81415012180F81615BDE8F05F3E
:1028D000FCE60000580000204C000020980B00206F
:1028E000080C014000000240240400404800002081
:1028F00038000020EC0A0020780000207C00002036
:102900007A000020760000207047704770477546B7
:1029100000F028F8AE4605006946534620F007004F
:10292000854618B020B5FFF7ABFDBDE820404FF05D
:1029300000064FF000074FF000084FF0000B21F0A9
:102940000701AC46ACE8C009ACE8C009ACE8C00976
:10295000ACE8C0098D4670470446AFF300802046BE
:10296000FDF70BFC00487047184200200149182071
:10297000ABBEFEE726000200704700009C2900085D
:102980000000002080000000280100081C2A000828
:1029900080000020F8470000440100080000070004
:1029A00007000B000F00000000A24A040000000016
:1029B00000000000010203040607080900000204E9
:1029C00006080000000001020304010203040607D8
:1029D00008090000000000000000000019F00907CD
:1029E00000000000000000000000000000000000E7
:1029F00000000000000000000000000000000000D7
:102A000000000000000000000000000000000000C6
:0C2A1000000000000000000000000000BA
:040000050800246566
:00000001FF
