:020000040800F2
:1000000020190020511D0008591D00085B1D000823
:100010005D1D00085F1D0008611D00080000000054
:10002000000000000000000000000000631D000848
:10003000651D000800000000671D0008691D00081C
:100040006B1D00086B1D00086B1D00086B1D000870
:100050006B1D00086B1D00086B1D00086B1D000860
:100060006B1D00086B1D00086B1D00086B1D000850
:10007000C11B00089B1B00086B1D00086B1D0008BE
:100080006B1D00086B1D00086B1D00086B1D000830
:100090006B1D00086B1D00086B1D00086B1D000820
:1000A0006B1D00086B1D00086B1D00086B1D000810
:1000B0006B1D00086B1D00086B1D00086B1D000800
:1000C0006B1D00086B1D00086B1D00086B1D0008F0
:1000D0006B1D00086B1D00086B1D00086B1D0008E0
:1000E0006B1D00086B1D00086B1D000800F002F876
:1000F00000F03AF80AA090E8000C82448344AAF188
:100100000107DA4501D100F02FF8AFF2090EBAE885
:100110000F0013F0010F18BFFB1A43F0010318473B
:10012000C45F0000E45F0000103A24BF78C878C1C3
:10013000FAD8520724BF30C830C144BF04680C60ED
:10014000704700000023002400250026103A28BF35
:1001500078C1FBD8520728BF30C148BF0B60704739
:100160001FB51FBD10B510BD05F07EFF1146FFF78E
:10017000F7FF01F027FB05F09CFF03B4FFF7F2FF48
:1001800003BC05F0A1FF0000FE48017BFE480029EA
:1001900008BF4FF4006109D0012908BF4FF4805116
:1001A00004D0022914BF00214FF400414180704760
:1001B000F448017BFF2908BF7047F44A535C012BC8
:1001C00008BF7047491CCBB2FF210373022B88BFC5
:1001D0000173037BFF2B1ABF12F803C0BCF1010FA0
:1001E00070475B1CDBB20373022B88BF0173037B78
:1001F000FF2B1ABFD25C012A70475A1CD2B202737D
:10020000022A88BF01730173704730B5E0484FF48C
:1002100080550560DF480088DA4C618B411A89B24D
:10022000B1F5FA7F38BF30BD6083207B401CC0B27F
:100230002073022884BFFF202073FFF7B9FF217BC2
:10024000D148002908BF4FF400610AD0012904BF3A
:10025000458030BD02291BBF002141804FF4004181
:1002600030BD418030BD10B5CB4C208910F0020F5D
:1002700007D100BF02F071FD58B9208910F0020FBC
:10028000F8D0208910F0800F09D000BF02F065FD82
:1002900008B1002010BD208910F0800FF6D1012098
:1002A00010BD10B5B74C607A012809D002F055FD99
:1002B00018B101206072002010BD607A0128F5D1CC
:1002C000012010BD2DE9F047AE4D88800746CA8059
:1002D000687A9A4690460E4601280AD002F03DFD03
:1002E00020B1012068724FF0000904E0687A01280B
:1002F000F4D14FF00109A84C208910F0020F06D16B
:1003000002F02BFD58B9208910F0020FF8D0208997
:1003100010F0800F09D000BF02F01FFD08B10021CE
:1003200004E0208910F0800FF6D101219B48026B78
:1003300022F001020263C26922F00102C261228935
:1003400012F0010F18BFA289002F0CBF012200225A
:10035000AA72B8F1000F0CBF01220022EA7200223B
:100360006A72C6634763C0F828A0C0F82080026B99
:1003700042F001020263C26942F00102C26117B198
:10038000874A08201060B9F1000F16BF002900202D
:100390000120BDE8F08770B57A4C0025257102F088
:1003A000C9FC207C217B40EA01217E4800F6FC0349
:1003B000818104F130010A88C2814988A27D01F45B
:1003C0007F41114301820A220146A5751046FFF7BD
:1003D00079FF0120A07370BD734800686A4A10F469
:1003E000805F6848017D13D0002305290ED30F29B3
:1003F00024BF0321417504D20A292CBF0221012107
:100400004175C9B293805131817543750375704749
:10041000491CC9B201750F2984BF0F21017503D38F
:100420004FF41840908070470A2928BF4FF4C050FD
:10043000F8D2052924BF4FF400609080704703284C
:10044000504905D201F11E02125C012A08BF08734F
:10045000FF2808BF0873097B4B48002908BF4FF4E9
:10046000006109D0012908BF4FF4805104D002294E
:1004700014BF00214FF400414180704710B543493B
:1004800010F0010F4FF001024FF0000414BF0A708A
:100490000C7010F0020F14BF4A704C7010F0040F73
:1004A00014BF8A708C70FFF783FE3648017B364894
:1004B000002908BF4FF400610BD0012908BF4FF499
:1004C000805106D0022912BF44804FF40041418080
:1004D00010BD418010BDF0B42A4E01222A4B727328
:1004E000727096F80CC00025BCF1000F04BF4FF4E9
:1004F000006CA3F802C00CD0BCF1010F08BF4FF490
:10050000805C23D0BCF1020F14BF5D804FF4004C1F
:100510001CD0264B4FF0000C5FF0040402FA0CF7DD
:10052000074214BF5A705D700CF1010702FA07F719
:10053000074214BF9A709D709B1C0CF1020C641E44
:10054000ECD1F171F0BC002005F0BBB8A3F802C0FB
:10055000DFE72DE9F05F0024DFF83090DFF850800E
:1005600001262546A9F11E0738F81400302800F0AE
:1005700027811FDC102824D0202800F0058100F0FE
:1005800018B90000000000208E0900201E00002085
:1005900014040140242C01400030014000000240BE
:1005A0001008014064000020080C014033000020C6
:1005B00060090020502800F00381802871D000F0ED
:1005C000F8B808EB440ABAF802007E734FEA102C20
:1005D000C1B27E70387B00285ED0012862D002282C
:1005E00003BF4FF40040FE4A5080FD4818BF4580CD
:1005F000FC4800225FF0040306FA02FB1BEA0C0F22
:1006000014BF4670457002F1010B06FA0BFB1BEAA2
:100610000C0F14BF86708570801C921C5B1EEBD182
:10062000F971002005F04DF8BAF80400000A10F046
:10063000010F14BF89F8006089F8005010F0020F14
:1006400014BF89F8016089F8015010F0040F14BF3D
:1006500089F8026089F80250FFF7AAFD387B30B3B1
:10066000012829D0022803BF4FF40040DC4948800C
:10067000DB4818BF4580BAF80210DB480180BAF8A1
:10068000041001F47F41418028F81450AAF8025068
:10069000AAF80450A01C60E0D14A4FF400605080DA
:1006A000A6E70EE0CE484FF480524280A0E7CC4946
:1006B0004FF400604880DEE7C9494FF4805048801D
:1006C000D9E708EB440ABAF80200000A10F0010F5B
:1006D00014BF89F8006089F8005010F0020F14BFB1
:1006E00089F8016089F8015010F0040F14BF89F8EF
:1006F000026089F80250FFF75BFD387B78B3012870
:1007000033D0022803BF4FF40040B5494880B448B5
:1007100018BF4580BAF80210C8B2032804D219F8ED
:100720000020012A08BF3873FF2808BF3873387BC0
:1007300000B3012823D0022803BF4FF40040A84A89
:100740005080A74818BF458001F47F41A6484180EA
:1007500028F81450AAF80250601CC4B229E0FFE740
:100760009F494FF400604880D4E79D494FF4805082
:100770004880CFE79A4A4FF400605080E4E7984AF7
:100780004FF480505080DFE708EB440041888088B8
:10079000090241EA1021B962F87000202118401CBA
:1007A000C0B228F811500328F8D30520B870A01C57
:1007B000C4B2601CC4B2102CFFF4D6AEBDE8F09FEA
:1007C000C1B208EB440042888088120242EA10223B
:1007D000BA62F87000202218401CC0B228F81250EB
:1007E0000328F8D3302914BF04200320B870A01CBC
:1007F000C4B2DEE77D4A5078022818BF704730B493
:10080000002178480423D27901248C4691420CBF00
:10081000447080F801C04D1C95420CBF847080F874
:1008200002C0801C891C5B1E13F0FF03EED130BC9C
:1008300070476F494FF0443008606E4901200860EE
:100840000A1F1060062313606B4A126808600B6071
:100850006A4A4FF460611160644988717047644965
:100860004FF0443008606348012202600623011FF4
:100870000B60614909680360C9B25C48CB0901F0AB
:100880007F01C3740B0901744374022B05BF01F08F
:10089000030102298274002108BF817470474FF060
:1008A0004430534908605348012303600621021F66
:1008B0001160514A12680160D2B2D0094B4902F06E
:1008C0007F024FEA121CC8740A7481F811C0BCF18F
:1008D000020F05BF02F00302022A8B74002208BF38
:1008E0008A74704770B5464BFF240822A3F6C401F2
:1008F0000520FFF7E7FC3D4D687A012809D000BFCD
:1009000002F02BFA10B10120687202E0687A012827
:10091000F6D13B49002000BF31F81020402A09D011
:10092000401CC0B20828F7D3204602F0B1FA0020DC
:10093000A87070BD01EB40004088040AF4E72DE97F
:10094000F84F2A4C2A4A002020832E4E4FF0443183
:100950001160284A012111600091A16A002918BF85
:100960004FF6FF7B61D0A06AB0F5007F8CBF4FF4DB
:10097000007101468FB2C01BA062208B3081401CE9
:1009800007F0010101EB5709052520834FF000080E
:10099000B9F1000F1DD900BF02F0FAFA0BEA002AE4
:1009A000A07900284AD0781E07043F0C41D002F0FD
:1009B000EFFAA1794AEA000089B126F81500681C0F
:1009C00085B2791E08F101001FFA80F88FB2C84580
:1009D000E2D3002026F81500681C80B214E02DE058
:1009E0008E0900203300002030000020000000208D
:1009F000000C014014080140080C0140140401409F
:100A000060090020A8000020A6F82602FE4B012263
:100A10003146FFF757FC0099084307D000200090AB
:100A2000A06AD6F8286200289DD10620A070BDE8F3
:100A3000F88F26F815A0681C85B2CAE70020A070C0
:100A4000BDE8F88FB0F5007F28BF4FF4007000F0CC
:100A5000010303EB5002A1F82802921DEB4892B269
:100A6000DFF8ACC3A1F82622038BACF808305B1C7E
:100A700003830B466146062024E42DE9F05FE34D35
:100A8000002182462983A970A86A38B9BAF1000FFB
:100A900004D0E878BDE8F05F02F0FAB9C205C0F30F
:100AA0004F28D20D1CBF08F101021FFA82F8D94C61
:100AB000B0F5007F234628BF4FF4007000F0010C12
:100AC0000CEB5002921DA3F82802DFF844B392B257
:100AD000A3F82622ABF8081001272F8359460620D9
:100AE000FFF7F0FBB4F82802A96A081AA862CA48FE
:100AF0000760CA484FF0333101604FF00009B8F188
:100B0000000F50D9687A38B902F027F908B16F722E
:100B100057E0687A0028F7D0A86AF8B1D4F82C62B8
:100B2000B0F5007F334628BF4FF4007000F001029B
:100B300002EB5001891D8AB2A3F82802A3F82622ED
:100B4000288BABF80800401C2883B1490620FFF72A
:100B5000B9FBB6F82802A96A081AA862B4F82622D6
:100B600000212046002A07D930F8023BDA2B0DD0AD
:100B7000491C89B28A42F7D8BAF1000F08BFBDE814
:100B8000F09F0220BDE8F05F02F082B9B4F82812AD
:100B900002F048FAA8B109F10100D4F82C421FFA7A
:100BA00080F9C145AED3BAF1000F02BF0620A8708C
:100BB000BDE8F09F0020A870E878BDE8F05F02F083
:100BC00067B996494FF04430086095480760BDE822
:100BD000F09F70B5934C4FF0000C214620784B7875
:100BE000450900F01F008A781F280DD00021002839
:100BF00008BF4FF0010C854C667BCEB1BCF1010FF4
:100C000008BF432B09D00CE001211846A02B08BFD8
:100C10004FF0010C1346E278EDE7452A12D0532A33
:100C20000CD0E27995420DD102F0F8FE012070BDA2
:100C3000BCF1010F08BF432BF3D1F0E7084605F0E4
:100C400085F8F3E7002070BD4FEA501C06210A2208
:100C50006E48BCF1060F09D2DFE80CF00803030868
:100C6000050742717047102100E00C214171704767
:100C70002DE9F05F02F084F86B4910F0010F1EBF00
:100C80000A78002A00242FD0085D002808BFBDE89C
:100C9000F09F4FF006085D4E00254FF00A0986F8D8
:100CA00005804FF0100A4FF00C0B5E4F02F08AF8EF
:100CB0007855B07901284BD058494FF0443008603E
:100CC0005749012008600A1F1060C2F80080574A87
:100CD00012680860C1F80080554A4FF460611160E5
:100CE000B0710020BDE8F09F10F0020F1EBF4A78DF
:100CF000002A0124C8D110F0040F1EBF8A78002AF0
:100D00000224C1D110F0080F1EBFCA78002A0324A4
:100D1000BAD110F0100F1EBF0A79002A0424B3D1F3
:100D200010F0200F1EBF4A79002A0524ACD110F024
:100D3000400F1EBF8A79002A0624A5D110F0800F2B
:100D40001BBFC8790028002007249DD1BDE8F09F73
:100D5000002D08BF387812D14009062804D2DFE8F8
:100D600000F003060603090C86F8058007E086F804
:100D7000059004E086F805A001E086F805B07079DA
:100D80006D1C854292DBC5B2062D08D90D2225497E
:100D9000781C05F01FF81F203870681C70713878B7
:100DA00040EA441038700120BDE8F09F1D491F2221
:100DB00008788243154818BF062101D04171704759
:100DC00049784B094FF00701F8D00B22012B12BFD5
:100DD000022B42717047052B08BF0D21EEE72DE96C
:100DE000F05F01F0CDFF0F4E0F4930704009085CF5
:100DF000002808BFBDE8F09F0627044C01254FF0EE
:100E00001F0A677116E000002C000020000000207F
:100E1000900000200005002010080140000C014057
:100E2000140801408009002034000020080C014013
:100E3000140401404FF00B094FF00D0B4FF0070861
:100E400001F0C0FF7055A079012815D0FF494FF07F
:100E500044300860FE49012008600A1F10601760D6
:100E6000FC4A126808600F60FB4A4FF46061116031
:100E7000A0710020BDE8F09F012D05D130783AEA3D
:100E8000000018BF677107D0681CC5B26079854241
:100E9000D6D30120BDE8F09F707840090AD0012820
:100EA00014BF022884F80590EED0052808BF84F806
:100EB00005B0E9D084F80580E6E72DE9F041E74C7C
:100EC000A07C10B1FFF78BFF01E0FFF7D1FE0028F7
:100ED00008BFBDE8F081E248E24A012501784F09E8
:100EE000D25D002A37D0002301F01F021F2A11D043
:100EF0000021002A08BF0123467890F802C000BFF5
:100F000094F80D80B8F1000F1BD0012B08BF432EC1
:100F100009D00EE042780121A02A08BF012386787B
:100F200090F803C0ECE7BCF1450F14D0BCF1530FAF
:100F30000CD0E3799F420ED1BDE8F041104602F09B
:100F40006DBD012B08BF432EF3D1EFE7BDE8F041A3
:100F5000084604F0FBBE6178022908BFBDE8F081B5
:100F6000C149028852BA0A8003224388521E5BBAE2
:100F70004B8030F8043F5BBA21F8043FF5D101F013
:100F8000D9FEBA4B1022A3F6E8010C20FFF79AF91C
:100F90000220A070A573BDE8F0812DE9F84FAF4C99
:100FA0004FF6FF7BA078002865D101F0E2FE002813
:100FB00061D0A07C10B1FFF712FF01E0FFF758FEEF
:100FC000002858D0A64AA74910784309C95C71B3D4
:100FD000002100F01F0CBCF11F0F0DD00020BCF150
:100FE000000F08BF012155789678677BD7B101299A
:100FF00008BF432D0AD00DE092F801C00120BCF1DA
:10100000A00F08BF01219578D678EEE7452E12D0C3
:10101000532E0DD0E1798B420DD10146604602F08E
:10102000FDFC28E0012908BF432DF3D1F0E702E0E1
:1010300004F08CFE1FE0607802281CD08A481188DA
:1010400049BA018003215388491E5BBA438032F8B4
:10105000043F5BBA20F8043FF5D101F06BFE834BEF
:101060001022A3F6E8010C20FFF72CF90220A07053
:101070000120A0737FE0A078032818BF042802D0C5
:10108000052811D074E0A06AC0F34F2004F0FAFAEA
:10109000A07803280CBF01200020FFF7EEFC40F2EF
:1010A000252000F0E4FEB1E0A06AC0F34F2004F078
:1010B000E9FA664A002020836D4E4FF044311160FA
:1010C000634A012111600091A16AE9B3A06AB0F5F9
:1010D000007F8CBF4FF4007101468FB2C01BA0622D
:1010E000208B3081401C07F0010101EB57090525D9
:1010F00020834FF00008B9F1000F1BD901F048FF21
:101100000BEA002AA079E8B3781E07043F0C44D00C
:1011100001F03EFFA1794AEA000099B326F81500D4
:10112000681C85B2791E08F101001FFA80F88FB2A1
:10113000C845E3D3002026F81500681C80B2A6F845
:1011400026024C4B012200E00CE03146FFF7BAF8D2
:101150000099084307D000200090A06AD6F82862C2
:101160000028B3D10620A07040F2252000F07FFEB9
:10117000A078062819D0607A00281CBFA07B002820
:1011800005D000E00EE0FFF7E4F90020A07301F0C5
:10119000E4FD88B30020A07038E026F815A0681C94
:1011A00085B2C7E70020A070DEE701F0C3FD2F4B3A
:1011B000FF250822A3F6C4010520FFF783F8607A13
:1011C000012808D001F0C9FD10B10120607202E0D1
:1011D000607A0128F6D1254A002100BF32F81100BB
:1011E00040280AD0491CC9B20829F7D3284601F083
:1011F0004FFE0020A07009E004E002EB41004088AF
:10120000050AF3E7A07800287FF4CCAEA079012886
:1012100018BFFFF70EFBA07C002818BFBDE8F88FB1
:101220004FF0443009490860094901220A60062349
:10123000081F0360074800680B60C0B2C30900F0D4
:101240007F00E37420740109617415E0000C014013
:1012500014080140080C0140140401400000002063
:101260008009002034000020800000206009002058
:10127000A80000202C000020022906BF00F0030077
:101280000228A274002B18BFBDE8F88FBDE8F84F04
:10129000FFF7CFBAF949FA484A78012A10D001215C
:1012A000817101880181428989B28A4208BF7047F1
:1012B00041814FF41840F34A1060101D01607047DF
:1012C000097D02292CBF03210221817126BF81885B
:1012D00001814188E7D2E5E7002AD8BF7047401E68
:1012E00012F0010F18BF00F8011F521008BF70471D
:1012F000417000F8021F521EFAD17047F0B5E24F5C
:101300008BB0384600F0D2FEE04D0024102000954E
:10131000CDE901408026CDE9044603944002CDE9A1
:10132000084006940794694638460A9400F024FF62
:1013300001220221384600F05EFFD54F384600F00A
:10134000B5FECDE90054CDE9044603944FF4405076
:10135000CDE90840029406940794694638460A94F9
:1013600000F00AFF01220221384600F044FF0BB0D2
:10137000F0BD10B5C74C86B00021204600F0CEFD70
:10138000684600F0BFFD4FF48270ADF802006015B2
:10139000ADF80A0008200021ADF80C00ADF80410EB
:1013A000ADF80E106946204600F082FD211D088828
:1013B00040F0C30008800121204600F0AFFD06B0D8
:1013C00010BD2DE9F043DFF8D0928DB0484600F013
:1013D0006DFEB24D102000240095CDE901400701BB
:1013E00004A880264FF480680394A0E8D001681414
:1013F000CDE90840694648460A9400F0BDFE012246
:101400000221484600F0F7FEDFF89492484600F0CB
:101410004DFECDE9005404A802940394A0E8D00145
:101420004FF44050CDE90840694648460A9400F020
:10143000A3FE01220221484600F0DDFE0D208DF8BA
:101440002C0001248DF82D408DF82E408DF82F4072
:101450000BA800F0D4FD0C208DF82C0002208DF894
:101460002D008DF82E008DF82F400BA800F0C7FD41
:101470000DB0BDE8F08310B58A4C86B0002120463F
:1014800000F04CFD684600F03DFDE014ADF80400AE
:101490006946204600F00CFDA08840F0C300A08003
:1014A0000121204600F03AFD06B010BD2DE9F041C3
:1014B0007D4D8CB0686940F001006861E86944F2D4
:1014C00007010843E861A86941F61C010843A861C7
:1014D0007648016889B20160016841F43B0141F03E
:1014E0003B41016072490A686FF313020A600A689F
:1014F000704B1A430A600A68C2F313020A600A6852
:1015000042F03B6242F030420A606B494A68C2F3E3
:1015100013024A604A6842F0036242F040524A6055
:1015200001686FF30F010160016843F23332114328
:101530000160001D0168614A114001600168604A54
:1015400011430160A86940F00100A8615D4841F2C3
:1015500010110161012141615B4A4FF4F0511160AA
:10156000121D1160594A1160464A4FF4184111602A
:10157000416841F00071416000F00AFC00F02DFC70
:1015800000F050FC474C0021204600F0C7FC6846A4
:1015900000F0B8FCE014ADF804006946204600F005
:1015A00087FCA08840F0C300A0800121204600F005
:1015B000B5FCFFF706FF374E0021304600F0AEFCC9
:1015C000684600F09FFC4FF48270ADF80200681589
:1015D000ADF80A0008200024ADF80C00ADF8044076
:1015E000ADF80E406946304600F062FC311D0888B7
:1015F00040F0C30008800121304600F08FFCDFF886
:101600008880404600F052FD204E10200096CDE923
:1016100001408027CDE9044703944002CDE908400A
:1016200006940794694640460A9400F0A5FD0122FD
:101630000221404600F0DFFDDFF85480404600F014
:1016400035FDCDE90064CDE9044703944FF44050E3
:10165000CDE90840029406940794694640460A94EE
:1016600000F08AFD01220221404600F0C4FD6868B6
:1016700040F0E06068600CB0BDE8F0810000002040
:101680008E09002010080140580002400C3800402C
:101690004400024000380040300002400C3001405D
:1016A0001C000240003001400010024000080140D0
:1016B000040C01404444040000100140F00FF00FFE
:1016C0000B30033000000140000401400C040140D5
:1016D000FA494CF6FE20012208804A80F84A4FF071
:1016E000040C13880B8152884A8100224A821431EB
:1016F000022308804B80CA821831032308804B8064
:101700004A81183101F50B730880A1F802C0C1F8B5
:1017100028321880A3F802C0C3F828120C390880B8
:10172000052048800A8101F29460A0F50C71C1F88F
:101730002C02C0F82C1270472DE9F041E14D002435
:10174000AC702C716C73FFF7C3FF01276F72AF721F
:10175000EF72FF262E73AC73FFF7A8FEDA494FF045
:1017600044300860D94807600F210160D848F90368
:1017700041614FF4C0410161D6494FF4F050086017
:10178000002205F1330104204A7001F8022F401EA7
:10179000FAD1D149EE7101200C54401CC0B203288B
:1017A000FAD36C83EC73AC8302F0D6F9287228B1BB
:1017B00002F0B4FDC9488470BDE8F081BDE8F04195
:1017C00002F0DEB9FFF7B8FFBF494FF044300860C0
:1017D000BE4901270F600622081F0260DFF800C320
:1017E000DCF800000A60C0B2B64CC10900F07F000E
:1017F000E1740109207400256174022905BF00F01D
:1018000003000228A774A574FFF713F8617CB5489C
:101810000229016821F00F010160016814BF41F045
:10182000040141F00B010160DFF8BC82DFF8A492F3
:10183000AE4E4FF4184B4FF4805A607801281CBF0D
:10184000B771308817D03081718980B2814205D05C
:10185000A7497081C1F800B0091D086002F07CF949
:10186000217A884213D002F077F92072E773B8F832
:101870000000A0830DE0207D02282CBF0320022061
:10188000B07126BFB08830817088DDD2DBE7E07BA5
:1018900050B1B8F80000A18B401A80B2B0F57A7F41
:1018A00024BFE57302F03AFD01F063FA002818BF87
:1018B000FFF773FB607AE0B901F04FFAC8B16772C5
:1018C000A5706078B8B92078401CC0B2207001289B
:1018D00004BF4FF40060308010D0022808BFA6F883
:1018E00000A00BD0032804BF4FF40040308030D05C
:1018F0002CE0607850B3607802289ED0607A00288F
:101900001CBFA07B002802D0FEF723FEA573607ADF
:1019100000281CBF2079002878D07148006810F496
:10192000805F207D41D005280ED30F2828BF0320DB
:1019300004D20A282CBF0220677500D36075B580D9
:10194000607D5130A0756575257544E020780328C9
:10195000D4D3A07C00280CBF01210021A6F800B040
:1019600002206070A5702571002003F09FFEC0B2B8
:10197000E071A17C084308BFE77160780228BDD1FF
:101980005C480021E279042391420CBF4770457006
:1019900001F1010C94450CBF87708570801C891C77
:1019A0005B1E13F0FF03EFD1A5E7401CC0B220750A
:1019B0000F2884BF0F20207502D3A6F804B00AE0D8
:1019C0000A2828BF4FF4C05004D2052828BF4FF47E
:1019D000006000D3B080257101F0ACF9207C217B40
:1019E00040EA0121354800F6FC03818142490A881A
:1019F000C2814988A27D01F47F41114301820A22FC
:101A00000146A5751046FEF75DFCA773D9F80000E6
:101A100010F4805F25D0C9F800A0B8F80000618BF1
:101A2000411A89B2B1F5FA7F1BD36083207B401C39
:101A3000C0B22073022884BFFF202073FEF7B8FBDA
:101A4000207B002808BF4FF4006016D0012808BF93
:101A5000A6F802A005D0022814BF75804FF40040FC
:101A60000BD04FF08040018A11F0010F3FF4E5AE3A
:101A70004FF6FE7101822771DFE67080F1E710B545
:101A80001E4C208810F0020F09D100BF01F065F94B
:101A9000002818BF10BD208810F0020FF6D0208853
:101AA00010F0800F08BF10BD01F057F9002818BFD3
:101AB00010BD208810F0800FF6D110BD640000200A
:101AC0002200002000000020000C0140140801400A
:101AD00000100140140401401E0000208C0A002068
:101AE000080C014004080140242C01408E0900200C
:101AF000100801403300002030000020083800406A
:101B00002DE9F041364C07461D462088164688468A
:101B100010F0020F07D100BF01F01FF978B920883B
:101B200010F0020FF8D0208810F0800F07D000BF0F
:101B300001F013F918B9208810F0800FF8D1294866
:101B4000816D21F001018165416C21F00101416449
:101B5000218811F0010F1CBF23490988C0F8648057
:101B6000C76505658664416C41F001014164816D82
:101B700041F001018165BDE8F0811C490A8912F03C
:101B8000800FFBD10A8912F0020FFBD088810889EF
:101B900010F0010FFBD08889704710B54FF400702A
:101BA00000F054FB1249082008601248012181729C
:101BB000C27A012A18BF10BD41720021017010BD08
:101BC00010B5202000F042FB0A480121C172827A40
:101BD000012A18BF10BD41720021017010BD000024
:101BE00008380040000002400C380040003001403E
:101BF00014080140000000204D4882B0016841F007
:101C00000101016041684B4A11404160016821F4C3
:101C1000102121F080710160016821F480210160B0
:101C2000416821F4FE0141604FF41F0181600022F0
:101C300001920092016841F480310160016801F471
:101C4000003100910199491C0191009919B901993C
:101C5000B1F5A06FF2D1016811F4003F08BF009206
:101C600033D00121009134490A6842F010020A6021
:101C70000A6822F003020A600A6842F002020A605F
:101C80004168416041684160416841F48061416060
:101C9000416821F47C114160416841F4E8114160E0
:101CA000016841F080710160016811F0007FFBD094
:101CB000416821F003014160416841F00201416047
:101CC000416801F00C010829FAD11C494FF000606D
:101CD000086002B0704716494868194A10F00C03B2
:101CE000184818BF042B01D0082B01D0026015E062
:101CF0004A684B6802F470124FF0020C13F4803FF4
:101D00000CEB924203D04B6813F4003F03D00E4B10
:101D10005A43026002E00A4B5A43026049680B4A88
:101D2000C1F30311515C026822FA01F101607047AE
:101D3000001002400000FFF80020024008ED00E023
:101D400000127A004800002000093D004C000020ED
:101D50000948804709480047FEE7FEE7FEE7FEE73F
:101D6000FEE7FEE7FEE7FEE7FEE7FEE7044805497B
:101D7000054A064B70470000F91B0008ED000008FB
:101D800020130020201900202015002020150020FD
:101D900010B584B048F69F40ADF800004FF6FF70D4
:101DA000ADF8040000203D4CADF80600ADF802008F
:101DB0008DF808006946204600F06EFA01212046A1
:101DC00000F03BFE0121204600F03DFD01221146BE
:101DD000204600F04CFD04B010BD00B583B048F6BD
:101DE0009F40ADF800004FF4FA60ADF80400002009
:101DF000ADF80600ADF802008DF8080069464FF016
:101E0000804000F049FA0121880700F016FE012108
:101E1000880700F018FD01221146900700F027FD09
:101E200003B000BD10B584B04FF6FF70ADF80000F0
:101E300040F22520ADF804000020194CADF8060052
:101E4000ADF802008DF808006946204600F024FA3B
:101E50000021204600F0F1FD0121204600F0F3FCB6
:101E600001221146204600F002FD04B010BD70B5FD
:101E70000B4D04460021284600F0E5FC09490020EE
:101E8000088009494FF6FE700880084804802846FB
:101E9000BDE87040012100F0D6BC0000002C0140DC
:101EA0000004004024040040100400402C040040C2
:101EB00010B402880B88B1F802C0CC8843EA0C0346
:101EC000B1F804C002F441524CEA040C43EA0C039A
:101ED000B1F808C043EA0C03B1F80AC043EA0C03A6
:101EE000B1F80CC043EA0C03B1F80EC043EA0C038E
:101EF0001A430280828B22F400628283098A018263
:101F000010BC70470021018041808180C180018127
:101F100041818181C18107210182704700290188A7
:101F200014BF41F0400121F04001018070470909D0
:101F3000012303FA01F1002A828889B214BF1143F8
:101F400022EA010181807047002A828814BF114370
:101F500022EA010181807047818170478089704742
:101F6000A1F57E420188FF3A14BF41F4807121F44B
:101F70008071018070470029818814BF41F00401FD
:101F800021F0040181807047028822F400620280FF
:101F90000288114301807047B1F5804F01880CBF62
:101FA00041F4804121F480410180704702460020C5
:101FB00012890A4218BF01207047C9430181704746
:101FC00001F00F034FF0010C0CFA03F30022090992
:101FD0000CFA01F1B0F804C09BB289B200890CEA96
:101FE000010118421CBF0029012210467047000061
:101FF0002A4940F0FD7040F080600860704730B4BE
:10200000C278017801234FF0E02C02B3234A126812
:102010000F2502F4E062C2F5E062120AC2F1040484
:1020200025FA02F2457805FA04F485782A4022431D
:102030001B4C12010A55007800F01F0103FA01F150
:1020400040090CEB8000C0F8001130BC704701F073
:102050001F0003FA00F049090CEB8101C1F880016F
:1020600030BC704721F07F0121F0604108430D49E9
:10207000086070470C4A0029116814BF084321EA20
:102080000000106070474FF0E021042808690CBF81
:1020900040F0040020F00400086170470CED00E0FF
:1020A00000E400E008ED00E010ED00E0016821F040
:1020B000010101600021016041608160C160674AE7
:1020C0006749904204BF486840F00F0022D0654A3B
:1020D000904204BF486840F0F0001BD0624A904232
:1020E00004BF486840F4706014D0604A904204BF56
:1020F000486840F470400DD05D4A904204BF486883
:1021000040F4702006D05B4A904204BF486840F417
:10211000700001D148607047574A904204D1486826
:1021200040F0706048607047544A111F904204BFED
:10213000086840F00F0014D0514A904204BF08686C
:1021400040F0F0000DD04F4A904204BF086840F4C0
:10215000706006D04C4A904204BF086840F470405A
:1021600001D108607047494A904218BF704708681B
:1021700040F470200860704710B40268D1F820C0A5
:102180008B686FF30E1243EA0C03D1E904C44CEAE6
:10219000040C43EA0C03D1F818C043EA0C03D1F84D
:1021A0001CC043EA0C03D1F824C043EA0C03D1F865
:1021B00028C043EA0C031A430260CA6842600A68F6
:1021C00082604968C16010BC7047002101604160B5
:1021D0008160C160016141618161C16101624162EF
:1021E000816270470029016814BF41F0010121F0AC
:1021F000010101607047002A026814BF114322EAFE
:10220000010101607047406880B27047002110F002
:10221000805F14BF1E4A124A1268024218BF012191
:102220000846704710F0805F19BF1A4908600C49D2
:1022300048607047002110F0805F14BF144A084ABC
:102240001268024218BF01210846704710F0805FF3
:1022500019BF1049086002494860704708000240F1
:10226000000002401C0002403000024044000240D6
:10227000580002406C000240800002400804024006
:102280001C0402403004024044040240580402404E
:10229000000402400404024010B40288FE4BDFF840
:1022A000FCC3984218BF604511D0B0F1804F1CBFED
:1022B000A0F18044B4F5806409D0A0F18044B4F565
:1022C00000641CBFA0F18044B4F5406403D14C8885
:1022D00022F070022243A0F18044B4F580541CBF68
:1022E000A0F18044B4F5A05403D0CC8822F440720D
:1022F000224302808A8882850A880285984218BF14
:1023000060450DD0A0F18042B2F5A0321FBFA0F110
:102310008042B2F5A232A0F18042B2F5A43201D1DE
:10232000097A01860121818210BC704710B4028CA9
:1023300022F001020284028C8388B0F818C00C8855
:102340002CF0730C44EA0C0C0C8922F0020222439C
:102350004C882243A0F18044B4F596341CBFA0F110
:102360008044B4F59A340DD0A0F18044B4F5A03483
:102370001FBFA0F18044B4F5A234A0F18044B4F5AD
:10238000A4340DD14C8922F0080222438C8822F01B
:10239000040222438C8923F440732343CC892343D2
:1023A0008380A0F818C0C9888186028410BC704759
:1023B00030B4028C22F010020284038CB0F804C006
:1023C000028B0D8822F4E6444FF6FF7202EA0525DF
:1023D0002C430D8923F0200302EA05152B434D8879
:1023E00002EA05152B43A0F18045B5F596351CBFD3
:1023F000A0F18045B5F59A3517D14D8923F08003BA
:1024000002EA05152B438D8823F0400302EA0515E7
:102410002B438D892CF4406C02EA850545EA0C0CAF
:10242000CD8902EA850242EA0C0CA0F804C00483BC
:10243000C9880187038430BC704730B4028C22F411
:1024400080720284028C8388B0F81CC00C882CF047
:10245000730C44EA0C0422F4007C0D894FF6FF72E1
:1024600002EA052545EA0C0C4D8802EA052545EAF5
:102470000C0CA0F18045B5F596351CBFA0F1804548
:10248000B5F59A3517D14D892CF4006C02EA052573
:1024900045EA0C0C8D882CF4806C02EA052545EA8F
:1024A0000C0C8D8923F4405302EA05152B43CD898A
:1024B00002EA0512134383808483C9888187A0F8C8
:1024C00020C030BC704730B4028C22F480520284A9
:1024D000048C8288838B0D8823F4E64C4FF6FF73BF
:1024E00003EA052545EA0C0C0D8924F4005403EA9F
:1024F00005352C434D8803EA05352C43A0F1804572
:10250000B5F596351CBFA0F18045B5F59A3505D1D6
:102510008D8922F4804203EA85131A438280A0F851
:102520001CC0C988A0F84010048430BC7047828B5E
:1025300022F440628283828B4FF6FF7303EA01210B
:10254000114381837047828B22F00C028283828B3D
:10255000114381837047028B22F440620283028B15
:102560004FF6FF7303EA0121114301837047028B89
:1025700022F00C020283028B11430183704770B476
:102580000D884C88B1F804C00B894FF6FF7255B323
:10259000042D44D0082D058C67D025F48055058482
:1025A000868B058C26F4734602EA0C2C4CEA060C4A
:1025B00002EA033343EA0C0302EA043425F4005C24
:1025C0004CEA040C4CF4805C8383A0F820C0897929
:1025D000838B23F440638383838B02EA01211943B5
:1025E000818370BC7047058C25F001050584068B3E
:1025F000058C02EA031226F0F30642EA0C0232438B
:1026000025F00203234343F0010302830384C988B6
:10261000028B22F00C020283028B114322E0058C14
:1026200025F010050584068B058C26F4734602EA16
:102630000333334302EA0C2C4CEA030302EA04148A
:1026400025F0200C4CEA040C4CF0100C0383A0F88D
:1026500020C08979038B23F440630383038B02EA50
:1026600001211943018370BC704725F480750584EE
:10267000868B058C02EA042402EA031226F0F30694
:1026800042EA0C02324325F40073234343F480737F
:1026900082830384C98803E0002C01400034014098
:1026A000828B22F00C028283828B114398E72DE902
:1026B000F0014E8800230122002E08BF02238D88DE
:1026C000012D08BF02220F880C89002F078C4FF6BE
:1026D000FF7C42D027F010070784B0F81880078CE1
:1026E00028F473480CEA043444EA08040CEA05258B
:1026F0002C430CEA061627F02005354345F010055B
:10270000048305848C79058B25F440650583058B4E
:102710000CEA04242C4304830C89058C25F0010564
:102720000584068B058C0CEA041C4CEA020226F098
:10273000F30625F0020C32434CEA030343F0010395
:1027400002830384C988028B22F00C020283028B6D
:1027500011430183BDE8F001704727F001070784AA
:10276000078BB0F820800CEA04142C4327F0F30701
:102770003C4328F00205354345F0010504830584F8
:10278000CC88058B25F00C050583058B2C43048331
:102790000C7A058C25F010050584058B068C25F434
:1027A00073450CEA04342C430CEA022222430CEA5F
:1027B000031326F02004234343F010030283038411
:1027C0008979028B22F440620283028B0CEA012198
:1027D00011430183BDE8F00170470A884B88B1F8C6
:1027E00006C01A438B8843EA0C031A430B891A4329
:1027F0004B8989891A431143A0F8441070474FF65A
:10280000FF71818000210180C18041800172704789
:102810000021018041808180C180018141818181CD
:10282000C181704700210180418001228280C180E6
:10283000018170470021018041808180C180018138
:102840004181818170470029018814BF41F0010155
:1028500021F00101018070470029B0F8441014BF35
:1028600041F40041C1F30E01A0F844107047002A62
:10287000828914BF114322EA01018181704781825C
:1028800070471143A0F848107047002A828914BF8E
:10289000114322EA010181817047018921F007017A
:1028A00001817047028922F0700211430181704753
:1028B000028922F0700211430181018941F0070170
:1028C0000181704730B4048C4FF6FF7C60291ED024
:1028D00024F001040484058B048C0CEA031325F016
:1028E000F30543F0010324F0020C2B434CEA0202EF
:1028F00042F0010203830284028922F07002114334
:102900000181018941F00701018130BC704724F049
:1029100010040484058B048C0CEA03330CEA0212C5
:1029200025F473452B4324F0200C43F480734CEAC8
:10293000020242F0100203830284DDE710B4B0F813
:1029400008C04FF6FF7404EA03231A430CF0FF0C8F
:10295000114341EA0C01018110BC704710B4B0F87A
:1029600008C04FF6FF7404EA03231A430CF0FF0C6F
:10297000114341EA0C010181018941F07701018194
:1029800010BC704710B4B0F808C04FF6FF7404EAEA
:1029900003231A430CF0FF0C114341EA0C0101819F
:1029A000018941F48041018110BC70470185828218
:1029B0007047028822F0700211430180704730B4E2
:1029C0000589B0F818C0048C25F0070529432CF0C0
:1029D000030C2CF4407C40F201154CEA050C4FF638
:1029E000FF7505EA031324F022041A4322430181F0
:1029F000A0F818C0028430BC7047028B22F070022D
:102A0000114301837047028B4FF6FF7322F4E042BB
:102A100003EA0121114301837047828B22F0700287
:102A2000114381837047828B4FF6FF7322F4E0429B
:102A300003EA01211143818370470029018814BFF3
:102A400041F0800121F080010180704700298188D8
:102A500014BF41F0040121F0040181807047002976
:102A6000818814BF41F0080121F00801818070477E
:102A70000029818814BF41F0010121F0010181800A
:102A80007047028B22F00802114301837047028BCA
:102A90004FF6FF7322F4006203EA01211143018320
:102AA0007047828B22F00802114381837047828B2A
:102AB0004FF6FF7322F4006203EA01211143818380
:102AC0007047028B22F00402114301837047028B8E
:102AD0004FF6FF7322F4806203EA01211143018360
:102AE0007047828B22F00402114381837047828BEE
:102AF0004FF6FF7322F4806203EA012111438183C0
:102B00007047028B22F08002114301837047028BD1
:102B10004FF6FF73C2F30E0203EA01211143018352
:102B20007047828B22F08002114381837047828B31
:102B30004FF6FF73C2F30E0203EA012111438183B2
:102B40007047028C22F00202114301847047028C0C
:102B500022F00802114301847047028C4FF6FF7384
:102B600022F0200203EA0111114301847047028C14
:102B70004FF6FF7322F0800203EA01111143018432
:102B80007047028C4FF6FF7322F4007203EA0121B2
:102B9000114301847047028C4FF6FF7322F40062E8
:102BA00003EA0121114301847047028C4FF6FF7341
:102BB00022F4005203EA01311143018470470123DA
:102BC000B0F820C08B402CEA03030384038C02FA84
:102BD00001F11943018470470423B0F820C08B40F1
:102BE0002CEA03030384038C02FA01F119430184E4
:102BF000704710B44FF0010C048C00F118030CFA6C
:102C000001FC24EA0C0CA0F820C0002918BF0829F8
:102C100010D0081FC0F34E001844016821F4E041B1
:102C2000016001684FF6FF7303EA0222114301605D
:102C300010BC704703EB5100016821F07001016086
:102C400001681143016010BC70470029018814BF5E
:102C500041F0020121F00201018070470029018842
:102C600014BF41F0040121F00401018070470029E4
:102C7000818814BF41F0800121F08001818070477C
:102C8000028822F008020280028811430180704706
:102C9000828822F07002828082881143818070478E
:102CA000028922F0070202810289114301817047E3
:102CB000028922F08002028102891143018170475A
:102CC000818470478185704781867047018770478E
:102CD00081877047A0F840107047028822F4407244
:102CE00002800288114301807047808E7047008FF8
:102CF0007047808F7047B0F840007047808C7047F5
:102D0000008D704702460020128A0A4218BF012037
:102D10007047C94301827047038A002280890B42B1
:102D200000EA01001CBF0028012210467047C94379
:102D30000182704710B5AC4C00212046FFF783FD9F
:102D4000AA4900200880AA494FF6FE700880204654
:102D5000BDE810400121FFF776BDA548018811F0BC
:102D6000010F04BF002070474FF6FE710180012063
:102D70007047A048006810F4007018BF0120704729
:102D800010B50021984C2046FFF75DFD97490020C3
:102D9000088097494FF6FE70088001212046FFF712
:102DA00052FD95494FF04430086094490120086075
:102DB000934908708F494FF4C060086091480068DB
:102DC000C0B210BD904A00200221116000BF8B4AA2
:102DD0001160884A864B4FF0000C116811F4806F27
:102DE00003D088480068C0B209E0198811F0010FCB
:102DF000F3D04FF6FE711980814981F800C04FF47D
:102E0000806111607047804A012111607A4A4FF059
:102E1000333111607D4908607D494FF400400861FD
:102E200000BF48617349724A0023086810F4806F3C
:102E300008D1108810F0010FF7D04FF6FE70108007
:102E40006F4803704FF48060086070476E4A01213C
:102E50001160694B4FF0333119606C4908600220F2
:102E6000106000BF654908606249614A0023086834
:102E700010F4806F08D1108810F0010FF7D04FF6D2
:102E8000FE7010805E4803704FF4806008607047E9
:102E90002DE9F05F5F4F5A494FF0000C87F800C0F2
:102EA00091F800E0584EDFF86491534D514A504B71
:102EB00001244FF033384FF6FE7A4FF4806BBEF1A9
:102EC000000F1DD0DFF850E18EF800003460C5F827
:102ED0000080C9F800000220306000BFDFF81CE16C
:102EE000CEF80000106810F4806F07D1188810F039
:102EF000010FF7D0A3F800A081F800C0C2F800B01D
:102F000046480078D8B90878E0B100203460C5F8A8
:102F10000080C9F800003E484FF40046066100BF3B
:102F20004661106810F4806F07D1188810F0010F07
:102F3000F7D0A3F800A081F800C0C2F800B008786C
:102F4000012800D03C70FDF774FC4FF0443028603D
:102F50002A480460BDE8F09F2C4908602A490420F3
:102F6000086000BF254908602249214A00230868FB
:102F700010F4006F08D1108810F0010FF7D04FF651
:102F8000FE7010801E4803704FF4006008607047A8
:102F900000201D4B30B4042201461A6000BF174BBD
:102FA0001A60DFF87CC0134D114C9B14491C89B288
:102FB000032988BFCCF800302A6812F4006F03D0D0
:102FC00010480068C0B209E0228812F0010FEDD06D
:102FD0004FF6FE7121800A4A002111704FF4006102
:102FE000296030BC70470000000400402404004009
:102FF0001004004014040140000C0140140801407A
:1030000006000020080C0140100801400C0C014093
:10301000001001405C00002044000020120000204D
:10302000100C01402DE9F34F002900F0D481DFF8A6
:10303000B8B3EB4FDFF8AC93EC4ADFF8B4C34FF60C
:10304000FE7604250BF104044FF000081029C0F0AF
:10305000718103884FEA132AC9F800A0CBF8005009
:1030600000BF256003F0FF0A138813F0010F40F042
:103070009D81DCF8003013F4006FF5D04FF400634D
:10308000CCF80030C9F800A0CBF8005000BF256094
:1030900000F1020A108810F0010F40F08781DCF87F
:1030A000000010F4006FF5D0CCF80030BAF8000042
:1030B0004FEA102EC9F800E0CBF8005000BF2560A1
:1030C00000F0FF0E108810F0010F40F06F81DCF867
:1030D000000010F4006FF5D0CCF80030C9F800E023
:1030E000CBF8005000BF25600AF1020A108810F0EA
:1030F000010F40F05B81DCF8000010F4006FF5D0A8
:103100004FF40060CCF80000BAF80000030AC9F8D8
:1031100000305B46CBF8005000BF256000F0FF0E8A
:10312000108810F0010F40F04181DCF8000010F42D
:10313000006FF5D04FF40060CCF80000C9F800E053
:1031400028461D6000BF20600AF1020A108810F0B6
:10315000010F40F02B81DCF8000010F4006FF5D077
:103160004FF40060CCF80000BAF800004FEA102ECF
:10317000C9F800E01D6000BF256000F0FF0E108858
:1031800010F0010F40F01281DCF8000010F4006F25
:10319000F5D04FF40060CCF80000C9F800E01D60E5
:1031A00000BF25600AF1020E108810F0010F40F0F8
:1031B000FD80DCF8000010F4006FF5D04FF40060E3
:1031C000CCF80000BEF800004FEA102AC9F800A0B1
:1031D0001D6000BF256000F0FF0A108810F0010F8D
:1031E0007ED1DCF8000010F4006FF6D04FF40060E0
:1031F000CCF80000C9F800A01D6000BF25600EF1EA
:10320000020E00BFB2F800A01AF0010F68D1DCF87E
:1032100000A01AF4006FF5D04FF40060CCF8000065
:10322000BEF800004FEA102AC9F800A01D6000BFD8
:10323000256000F0FF0A108810F0010F50D1DCF873
:10324000000010F4006FF6D04FF40060CCF80000DE
:10325000C9F800A01D6000BF25600EF1020E00BF7E
:10326000B2F800A01AF0010F3AD1DCF800A01AF46D
:10327000006FF5D04FF40060CCF80000BEF80000FD
:103280004FEA102AC9F800A01D6000BF256000F0B9
:10329000FF0A108810F0010F22D1DCF8000010F4B2
:1032A000006FF6D04FF40060CCF80000C9F800A021
:1032B0001D6000BF25600EF1020ACDF800A000BF1E
:1032C000B2F800A01AF0010F70D1DCF800A01AF4D7
:1032D000006FF5D08646CCF800000098008800E02A
:1032E00064E04FEA102AC9F800A01D6000BF256005
:1032F00000F0FF0A108810F0010F57D1DCF8000031
:1033000010F4006FF6D0CCF800E0C9F800A01D6002
:1033100000BF25600098801C138813F0010F45D171
:10332000DCF8003013F4006FF6D0CCF800E0103970
:1033300089B24DE0038802292CD34FEA132AC9F839
:1033400000A0CBF8005000BF256003F0FF0A1388EF
:1033500013F0010F2AD1DCF8003013F4006FF6D01F
:103360004FF40063CCF80030C9F800A0CBF800504F
:1033700000BF256010F10200B2F800A01AF0010FA2
:1033800014D1DCF800A01AF4006FF5D0CCF80030AE
:10339000891E1CE0801C1B0AC9F80030CBF80050C5
:1033A00000BF2560138813F0010F06D0168087F840
:1033B000008002B00020BDE8F08FDCF8003013F48C
:1033C000006FEFD04FF40063CCF80030491E89B293
:1033D00000297FF43BAE02B00120BDE8F08F000071
:1033E000060000200C0C01401008014010040040B1
:1033F00014040140FD490020087348738873C873A2
:10340000FFF746BD002AD8BF7047491E401E12F084
:10341000010F03D011F8013F00F8013F521008BF1F
:1034200070474B78437011F8023F00F8023F521E7C
:10343000F7D17047ED480021017341738173C17367
:10344000817070472DE9F043E9A191B091E81C101B
:103450008DE81C1001F1100204AD92E81C10A5E8E3
:103460001C100B6A4A6A896ACDE90832EBA30A91FB
:10347000D3E900129B680B91CDE90C23EAA3D3E9B1
:1034800000129B68CDE90E12EA49109309780029D1
:1034900014BF0BA90EA9002818BF7F20D34F4FF0EF
:1034A0000008BA78012A09D187F80C8087F80D80C6
:1034B00087F80E8087F80F8087F80280DFF878C3DE
:1034C0009CF8012012F0010F08D00220387305216A
:1034D00079732421B97387F80F805BE08DF80000C1
:1034E000D6480123E946007830308DF819000A7873
:1034F0008DF8102004A804224C78447011F8024F73
:1035000000F8024F521EF7D1CD4909684A1E09F151
:103510001F01022054784C7012F8024F01F8024F3C
:10352000401EF7D1C74809F123010068421E04205C
:1035300054784C7012F8024F01F8024F401EF7D138
:10354000C1489CF804500360C0494FF03330086014
:103550000024002D88BFBE4E13D900BF19F8040007
:10356000FFF7FAFC307801281CBF11B0BDE8F083EA
:10357000601C84B2A54204D92B2C88BF0020EDD951
:10358000EEE787F80C8087F80D8087F80E804046BC
:1035900087F80F80FFF77CFC11B0BDE8F083A648E8
:1035A0004178017081784170C17881700179C17072
:1035B000417901718179417170472DE9F041002015
:1035C000A14A012107460646054611609F4A4FF071
:1035D00033311160854CA1686278491E2AB1080E0A
:1035E000C1F30746C1F30727CDB2FFF7B5FC30465C
:1035F000FFF7B2FC3846FFF7AFFC2846FFF7ACFCFC
:103600000020FFF7A9FC0020FFF7A6FC0220FFF72F
:10361000A3FC0020FFF7A0FC002020736073A073C0
:10362000E073BDE8F041FFF733BC70490020087338
:1036300048738873C873FFF72BBC2DE9F04784B03B
:1036400005218DF80D10252100258DF80E108DF81F
:103650000F5000280CBFDFF89481E846634EB07825
:10366000012804D135737573B573F573B57072485D
:10367000754907790120086074494FF033300860BC
:103680000024002F84BFA7F10709DFF8C4A127D9C0
:10369000072C08BF09F0FF0015D009DC002C08BF7B
:1036A000F02010D0022C08BF98F80D000BD009E0D4
:1036B0000C2C08BF98F80E0005D00D2C08BF98F808
:1036C0000F0000D00020FFF747FC9AF80000012807
:1036D0001CBF04B0BDE8F087601CC4B2BC42D7D3A5
:1036E00035737573B5732846F573FFF7D1FB04B0D6
:1036F000BDE8F0873D4900204A78012A08D002221F
:103700000A734A733A238B73C8731046FFF7C0BB22
:10371000087348738873C873FFF7BABB2DE9F0418B
:10372000324C0025022394F801C0162819D007DC7A
:10373000B8B1032822D0042824D0122855D005E09F
:10374000172818BF1D280CD0252824D02373052046
:1037500060732020A073E573BDE8F0411846FFF7C1
:1037600097BBBCF1010F0DD0237363733A20A07394
:10377000E573BDE8F0411846FFF78ABBBDE8F041AC
:1037800010465AE725736573A5732846E573BDE8AF
:10379000F041FFF77DBB00212B4A012088460F46F0
:1037A0000E461060294A4FF033301060A068401E6A
:1037B000BCF1000F05D0010EC0F30747C0F3072886
:1037C000C6B20846FFF7C8FB3846FFF7C5FB4046C0
:1037D000FFF7C2FB3046FFF7BFFB0020FFF7BCFB43
:1037E0000020FFF7B9FB022034E039E08C0A00200A
:1037F00000800202270000004A4F4F4B494520201D
:10380000436F736D6F734578203020534420202020
:10381000322E303030312F30382F3136436F736DC8
:103820006F73457820200000436F736D6F536F6C8A
:103830006F2000000D0000208009002007000020FC
:103840003C0000204000002010080140000C014016
:1038500006000020FFF780FB0020FFF77DFB91E7CB
:1038600001290CD1B6484178017081784170C17846
:1038700081700179C1704179017181794171BDE82F
:10388000F0411046DEE52DE9F05F06460027AC4822
:103890003D46B846C2780179BB46BA46B9460A2EBB
:1038A00018BF082E0BD1437890F802C0DB064CEA13
:1038B000D34342EA03270D0008BF4FF480752A2E38
:1038C0001CBF282E2F2E0FD141EA0221427942EA55
:1038D0000121827942EA0127017A4FF6FF72407A8C
:1038E00002EA012140EA0105964C95B17819411E82
:1038F000A068B84288BF88420BD8022020730521F7
:1039000061732121A1730021E173BDE8F05FFFF72E
:10391000BFBA082E18BF282E0ED1284601F0B2FEDD
:103920002946384601F0ACFC80464FF0010BDA46E0
:1039300040F22520FEF79BFA0A2E18BF2A2E38D017
:10394000BBF1000F0AD000BFB8F1000F40D0022039
:103950002073032184F80D10FFF79AFA7A48007853
:1039600058EA00000CD07948BAF1000F02D08188E3
:10397000491C8180B9F1000F02D04188491C418067
:103980002F2E18BFBDE8F09F284601F07BFE294688
:10399000384601F01AFC054640F22520FEF767FA8A
:1039A000E5B1022020730E216173BDE8F05FFFF7DF
:1039B0006FBA284601F066FE2946384601F053FDED
:1039C00080464FF0010940F22520FEF750FABBE790
:1039D000002020736073A073E073BDE700202073A4
:1039E0006073A073E073BDE8F05FFFF751BA55490B
:1039F000002202208A70087306234B7328238B73DE
:103A0000CA73FFF745BA4F490220052208734A736B
:103A100025228A730022CA73FFF73ABA70B50D46A1
:103A20000446FFF787F94648002D14BF8078407898
:103A30004209444B4FF0000C4FF002001CBF032C16
:103A4000122C0AD01873052159732521997383F814
:103A50000FC0BDE87040FFF71BBA597861B1997883
:103A600001291FD00A2C18BF082C2CD02A2C1CBFCF
:103A7000282C2F2C27D02BE0082C18BF282C07D05F
:103A80000A2C18BF2A2C03D0042C18BF252CE6D1F1
:103A9000187358733A21997383F80FC0BDE87040CA
:103AA000FFF7F6B9122C18BF032C11D083F802C00F
:103AB0001873062159732821997383F80FC0BDE844
:103AC0007040FFF7E5B929462046BDE87040DAE6C8
:103AD00029462046BDE8704020E600201C4B0146E8
:103AE000C0EB00121A44401C11605160916091813A
:103AF000C0B291731028F3D3144801707047134B70
:103B000010B41878DFF848C0C0EB00106044114AC8
:103B1000411E072054784C7012F8024F01F8024FF2
:103B2000401EF7D10748017B1878C0EB00126244B1
:103B3000401C917300F00F00187010BC704700001B
:103B4000800900208C0A00205C0000205E0000201C
:103B50009A0900207F090020F948806810F4804FFE
:103B60000CBF012000207047F64A1188012821F07F
:103B700038010CBF41F0080041F030001080704760
:103B8000F14800214170017081704160816070478F
:103B9000EE490A8812F0800FFBD10A8812F0020F5A
:103BA000FBD0EB4A1080088810F0010FFBD0108882
:103BB00070472DE9F041E54CFF21208810F0800F7F
:103BC000FBD1208810F0020FFBD0E14D2980208826
:103BD00010F0010FFBD02888FF21208810F0800F03
:103BE000FBD1208810F0020FFBD02980208810F034
:103BF000010FFBD02888FDF742FFD14F4FF400564C
:103C00007E610021FF22208810F0800FFBD12088E8
:103C100010F0020FFBD02A80208810F0010FFBD09B
:103C20002888481C81B2B1F5806FEBD3FDF727FFE0
:103C30003E61FF21208810F0800FFBD1208810F01A
:103C4000020FFBD02980208810F0010FFBD02888BC
:103C5000FF21208810F0800FFBD1208810F0020F88
:103C6000FBD02980208810F0010FFBD02888BDE808
:103C7000F041FDF704BF70B5B44A4FF6FF744FF042
:103C8000FF0C138813F0800FFBD1138813F0020F81
:103C9000FBD0AF4BA3F800C0B2F800C01CF0010F7E
:103CA000FAD0B3F800C040F0400500BFB2F800C041
:103CB0001CF0800FFAD100BFB2F800C01CF0020F58
:103CC000FAD01D80B2F800C01CF0010FFAD0B3F892
:103CD00000C00D0EB2F800C01CF0800FFAD100BF7A
:103CE000B2F800C01CF0020FFAD01D80B2F800C07C
:103CF0001CF0010FFAD0B3F800C00D0CB2F800C0F0
:103D00001CF0800FFAD100BFB2F800C01CF0020F07
:103D1000FAD01D80B2F800C01CF0010FFAD0B3F841
:103D200000C0C1F30F2500BFB2F800C01CF0800F27
:103D3000FAD100BFB2F800C01CF0020FFAD01D800B
:103D4000B2F800C01CF0010FFAD0B3F800C01FFA9F
:103D500081FC118811F0800FFBD1118811F0020F46
:103D6000FBD0A3F800C0118811F0010FFBD0198817
:103D700008280CBF8621952114D0108810F0800FE0
:103D8000FBD1108810F0020FFBD01980108810F0C2
:103D9000010FFBD01888FF20FFF7FAFEC5B2FF2DF8
:103DA00016D10DE0108810F0800FFBD1108810F0B4
:103DB000020FFBD01980108810F0010FFBD0E9E74B
:103DC00034B1FEF7CAFF002804BF601E84B2E2D0FF
:103DD000284670BD2DE9F041594E4FF40055074675
:103DE000756100210920FFF746FF594C231F002869
:103DF0001ABF3561FF224FF0000C0DD0198811F069
:103E0000800FFBD1198811F0020FFBD02280198896
:103E100011F0010FFBD01BE0FF20FFF7B9FEC0B28D
:103E2000FE2818D00CF1010101F0FF0CBCF1100FBD
:103E3000F2D33561FF22198811F0800FFBD1198868
:103E400011F0020FFBD02280198811F0010FFBD076
:103E50002188BDE8F0814FF0000CFF20FFF798FEAD
:103E600007F80C000CF1010000F0FF0CBCF1100F82
:103E7000F3D33561FF21188810F0800FFBD118882B
:103E800010F0020FFBD02180188810F0010FFBD03A
:103E900020880020BDE8F08100B585B0FEF74AFF1C
:103EA0006846FFF797FF00281EBF4FF0FF3005B0B0
:103EB00000BD9DF805009DF8083000F00F019DF849
:103EC00006008007020E9DF8070042EA900280007B
:103ED00040EA9310C0B240EA02109DF809209DF814
:103EE0000A309207520F42EAD312401C921C9040B3
:103EF00009291CBF0939884005B000BD00B585B04F
:103F0000FEF718FF6846FFF765FF28B99DF8050022
:103F100000F00F00092803D005B04FF0FF3000BDBE
:103F20009DF807009DF80810000440EA01209DF864
:103F3000091005B00843800200F5806000BD000054
:103F400000100140003800408C0A00200838004072
:103F50000C3800402DE9F0410446FEF7EBFEDFF897
:103F6000E8834FF40057C8F81470F8480078032825
:103F700018BF640221461120FFF77DFEF44E341F66
:103F8000002814BFFF22F34D11D0218811F0800FBB
:103F9000FBD1218811F0020FFBD03280218811F073
:103FA000010FFBD03188C8F81070BDE8F081FF2008
:103FB000FFF7EEFDC0B2FE2806D0FEF7CEFE0028C9
:103FC0003FD16D1EF3D13CE0002D18BF002338D047
:103FD000FF20FFF7DDFD5B1CB3F5007FF8D3FF2169
:103FE000208810F0800FFBD1208810F0020FFBD04A
:103FF0003180208810F0010FFBD03088FF2120880D
:1040000010F0800FFBD1208810F0020FFBD0318020
:10401000208810F0010FFBD03088FF21208810F09D
:10402000800FFBD1208810F0020FFBD03180208858
:1040300010F0010FFBD03088C8F810700020BDE8E8
:10404000F081FF21208810F0800FFBD1208810F034
:10405000020FFBD03180208810F0010FFBD0308898
:10406000C8F81070FF20BDE8F0812DE9F041B64E90
:104070004FF400557561B84CFF23228812F0800F71
:10408000FBD1228812F0020FFBD0B14F3B80228877
:1040900012F0010FFBD03A88FFF7EDFDFF222188D7
:1040A00011F0800FFBD1218811F0020FFBD03A8074
:1040B000218811F0010FFBD039883561BDE8F0810E
:1040C0002DE9F74FDFF880924FF4005892468B4667
:1040D0004FF6FF76C9F814809F4C251D594600986D
:1040E000FFF7C3FF0746FF20218811F0800FFBD1A7
:1040F000218811F0020FFBD02880208810F0010FDA
:10410000FBD0288816B1FEF728FEC8B10021FF2297
:10411000208810F0800FFBD1208810F0020FFBD018
:104120002A80208810F0010FFBD02888481C81B21B
:104130000A29ECD3C9F8108003B0FF20BDE8F08F46
:10414000701E86B25745C9D10021FF22208810F089
:10415000800FFBD1208810F0020FFBD02A8020882E
:1041600010F0010FFBD02888481C81B20A29ECD33B
:10417000C9F8108003B03846BDE8F08F2DE9F04152
:10418000714E4FF4005590467561734CFF232288A1
:1041900012F0800FFBD1228812F0020FFBD06C4F7F
:1041A0003B80228812F0010FFBD03A88FFF763FDB5
:1041B000844688F800000123FF20FFF7E9FC08F897
:1041C0000300581CC3B2052BF6D3FF21208810F042
:1041D000800FFBD1208810F0020FFBD0398020889F
:1041E00010F0010FFBD0388835616046BDE8F081E2
:1041F00070B582B0FEF79EFD5849088820F038005F
:1042000040F03000088048144F49086152480022AD
:1042100010F104034FF0FF0C018811F0800FFBD167
:10422000018811F0020FFBD0A3F800C0018811F043
:10423000010FFBD01988511CCAB20A2AEAD3002107
:104240000846FFF712FF01285AD100246A464FF4AE
:10425000D5710820FFF792FF012804BF9DF80300E5
:10426000012823D19DF80400AA2808BF4FF6FF7546
:104270001CD1681E85B2FEF770FDB8B90021372049
:10428000FFF7F3FE012811D181072920FFF7EDFE8A
:1042900028B1FEF762FD48B9002DEAD106E02DB144
:1042A0006A4600213A20FFF769FF48B14FF6FF76D2
:1042B00000213720FFF7D9FE0546012817D109E074
:1042C0009DF8010010F0400F1EBF032002B070BD2A
:1042D000012418E000212920FFF7C7FE0500F7D0D0
:1042E000FEF73BFD18B9701E0604360CE0D10CB188
:1042F00035B944B9002211460120FFF7E1FE10B1A3
:1043000002B0002070BD4FF400711020FFF7ADFE29
:10431000012C0CBF0220012002B070BD2DE9F04F2E
:10432000DFF8248085B0D8F808004FF0000110F4C1
:10433000804F064814D041700170817041608160E7
:1043400005B0BDE8F08F0000001001408C0A00208D
:104350000C380040FFFF0F000838004000380040D4
:10436000FD4B198821F0380141F030011980417866
:104370000129E5D0F94D4FF0000B4FF400592C1FE7
:10438000D8F8080010F4804FDAD1FEF7D3FCF249D8
:10439000088820F0380040F030000880C8F81090FD
:1043A0000020FF21228812F0800FFBD1228812F01A
:1043B000020FFBD02980218811F0010FFBD0298842
:1043C000401CC0B20A28ECD300210846FFF74DFE7E
:1043D000012840F09F814FF0000A6A464FF4D571E2
:1043E0000820FFF7CBFE012804BF9DF80300012839
:1043F00023D19DF80400AA2808BF4FF6FF761CD1F0
:10440000701E86B2FEF7A9FCB8B900213720FFF76D
:104410002CFE012811D181072920FFF726FE28B1A3
:10442000FEF79BFC48B9002EEAD106E02EB16A46A1
:1044300000213A20FFF7A2FE48B14FF6FF77002196
:104440003720FFF712FE064601283AD12CE09DF8EE
:10445000010010F0400F18BF032622D00027FEF7FE
:1044600069FCC8F8149039461120FFF704FC0028B5
:1044700014BFFF22BA4F40D0218811F0800FFBD12A
:10448000218811F0020FFBD029462A80228812F0E1
:10449000010FFBD00988C8F81090002877D000F0F1
:1044A00039B94FF0010A1DE000212920FFF7DDFD99
:1044B0000600F6D0FEF751FC18B9781E07043F0C31
:1044C000BDD1BAF1000F05D0002E40F02381BAF122
:1044D000000F07D1002211460120FFF7F1FD00284F
:1044E00040F018814FF400711020FFF7BEFDBAF1C3
:1044F000010F0CBF02260126B0E7FF20FFF748FBA3
:10450000C0B2FE2805D0FEF728FCE0BB7F1EF4D128
:1045100046E0002F18BF002342D0FF20FFF738FBF2
:104520005B1CB3F5007FF8D3FF21208810F0800FCB
:10453000FBD1208810F0020FFBD02846298021886B
:1045400011F0010FFBD00188FF21228812F0800FAB
:10455000FBD1228812F0020FFBD00180218811F0DC
:10456000010FFBD00188FF21228812F0800FFBD1C0
:10457000228812F0020FFBD00180218811F0010F78
:10458000FBD0008801E00BE001E0C8F81090032E9A
:1045900019D0FEF7CFFB6846FFF71CFC70B3B9E0FB
:1045A000FF21208810F0800FFBD1208810F0020F2F
:1045B000FBD02A462980208810F0010FFBD01088FC
:1045C000C8F81090A6E0FEF7B5FB6846FFF702FCBE
:1045D00000287DD19DF8050000F00F00092877D153
:1045E0009DF807009DF80810000440EA01209DF89E
:1045F00009100843800200F5806023E09DF8050063
:104600009DF8083000F00F019DF806008007020EAB
:104610009DF8070042EA9002800040EA9310C0B281
:1046200040EA02129DF809009DF80A308007400F09
:1046300040EAD310521C801C02FA00F009291CBF6A
:1046400009398840411C65D046490E708860400297
:104650004860012048708870FF21208810F0800F8A
:10466000FBD1208810F0020FFBD02980208810F0A9
:10467000010FFBD02888FF21208810F0800FFBD18C
:10468000208810F0020FFBD02980208810F0010F45
:10469000FBD02888FDF7F3F9C8F814900021FF2219
:1046A000208810F0800FFBD1208810F0020FFBD083
:1046B0002A80208810F0010FFBD02888481C81B286
:1046C000B1F5806FEBD3FDF7DAF9C8F8109000E090
:1046D00020E0FF20218811F0800FFBD1218811F00C
:1046E000020FFBD02880208810F0010FFBD0288813
:1046F000FF21208810F0800FFBD1208810F0020FDE
:10470000FBD02980208810F0010FFBD02888FDF70E
:10471000B6F907E00BF101001FFA80FBBBF1050FB2
:10472000FFF42EAE0C48018821F0380141F0080159
:10473000018005E62DE9F0411E4614460F468046ED
:1047400039464046FFF791FC054614B1FEF705FBDC
:1047500050B1FF20BDE8F081003800400C38004027
:10476000FFFF0F008C0A0020601EC4B2B542E7D1E3
:104770002846EFE7FE48018811F0010FFBD0FD4805
:1047800000887047FA490A8812F0800FFBD10A8826
:1047900012F0020FFBD0F749088070472DE9F0476F
:1047A0000446FEF7C7FAF44F4FF400567E61F34813
:1047B0000078032818BF640221461120FFF75BFA36
:1047C000EB4C251D002814BFFF22DFF8B48310D066
:1047D000218811F0800FFBD1218811F0020FFBD04E
:1047E0002A80218811F0010FFBD029883E61BDE8A5
:1047F000F087FF20FFF7CCF9C0B2FE2807D0FEF704
:10480000ACFA00284ED1B8F10108F2D14AE0B8F173
:10481000000F47D0DB4901200860DB494FF03330FF
:104820000860FF21208810F0800FFBD1208810F055
:10483000020FFBD02980DFF854834FF00009208855
:1048400010F0010FFBD02888FF22C0B2218811F0A0
:10485000800FFBD1218811F0020FFBD02A80FEF7D8
:104860007BFB98F8000001282FD0208810F0010F62
:10487000FBD02888B9F5007F31D2FF21208810F0C5
:10488000800FFBD1208810F0020FFBD029802088F8
:1048900010F0010FFBD0288809F10109B9F5007F5C
:1048A000EBD31CE0FF21208810F0800FFBD1208883
:1048B00010F0020FFBD02980208810F0010FFBD0F0
:1048C00028883E61FF20BDE8F08709F10109B9F5AC
:1048D000007FB4D3208810F0010FFBD02888FF2080
:1048E000218811F0800FFBD1218811F0020FFBD03D
:1048F0002880208810F0010FFBD02888FF21208815
:1049000010F0800FFBD1208810F0020FFBD029801F
:10491000208810F0010FFBD02888FF21208810F09C
:10492000800FFBD1208810F0020FFBD02980208857
:1049300010F0010FFBD028883E610021FF22208863
:1049400010F0800FFBD1208810F0020FFBD02A80DE
:10495000208810F0010FFBD02888491C0329EDD3D3
:1049600098F80000012814BFFF200020BDE8F08760
:104970002DE9F05F88460446FEF7DCF97E484FF4E7
:10498000005BC0F814B07D480078032818BF6402AB
:1049900021461220FFF76FF9764E341F002818BF0A
:1049A000FF2212D0218811F0800FFBD1218811F055
:1049B000020FFBD03280218811F0010FFBD031882B
:1049C0006D49C1F810B0BDE8F09F6E490120086044
:1049D0006D494FF0333008604FF000094F46B8F191
:1049E000000F88BFDFF8A4A17AD9FF20FFF7D0F825
:1049F000FE2808BFFF20F8D1218811F0800FFBD1DD
:104A0000218811F0020FFBD030800025208810F0A3
:104A1000010FFBD03088FF22C0B2218811F0800F37
:104A2000FBD1218811F0020FFBD03280FEF794FAFF
:104A30009AF8000001281ED0208810F0010FFBD04A
:104A40003088B5F5007F13D2FF21208810F0800F49
:104A5000FBD1208810F0020FFBD03180208810F0AD
:104A6000010FFBD03088681C85B2B5F5007FEBD311
:104A70004FF0010909E0681C85B2B5F5007FC5D388
:104A8000208810F0010FFBD03088A8EB0700012828
:104A900026D0B9F1000F08BFFF2021D1218811F0E5
:104AA000800FFBD1218811F0020FFBD031463080FE
:104AB000208810F0010FFBD00888FF20228812F018
:104AC000800FFBD1228812F0020FFBD008802088D3
:104AD00010F0010FFBD00888781C87B2474584D3BB
:104AE00000210C20FFF7C7F8FF21208810F0800F6D
:104AF000FBD1208810F0020FFBD03180208810F00D
:104B0000010FFBD030881C48C0F810B019F100002C
:104B100018BFFF20BDE8F09F2DE9F35F0446FEF7C4
:104B200009F915494FF400504861DFF850B02746A5
:104B30009BF80000032818BF7C0221461920FFF7CC
:104B40009AF80C4E0100A6F1040518BFFF2227D0E9
:104B5000288810F0800FFBD1288810F0020FFBD0BE
:104B60003280288810F0010FFBD0308810E0000060
:104B7000083800400C380040001001408C0A00202A
:104B8000FFFF0F0010080140000C0140060000204C
:104B9000FF4A4FF40050106102B00846BDE8F09F94
:104BA000FC494FF044300860FB490120086001983F
:104BB0004FF00008C146002888BFDFF8E0A379D98C
:104BC000DBF80800874202D34FF0010872E0FF20B3
:104BD000FEF7DEFFFF28FAD1FC20298811F0800FB4
:104BE000FBD1298811F0020FFBD03080288810F00B
:104BF000010FFBD030880024FEF7CAF99AF80010A4
:104C0000012908BF014619D0B4F5007F13D2FF2156
:104C1000288810F0800FFBD1288810F0020FFBD0FD
:104C20003180288810F0010FFBD03088601C84B2DE
:104C3000B4F5007FEBD34FF0010812E0288810F0A4
:104C4000800FFBD1288810F0020FFBD0318028881C
:104C500010F0010FFBD03088601C84B2B4F5007FE7
:104C6000CAD3FF21288810F0800FFBD1288810F0CC
:104C7000020FFBD03180288810F0010FFBD0308864
:104C8000FF21288810F0800FFBD1288810F0020F38
:104C9000FBD03180288810F0010FFBD030887F1CBA
:104CA000B8F1000F06D109F101001FFA80F901984F
:104CB000814585D3FF20FEF76BFFFF28FAD1FD2049
:104CC000298811F0800FFBD1298811F0020FFBD049
:104CD0003080288810F0010FFBD03088FF20FEF7CD
:104CE00057FFFF28FAD19BF80000012808D10021C6
:104CF0000C20FEF7C0FFFF20FEF74AFFFF28FAD185
:104D0000FF20298811F0800FFBD1298811F0020FB4
:104D1000FBD03080288810F0010FFBD030889C49F0
:104D20004FF40050086118F1000018BFFF2002B0D6
:104D3000BDE8F09F2DE9F0470446FDF7FBFFDFF8E3
:104D400050824FF40057C8F8147095480078032833
:104D500018BF640221461820FEF78DFF914E341FC4
:104D6000002814BFFF22FF210DD0218811F0800FF1
:104D7000FBD1218811F0020FFBD03280218811F085
:104D8000010FFBD08BE0208810F0800FFBD1208832
:104D900010F0020FFBD03180208810F0010FFBD003
:104DA0003088FE21208810F0800FFBD1208810F081
:104DB000020FFBD03180208810F0010FFBD030882B
:104DC00074494FF0443008607349012008600025A1
:104DD000DFF8C891FEF7DCF899F80010012916D029
:104DE000B5F5007F25D20021208810F0800FFBD17F
:104DF000208810F0020FFBD03180208810F0010FC6
:104E0000FBD030886D1CB5F5007FECD311E0218814
:104E100011F0800FFBD1218811F0020FFBD0308000
:104E2000208810F0010FFBD030886D1CB5F5007F95
:104E3000D0D3FF21208810F0800FFBD1208810F004
:104E4000020FFBD03180208810F0010FFBD030889A
:104E5000FF20218811F0800FFBD1218811F0020F73
:104E6000FBD03080208810F0010FFBD03088FF206D
:104E7000FEF78EFEC0B200F01F0105290CBF4A4D9F
:104E8000FF2211D0218811F0800FFBD1218811F071
:104E9000020FFBD03280218811F0010FFBD0318846
:104EA000C8F81070BDE8F087FF20FEF771FE10F023
:104EB000FF0F06D1FDF751FF08B1002501E06D1E7F
:104EC000F2D1FF21208810F0800FFBD1208810F054
:104ED000020FFBD03180208810F0010FFBD030880A
:104EE000C8F81070002D0CBFFF200020BDE8F0872F
:104EF0002DE9F041FDF71EFFDFF8A48098F80000CF
:104F0000012804BF0021232008D0022813BF032852
:104F100000212020012018BFBDE8F081FFF7A5F88F
:104F2000204D1B4F2C1F4FF40056002818BFFF22A6
:104F30000DD0218811F0800FFBD1218811F0020FD4
:104F4000FBD02A80218811F0010FFBD056E098F8A1
:104F50000010012906D1D8F80400A0F50071242022
:104F6000FFF783F898F80010022906D1D8F804005A
:104F7000A0F500712120FFF778F898F800100329B8
:104F800005D1D8F80800411E2120FFF76EF80DE08A
:104F900000100140000C01401408014006000020F0
:104FA0008C0A00200C380040FFFF0F00002818BFBB
:104FB000FF220DD0218811F0800FFBD1218811F044
:104FC000020FFBD02A80218811F0010FFBD015E0E1
:104FD0007E6100212620FEF74EFE002818BFFF222A
:104FE00010D0218811F0800FFBD1218811F0020F21
:104FF000FBD02A80218811F0010FFBD029883E6167
:10500000BDE8F081FF20FEF7C3FD0028FAD03E6125
:10501000FF21208810F0800FFBD1208810F0020FB4
:10502000FBD02980208810F0010FFBD028880020B9
:10503000BDE8F0812DE9F0470446FDF77BFEDFF87F
:10504000B0914FF40057C9F814706A4800780328EB
:1050500018BF640221461120FEF70DFE664C261D86
:10506000002814BFFF21654D11D0228812F0800F57
:10507000FBD1228812F0020FFBD03180218811F081
:10508000010FFBD03188C9F81070BDE8F087FF2010
:10509000FEF77EFDC0B2FE2805D0FDF75EFE88BBA0
:1050A0006D1EF4D12FE06DB355494FF044300860C8
:1050B000544901200860DFF850810025FF20FEF7E9
:1050C00067FD00F0FF0AFDF763FF98F80010012963
:1050D00008BF50452BD0B5F5007F2CD2FF2120888A
:1050E00010F0800FFBD1208810F0020FFBD0318030
:1050F000208810F0010FFBD030886D1CB5F5007FC3
:10510000ECD318E0FFE7FF21208810F0800FFBD1DF
:10511000208810F0020FFBD03180208810F0010FA2
:10512000FBD03088C9F81070FF20BDE8F0876D1CF7
:10513000B5F5007FC2D3FF21208810F0800FFBD18E
:10514000208810F0020FFBD03180208810F0010F72
:10515000FBD03088FF21208810F0800FFBD1208801
:1051600010F0020FFBD03180208810F0010FFBD02F
:105170003088FF21208810F0800FFBD1208810F0AC
:10518000020FFBD03180208810F0010FFBD0308857
:10519000C9F810700021FF22208810F0800FFBD189
:1051A000208810F0020FFBD03280208810F0010F11
:1051B000FBD03088491C0329EDD398F80000012862
:1051C00014BFFF200020BDE8F08770B50D1E064615
:1051D0004FF0000409D93019FFF72CFF08B1FF2068
:1051E00070BD601C84B2AC42F5D3002070BD0000DD
:1051F000001001408C0A002008380040FFFF0F001B
:10520000000C014014080140060000202DE9F04187
:10521000F84EF94D4FF080444FF6FE77FF20FEF731
:10522000B7FCFF2813D0307802281CBF287800284C
:1052300006D0208A10F0010F1CBF2782FBF7ABF8C5
:10524000FDF78BFD0028E9D00120BDE8F0810020AA
:10525000BDE8F081E948816D21F001018165416C73
:1052600021F0010141640021C1658164FCF707BCA4
:10527000E248C16D002904BF816C0029F9D1704753
:105280002DE9F34F0746DE4883B00078032818BFA6
:105290007F020120DFF86C83C8F80000DA494FF084
:1052A000333008600026FF224FF40271D74800F027
:1052B000D3FDD74800254FF6FF7B0290FDF74DFD4B
:1052C00058BBDFF850A34FF40059CAF81490394680
:1052D0001220FEF7D0FC040009D0FF20FEF758FC96
:1052E00051464846086105B02046BDE8F08FFF20D2
:1052F000FEF74EFCC0B2FE2813D0601C84B2A3455A
:10530000F5D8CAF81090FF20FEF742FCFF20FEF708
:105310003FFC681C85B2052DD0D305B0FF20BDE849
:10532000F08F4FF40072B9491046029BFCF7E8FB7E
:105330000498401E80B2019000200090049800283C
:1053400070D9DFF8D4A2DFF8D4B2B54D4FF004091C
:10535000A848007802280DD0A748007850B14FF037
:105360008040018A11F0010F04D04FF6FE710182D6
:10537000FBF711F8A148C16D002904BF816C002919
:10538000F9D1FCF77CFBA248029C84420CBFA548E3
:105390009F480290DDE9000188421CD0FF20FEF703
:1053A000F7FBFF20FEF7F4FBFF20FEF7F1FBFE28E2
:1053B0000AD000BFFDF7D1FC08B1012604E0FF20B0
:1053C000FEF7E6FBFE28F5D14FF400728F49104638
:1053D000029BFCF795FB002714F8010BCAF80000AC
:1053E000C8F8009000BFCBF8009000BFFDF7B5FCF7
:1053F00020B18D4900200126087013E0286810F4C0
:10540000006FF3D04FF4006028605EB9781C87B25B
:10541000B7F5007FE0D300980499401C80B200905B
:10542000884295D37548816D21F001018165416CF9
:1054300021F0010141640021C1658164FCF71FFB7B
:1054400000210C20FEF717FCFF20FEF7A1FB71499D
:105450004FF400500861002E08BF00207FF45DAFBC
:1054600005B0BDE8F08F2DE9F34F6A4A81B04FF4E3
:1054700000515161DFF888B106469BF800100329FE
:1054800018BF700201461920FEF7F5FB04000AD090
:10549000FF20FEF77DFB5F494FF40050086103B029
:1054A0002046BDE8F08F58494FF0443008605B4912
:1054B0000120086000250298554C2F46002884BF23
:1054C000DFF83081DFF830916ED900BF98F8000026
:1054D00002281CBF99F8000000280AD04FF0804035
:1054E000018A11F0010F04D04FF6FE710182FAF724
:1054F00052FFDBF80800B04201D8012554E0FC203F
:10550000DFF824A104F8010B002500BFFDF740FDE2
:1055100004F8010B9AF800000128EED1681C85B24E
:10552000B5F5007FF2D3FF202070607017F0010FF7
:1055300014BF3C483648009014BF354C394C2F48B6
:10554000C16D002904BF816C0029F9D1FCF797FADD
:105550004FF080454FF6FE7AFF20FEF719FBFF283B
:1055600014D098F8000002281CBF99F80000002809
:1055700007D0288A10F0010F1CBFA5F810A0FAF779
:105580000AFFFDF7EAFB0028E6D0B6E740F2032267
:105590000025264B10460099FCF7B2FA781C87B21A
:1055A0000298761C874291D31448C16D002904BF2C
:1055B000816C0029F9D1FCF762FAFF20FEF7E8FAC6
:1055C000FF2809D0FDF7C9FB08B1012504E0FF2041
:1055D000FEF7DEFAFF28F5D1FD20FEF7D9FAFF200D
:1055E000FEF7D6FAFF2828D0FDF7B7FB08B1012552
:1055F00023E01DE00100002009000020000002401F
:105600008C0A002010080140000C01409C0A002078
:10561000A40C0020001001400C0C014014080140B3
:1056200014040140AC0E002006000020B41000203D
:10563000FF20FEF7ADFAFF28D6D19BF80000012825
:1056400012D100210C20FEF716FBFF20FEF7A0FA76
:10565000FF2809D0FDF781FB08B1012504E0FF20F8
:10566000FEF796FAFF28F5D1FF20FEF791FA0E49D2
:105670004FF400500861002D14BFFF20002003B03C
:10568000BDE8F08F012101EBD02000EB400040F29B
:105690004A4148434FF6FF71884228BF4FF6FF70DA
:1056A00080B2FCF7E4BB00000010014002461A483B
:1056B00000881A4B002803EB42020CBF10880846F2
:1056C000704770B50D4615498E1E01EB40043188B8
:1056D0002088002902BFA842042070BD00F039F8DC
:1056E000352000F05EFA304600F091F8042818BF2B
:1056F00070BD0021304600F02AF9042818BF70BDA3
:105700002946204600F023F90446042818BF70BD3E
:1057100000F025F8204670BD00F8000802F80008E7
:10572000FE490A6802F03802104308607047FB49DE
:105730000A6822F008020A600A681043086070478D
:10574000F6490A6822F010020A600A6810430860ED
:105750007047F248F2494160F24941607047EF48B2
:10576000016941F0800101617047EC490420CA6879
:1057700012F0010F1CBF01207047CA6812F0040F1D
:105780001CBF02207047C96811F0100F18BF03201A
:105790007047014681B00420E04AD36813F0010F3E
:1057A00018BFFF232ED1D36813F0040F18BF0220B7
:1057B00021D1D26812F0100F18BF03201BE000980F
:1057C000401E0090FBD1D2F80CC004201CF0010F49
:1057D00018BF01200CD1D2F80CC01CF0040F18BF68
:1057E000022005D1D2F80CC01CF0100F18BF032006
:1057F000491E012806D000291CBF01B070470520B2
:1058000001B07047002918BF0093D8D1F7E730B531
:10581000054640F6FF70FFF7BCFF042818BF30BDF7
:10582000BE4C206940F0020020616561206940F0B3
:105830004000206140F6FF70FFF7ABFF052808BF6E
:1058400030BD216941F6FD721140216130BD10B5B6
:1058500040F6FF70FFF79DFF042818BF10BDAF4C46
:10586000206940F004002061206940F04000206180
:1058700040F6FF70FFF78DFF052808BF10BD2169B6
:1058800041F6FB721140216110BD30B540F6FF704A
:10589000FFF77FFF042818BF30BDA1489F4CA060D0
:1058A000A048A060206940F020002061206940F0FD
:1058B0004000206140F6FF70FFF76BFF41F6EF7587
:1058C000042803D0052808BF30BD11E0206941F647
:1058D000DF7108402061206940F01000206192498A
:1058E000A52008800F20FFF754FF052808BF30BD12
:1058F00021692940216130BDF8B50646002000909D
:105900000D460F20FFF745FF042818BFF8BD834C54
:10591000206940F00100206135800F20FFF739FF3A
:1059200041F6FE77042803D0052808BFF8BD0AE039
:10593000B01C00900099280C08800F20FFF729FF69
:10594000052808BFF8BD216939402161F8BD70B54F
:1059500006460D460F20FFF71CFF042818BF70BD38
:105960006E4C206940F00100206135800F20FFF768
:1059700010FF052808BF70BD216941F6FE72114075
:10598000216170BD70B506460D460F20FFF701FF7F
:10599000042818BF70BD6248604CA0606148A060D8
:1059A000206940F01000206135800F20FFF7F1FEE4
:1059B000052808BF70BD216941F6EF7211402161D1
:1059C00070BD2DE9F041C043C7B2C0F30726C0F354
:1059D00007454FEA10680F20FFF7DBFE042818BFC9
:1059E000BDE8F0814E494D4CA1604E49A16021694E
:1059F00041F010012161FF2F06D04C4807800F2095
:105A0000FFF7C7FE04281AD1FF2E06D048480680AB
:105A10000F20FFF7BEFE042811D1FF2D06D0454808
:105A200005800F20FFF7B5FE042808D1B8F1FF0F5D
:105A300009D04148A0F800800F20FFF7AAFE0528F2
:105A400008BFBDE8F081216941F6EF721140216184
:105A5000BDE8F08130B5054640F6FF70FFF799FECE
:105A6000042818BF30BD2E482C4CA0602D48A060E3
:105A7000206940F020002061206940F04000206152
:105A800040F6FF70FFF785FE41F6DF71042806D06F
:105A900005281ABF2269114030BD216130BD20693F
:105AA00008402061206940F0100020611E48002D50
:105AB00014BF0021A521018040F6FF70FFF769FEA9
:105AC000052808BF30BD216941F6EF721140E4E7B7
:105AD000F0B5124C0746124815460E46A060114814
